:100000000200037584017E44041FE47A49B01B4456
:1000100078F97EF800208AFF048AAAAAD2C7AAC269
:10002000C7AAD2A0AAC2A0AAA2A0E433AA9AFF009B
:10003000229AFF001C9AFF001B9AFF00259AFF00DE
:100040001B8AFF001F9AFF00259AFF001C9AFF00E1
:100050001B9AFF00228AFF001B9AFF001F9AFF00D5
:10006000259AFF001B9AFF001C9AFF001B9AFF00B5
:100070001F8AFF00229AFF001F9AFF00229AFF00AA
:100080001B9AFF001C9AFF001B8AFF001FCA796D94
:10009000779AFF001C9AFF001B80140B749AFF00D4
:1000A0001ABE74006428089AFF00457401800B9AF8
:1000B000FF002870E69AFF001FE4DA79AACA797C6B
:1000C000FB9AFF001F6CEE7CBF5480BEB000280678
:1000D0009AFF002280049AFF00253EF09AFF001B41
:1000E0009AFF001C9AFF001B9AFF001F9AFF001B3B
:1000F0000BE0BEE00840D0DA79AACAD8CA797CFB06
:100100006CEE6CDD9AFF001F9AFF001B9AFF001C2B
:100110003EE09AFF002860020BE09AFF001B0BD024
:10012000BED00878DF4CFF78069AFF007580049AED
:10013000FF00597CBEDA79DAD8AACA3B90000F1BBF
:10014000EA207F3090000E7AEB7090000DF09AFF5D
:10015000002D90000DE03EB09AFF00BD9AFF008D8B
:1001600060047401803D90000EE09AFF00BD9AFF8C
:10017000008D60197401802B80137E3BB00B749A44
:10018000FF00BD9AFF008D60047401801690000F7F
:100190000BEA307D231B241BEA204D3378DC9AFFC9
:1001A0000045E4DA3BAACA3B9000131BEA207F30EB
:1001B0009000127AEB70900011F09AFF002D9000E1
:1001C00011E03EB09AFF00BD9AFF008D60047401FB
:1001D000805C900012E09AFF00BD9AFF008D6004E1
:1001E0007401804A9AFF002D900011E03EB0440156
:1001F0009AFF00BD9AFF008D601E74018030801848
:100200009000130BEA304D33680474018001E49AC6
:10021000FF00FA7A3BB00B749000130BEA307D2399
:100220001B241BEA204D3378D79AFF0045E4DA3BC4
:10023000AACA3B7CC57CF67CE77CDB7E1400197E79
:100240000400017E2400019AFF01A6704B4CCC688B
:10025000157E3400017CBF60053E341478FB9000AD
:1002600019E04CB780187E3400017CBF60053E3435
:100270001478FB7CA76EA0FF900019E05CBA900098
:1002800019F07CBD7C7E7E1400197E0400017E2462
:1002900000019AFF013A80027401DA3BAACA3B7C52
:1002A000F47CE57CD67CC7900015F0900015E07ECC
:1002B0001400167E0400017E2400019AFF01A6703E
:1002C000567E3400017CBE60053E341478FB1B343E
:1002D0000A2E0A4D9D420B447CB960053E341478C9
:1002E000FB7CA77CB960053EF01478FB5CFA6EA03D
:1002F000FF900016E05CBAF0900016E04CBFF09062
:100300000015E07C7C7E1400167E0400017E240033
:10031000019AFF013A80027401DA3BAACA3B7F309E
:100320009000177AEB607E1400187E0400017E2492
:1003300000019AFF01A6701F900017E07E340001B3
:1003400060053E341478FB7C679000187EEB705C8F
:10035000767A3B70E480027401DA3BAACA79900095
:10036000081BEA00791E00027CF57CE67E14000C76
:100370007E0400017E2400019AFF01A670517E34A4
:1003800000017CBF60053E341478FB1B340A2F0A41
:100390005E9D520B5460053E341478FB90000CE0D7
:1003A0005CB7F00A4F0A5E9D540B5490000C7EEB34
:1003B000A060051EA01478FB7AEBA090000CE090E2
:1003C0000008693E00020BEA207A1BB0E480027448
:1003D00001DA79AACAF8C200C201C202C2036D33AF
:1003E0009000001BEA30E47E14FECC7E04007E7A8E
:1003F0000BB07E34FECD7E24007E7A1BB07EF0688A
:100400007E54FEC87E44007E7A2BF07E54FEC97A6C
:100410002BF07E54FECA7A2BF07E54FECB7A2BF062
:1004200074557A0BB07A1BB0E47E34FED27A1BB0DE
:1004300074027E34FED37A1BB0E47E34FEB17A1BA4
:10044000B07E1BB044017A1BB07E1BB044027A1B05
:10045000B0E47E34FEB27A1BB074807E34FEDD7A66
:100460001BB07E34FEC07E1BB044817A1BB0DAF82C
:10047000AA9000000BEA107E34FED57E24007E7A1E
:100480001B207E34FED67A1B30AAA9D7BA75EA00A3
:1004900075E9007592FF75910075B4FF75B300752D
:1004A000960075950053B22053B1209AFF03D47E75
:1004B0003400019000001BEA3020000C9000007E08
:1004C0003400021BEA30800A9000006D331BEA30D2
:0804D000C2009AFF047180D7FD
:00000001FF
