:1000000002000602004F7584017E44041FE47A4911
:10001000B01B4478F97EF80020C2007E0400FF7E09
:100020001400B30B0A405D446822295000020A25DF
:10003000693000032E0800050B44800A7E0BB07A5D
:100040001BB00B1C0B0C1B4478F280D7020089CA32
:1000500059C0D1C083C082A200E4337CAB4CAB78E2
:1000600018D200900008E004F0900008E0BEB0084C
:10007000480EE4900008F08007BEA0017802C2009C
:10008000D082D083D0D1DA5932A9D7BA75EA0075B7
:10009000E90075CC0075CB00C288D2A8D2AF900021
:1000A00008E01A3B2E3400007A71827A6183E0F511
:1000B000E880EB0008010000A05028140A058241E6
:0800C00000010100080000002E
:00000001FF
