:03000000020BFBF5
:0C0BFB00787FE4F6D8FD758121020C42E1
:100CF400434C532830293B434C532830293B434C25
:100D0400532830293B0D0A004453333228333330FF
:100D14002C302C27C6B5C2CABCC6272C3137293B78
:100D2400445334382836302C3230302C27C6B5C2E0
:100D3400CA3A25332E346620485A272C3137293BAA
:030D44000D0A0095
:100D4700C10B44014A0000000044014600000000B6
:070D5700440142000000000E
:100AF500120E3590015174FFF0A3740CF0A374F439
:100B0500F07B017A0179061206D77B017A01790615
:100B1500120E4C120DE190017FE0FEA3E0FFE4FC14
:100B2500FD7BFF7AFFF9F81205C3A804A905AA06FB
:100B3500AB0790017EE0FEE4FCFD2BFBEA3EFAEDFF
:100B450039F9EC38F8900181E0FFE4FEEB2FFFEE78
:100B55003AFEED39FDEC38FC1202399001461206D9
:100B650020900146E0F8A3E0F9A3E0FAA3E0FB7FBB
:100B7500197EBB7DA87C4B12012FC004C005C006A1
:100B8500C007900182E0FCA3E0FDE412023ED00321
:100B9500D002D001D00012002690014A1206209002
:100BA500015174FFF0A3740DF0A3740CF090014A89
:100BB500E0FCA3E0FDA3E0FEA3E0FF9001541206D4
:100BC500207B017A0179061206D77B017A01790625
:100BD500120E4C7F007ED27D577C4890014AE0F88A
:100BE500A3E0F9A3E0FAA3E0FB1201CC5003020B4A
:060BF5001BD20B020B1BDA
:100D5E0042017F0000420188000042018A000042E9
:100D6E000182000042018C00004101810041017EA0
:080D7E000044018400000000A4
:100DE100438E80758951E4F58CF58AF58DF58BD2AA
:0E0DF1008ED28CD2A9D2ABD288D2A8D2AF2299
:03000B00020DFFE4
:100DFF00C0E0C083C082900189E004F070069001CA
:0B0E0F0088E004F0D082D083D0E032F5
:03000300020C8765
:100C8700C0E0C083C082C0D075D000C006C0079046
:100C9700018BE004F0700690018AE004F09001886F
:100CA700E0FEA3E0FFC39464EE940040339001811B
:100CB700E58AF0758A0090017EE58CF0758C00A3BB
:100CC700EEF0A3EFF0900188E4F0A3F0A3E0FFA318
:100CD700E0900182CFF0A3EFF090018AE4F0A3F057
:0D0CE700D007D006D0D0D082D083D0E0322C
:03001B00020E1AB8
:100E1A00C0E0C083C08290018DE004F070069001AA
:0B0E2A008CE004F0D082D083D0E032D6
:100DC100D3EF9400EE6480948040147D6E7C00ED3E
:0F0DD1001D70011CED4C70F7EF1F70E41E80E1E8
:010DE00022F0
:0A000E00C2098F993009FDC20922D2
:100E4C0012056BFF600C12000E740129F9E43AFADA
:030E5C0080EE2203
:060E5F00AE0712000E2296
:100E350053877F759850438E04759CFA438E014302
:070E45008E10D2ACD2AF22E7
:03002300020D8744
:100D8700C0E0C083C082C0D030981FC298900102D3
:100D9700E02400F582E43400F583E599F090010240
:100DA700E004F0C394804002E4F0309904C299D281
:0A0DB70009D0D0D082D083D0E03202
:10002600EC4D6011E8497017ED33EC3304600DE4D4
:10003600FCFFFEFD22E933E8330470F80202AC123D
:10004600027758046009E4CC24815006285009023E
:1000560002B62840030202B3C0E0EB4A7044B980FE
:1000660006D0E0FB0202A2EF4E701CBD8008EBFF3B
:10007600EAFEE9FD80EBE98DF0A4FEE5F002010F52
:10008600E9CDF9EAFEEBFFEF89F0A4FCE5F0CE89B5
:10009600F0A42EFFE435F0CD89F0A42DFEE435F072
:1000A6008067EF4E7005BD80D780C3EF8BF0A4ACA0
:1000B600F0EE8BF0A42CFCE435F0F8EF8AF0A42CDB
:1000C600E5F038FCE433CB8DF0A42CFCE5F03BF8EE
:1000D600EE8AF0A42CFCE5F038F8E433CF89F0A4DE
:1000E6002CFCE5F038CF3400CE89F0A42FFFE5F0E4
:1000F6003EFEE433C98DF0A42EFEE5F039CD8AF03C
:10010600A42FFFE5F03EFEE43DFD33D0E0FB5007B3
:100116000BBB000F0202B6EC2CFCEF33FFEE33FEF6
:06012600ED33FD02028E24
:10012C000202B6EC5D046005E8590470030202ACEF
:10013C00120277580460F6EC4860F2EC7004FDFE95
:10014C00FF22C860DB2481C85009C39860025006A6
:10015C000202B39850CAF582E9294B4A7005AB826A
:10016C000202A275F0007C1A7880C3EF9BEE9AED28
:10017C0099400DC3EF9BFFEE9AFEED99FDE842F01E
:10018C00DC23ACF0D0E0FFD0E0FED0E0FDAB822071
:10019C00E7101BEB60BAEC2CFCEF33FFEE33FEEDFB
:1001AC0033FD02028EE803F830E705C0F075F0006D
:1001BC00EF2FFFEE33FEED33FD40B830E7C280AADF
:1001CC0074F8CC6480CCC86480C8F582046043C3E6
:1001DC00EB9FF5F0EA9E42F0E99D42F0E89C45F079
:1001EC0060305018E5825FFFE582F42B5582FB509E
:1001FC00210ABA001D09B90019088016E5825BFBBB
:10020C00E582F42F5582FF50090EBE00050DBD008E
:10021C00010CC3EB9FF5F0EA9E42F0E99D42F0E839
:0D022C009C45F06007CC4820E701B3EC22B0
:1002390075F020800E75F010800575F0087D007E40
:10024900007F003392D530D503120612EC334010EB
:10025900EF33FFEE33FEED33FDEC33FCD5F0ED2249
:0E026900E5F0247EA2D513CC92E7CDCEFF2285
:10067200E5082451F582E43401F583E0050822906F
:10068200014E300703900151E475F00112062C026D
:10069200056B2000E97F2ED2008018EF540F2490C2
:1006A200D43440D4FF30040BEF24BFB41A005003FB
:1006B2002461FFE50960021509050CE50C700205CD
:1006C2000B30070E90014EE475F00112062CEF027A
:1006D20005B1020E5F7403D2078003E4C207F50876
:1006E20090014E120643E4F509F50BF50CE509609D
:1006F200077F201206B580F5750AFFC201C200C24B
:1007020002C203C205C206C208120681FF700D3082
:1007120007057F001206C6AF0CAE0B22B4255FC2DE
:10072200D5C204120681FF24D0B40A00501A75F013
:100732000A780930D50508B6FF0106C6A426F620B8
:10074200D5047002D20380D924CFB41A00EF50042A
:10075200C2E5D2040209B8D20180C6D20080C0D25A
:100762000280BCD2D580BAD20580B47F201206B5F1
:100772002002077401B5090040F1120672FF120649
:10078200B50206EFD208D2068095120672FB120657
:1007920072FA120672F94A4B700679B67A0A7BFF30
:1007A20020022EE509602A7E008E827583001205E2
:1007B2008460060EEE650A70F0C2D5EBC0E0EAC0B6
:1007C200E0E9C0E0EE120A19D0E0F9D0E0FAD0E098
:1007D200FB12056BFF60AAEBC0E0EAC0E0E9C0E0F3
:1007E2001206B5D0E02401F9D0E03400FAD0E0FBE3
:1007F200E50A0460DCD50AD98087D20280A21209F8
:10080200FB60F7E50A7001041202C1A90A600DE556
:100812000A600914F50A120AA3EF60F3EA30E7024C
:10082200F404C3995079EAF4250A0430E701E40498
:10083200F50A800D1209FB60C1EA050A250A1202B7
:10084200C1EA90017DF030E701E4250A04D50A04EB
:1008520020050114120A19E4C0E0120AA390017DD6
:10086200E0601320E70714F012069D802204F0D006
:10087200E014C0E07F0012069DE50A6007120694AC
:10088200150A800B300503120694D0E00206EFD061
:10089200E00480C41209FB609EE50A041202C190C2
:1008A200017DEAF0E50A2005026001042404120A2F
:0108B200192C
:1008B30074FF04C0E0120AA312069DE50A20050294
:1008C3006003120694D0E0B50AE87F451206A790AC
:1008D300017DE07F2B30E7047F2DF404C0E0120696
:1008E300B5D0E075F00A84C0F012069ED0E012067F
:1008F3009E0206EF791080027908C206C2088008BA
:10090300D2D5790A8004790AC2D5E50A047002F5C2
:100913000AE4FAFDFEFF120672FC7B0820011312A3
:100923000672FD7B1030000A120672FE120672FF79
:100933007B20EC3382D592D55013C3E43000069F5D
:10094300FFE49EFEE42001039DFDE49CFCE4CBF860
:10095300C201EC700CCFCECDCCE824F8F870F38054
:1009630017C3EF33FFEE33FEED33FDEC33FCEB3314
:10097300FB994002FB0FD8E9EB300105F8D0E0C446
:1009830048B201C0E00AEC4D4E4F78207B0070C2A4
:10099300EAB50A0040BCC0E0120A1BD0F0D0E02048
:1009A3000104C4C0E0C4B201C0F012069ED0F0D569
:1009B300F0EB0206EF12064C078C5308F758075D5D
:1009C3004C07594208FB4F09034409034907724383
:1009D3000909550836460896450800470AD65007C0
:1009E300612D07652E07882B0769230786200ABF19
:1009F3002A07214800000780E50AB4FF03750A06A9
:100A0300120672FC120672FD120672FE120672FFC5
:100A13009001760202FE790AA2D52003143005095B
:100A2300B910020404B9080104A2D520060250013A
:100A3300042002689202B509005034C0E07F2030E0
:100A430003197F30A20272067205500F120A72C296
:100A530002C206C205C2087F30800F300503E9C019
:100A6300E01206B5300503D0E0F9D0E0B509CC308B
:100A730005177F30B9100C1206B57F583004077F75
:100A8300788003B908031206B53002057F2D0206EC
:100A9300B57F202008F87F2B2006F322920280CF17
:100AA3007F00B40700500B2476F582E43401F5830C
:100AB300E0FF22286E756C6C2900D2011206723099
:100AC30001F8C201780930D50108F60207212D503B
:100AD3004349581206722403B405004001E4900A06
:100AE300D1931206A6743A1206A6D203750904021C
:020AF30008F702
:10027700E9D2E7C933E833F892D5EDD2E7CD33ECCD
:0702870033FC5002B2D52246
:10028E00EC30E7100FBF000C0EBE00080DBD0004D1
:10029E000BEB6014A2D5EB13FCED92E7FD2274FF7D
:1002AE00FCFDFEFF22E480F8A2D574FF13FC7D80D6
:0302BE00E480EFEA
:1002C100F920E73624F950037907E4F42402FBE529
:1002D10082158270021583DBF6E024FB501BE96076
:1002E10014E4F0E582158270021583E004F0B40A8B
:0D02F10008E4F0D9EE7401F00A22C2D52213
:1002FE00ED33EC3392D5FA602AB4FF33EDC2E77BCF
:10030E00FF60067A037923E4227A03792C20D50440
:10031E007A037927224E614E002B494E46002D4915
:10032E004E4600E47A08F0A3DAFC7B00740722C084
:10033E0083C082ECC0E0EDC0E0EEC0E0EFC0E0EACA
:10034E0075F010A4CAABF075F04DA42BFBE435F09C
:10035E00FCEA2410FAEB34C5FBEC34D9FCEDC2E711
:10036E00FF75F056A4F42411C5F0F434C58FF0A433
:10037E002AE5F03BE43CF020E71412052BD0E0FF19
:10038E00D0E0FED0E0FDD0E0FC12012F8014F4048A
:10039E0012052BD0E0FFD0E0FED0E0FDD0E0FC1245
:1003AE000026D082D083E0FAEDD2E7CD33EC3324B1
:1003BE0082FBE4C3CF33CFCE33CECD33CD33DBF39D
:1003CE007B0775F00A846004F0A31B0AE5F0F0A326
:1003DE008FF0740AA4FFACF08EF0740AA42CFEAC5D
:1003EE00F050010C8DF0740AA42CFDE435F0F0A34E
:0503FE00DBDE740722A4
:100403000202ACE86480F8E933E83360110460F079
:10041300ED33EC337009E8FCE9FDEAFEEBFF22045F
:1004230060DED3EB9FEA9EE99DE8C2E78CF0C2F75A
:1004330095F0400CE8CCF8E9CDF9EACEFAEBCFFB26
:1004430012027785D0F05804700320D5B3E8047006
:10045300075002B2D50202B692D5EC0460F7E4CCA1
:10046300C0E0C398F8603B94186008400DD0E0FBEF
:1004730002028EE4FBFAC9FC8028E830E406E4C9F2
:10048300FBE4CAFCE830E305E4C9CACBFCE8540743
:100493006010F8C3E913F9EA13FAEB13FBEC13FC4E
:1004A300D8F130F52FC3E49CFCEF9BFFEE9AFEEDF1
:1004B30099FDD0E0FBEF4E4D4C701222DB0302029C
:1004C300B3EC2CFCEF33FFEE33FEED33FDED30E701
:1004D300EB02028EEF2BFFEE3AFEED39FDD0E0FB8F
:1004E30050130BBB00030202B6ED13FDEE13FEEF38
:0804F30013FFEC13FC02028E62
:1004FB003F8000004120000042C80000447A000009
:10050B00461C400047C35000497424004B1896808A
:10051B004CBEBC205A0E1BCA6753C21C749DC5AE81
:10052B00FB60065407601C2323120559EB543860FB
:10053B0009120545120554120026ECF8EDF9EEFAF6
:10054B00EFCB22EB12055480F1543803241C90049A
:10055B00FBFE93FC0EEE93FD0EEE930ECE93FF225D
:100C0700020AF5E493A3F8E493A34003F68001F204
:100C170008DFF48029E493A3F85407240CC8C333EE
:100C2700C4540F4420C8834004F456800146F6DFBD
:100C3700E4800B0102040810204080900D47E47EF9
:100C4700019360BCA3FF543F30E509541FFEE493B2
:100C5700A360010ECF54C025E060A840B8E493A379
:100C6700FAE493A3F8E493A3C8C582C8CAC583CAA4
:100C7700F0A3C8C582C8CAC583CADFE9DEE780BE5C
:010D8600006C
:10056B00BB010689828A83E0225002E722BBFE028E
:09057B00E32289828A83E49322C1
:10058400BB010CE58229F582E5833AF583E022502C
:1005940006E92582F8E622BBFE06E92582F8E22276
:0D05A400E58229F582E5833AF583E4932290
:1005B100BB010689828A83F0225002F722BBFE0129
:0205C100F32223
:1005C300E88FF0A4CC8BF0A42CFCE98EF0A42CFCD7
:1005D3008AF0EDA42CFCEA8EF0A4CDA8F08BF0A455
:1005E3002DCC3825F0FDE98FF0A42CCD35F0FCEBB4
:1005F3008EF0A4FEA9F0EB8FF0A4CFC5F02ECD3979
:0F060300FEE43CFCEAA42DCE35F0FDE43CFC22E5
:0E061200C3E49FFFE49EFEE49DFDE49CFC22F9
:0C062000ECF0A3EDF0A3EEF0A3EFF0224D
:10062C00F8E0FBA3A3E0F925F0F0E5821582700257
:07063C001583E0FA38F022FB
:09064300EBF0A3EAF0A3E9F022B8
:10064C00D083D082F8E4937012740193700DA3A33D
:10065C0093F8740193F5828883E473740293686051
:06066C00EFA3A3A380DF51
:00000001FF
