:070000000220E02830290076
:08000B00021E99252E33660048
:10001B0002223F0202D46E00807CB1337CB0336885
:10002B000D0468EF7CB5337CB43378037F10220466
:10003B0068E17D5092F77D457D51BF2140067C8064
:10004B007F017F121202977EA1D05CB0047803204F
:10005B00D5C17CB00478075002B2D50202DC92D530
:10006B00BE80FF68F67CB89CB06C00602AB41805A3
:10007B007C410202B050FB80032F00047C9B5E90FE
:10008B000778F630E4067C437D106D0030E3087C86
:10009B00437C327C210A0030F5199F10780E220226
:1000AB0002D91B8068F92F1150020B707CB530E719
:1000BB00F1801B2D317CB5A5397C5B50110B807801
:1000CB00030202DC1E341350034E60801A2B020213
:1000DB00B05D22680D5D0078122D220B4068099FE0
:1000EB0011222D000B0078F90202D41202975C80CA
:1000FB000B806808248150072CB0500A0202DC2CBC
:10010B00B040030202D97C8B5D1178267CB17CA5B3
:10011B00BE1080680A5D33780DA5BD80057F100287
:10012B0002C66D0080307F017C5B7CB17CA5AD127B
:10013B0080245D337806A5BD80F080E1CA887D41BF
:10014B00AD437CB17CA5AD122D1450020B047C5B2E
:10015B00AD232F01DA88A42D05BE008040060B804D
:10016B00780480982F007C437C507C617C72020267
:10017B00B0BE24FFFF6806BE04FFFF78030202D463
:10018B001202975CB00468F57CB8A54868EF7CB8A0
:10019B0070039F1122A5B800030202DC2E008150D0
:1001AB00079C8038070202D99C8050ED0A51C2E7A8
:1001BB004D5178030202C67E5400807E901A6C006B
:1001CB0080061B9068142F11BF1040049F104CAB7E
:1001DB000330E7EECAA86CAA80E8DA39DA587C4A11
:1001EB00BE5080500A1B8068BC2F1150020B70024E
:1001FB0002B07EA020800C7EA01080057EA0086C33
:10020B00556D333392D5500A6E34FFFF6E24FFFFCA
:10021B000B1CA5EC3340062F11D5F0F6227CBA242B
:10022B007EA2D5137C767C65A5CC92E77C5B227C89
:10023B00B5337CB43392D54E5080248140039F114B
:10024B00227C457C567C676C7724E0500E7E1CFF2D
:10025B00FF221E341E2450034E60800478F430D5E8
:10026B000A6E34FFFF6E24FFFF0B1C227F707F5141
:10027B007EC400017ED4006A7E94028A020315407C
:10028B0005E47A7BB0227A7BB00B7C222D0092D5D1
:10029B000E104E10807D422D445002B2D54E508030
:1002AB006C447CB8222C4450120B1C7E40005E50D8
:1002BB007FBE18000078040B806816A2D57CB8139B
:1002CB007C4B7CB592E77C5B227E1CFFFF229F114F
:1002DB00227E24FF8020D5026C456D3322540F24DF
:1002EB0090D43440D430F30CBEB0414007BEB05B69
:1002FB00500224204CCC68021BC00B84D389944C35
:10030B00CC680B74201202FF80F5CA3B6D889F33BB
:10031B007CAE7E5BB00B5C7007C37D38DA3B899497
:10032B00B42569C2F37E5BB00B5CA5F824D0BEB0DC
:10033B000A501B7E500A20F60DAC5CA52D7CCB70B1
:10034B00034EF00180DDAC5DA52D7CDB80D524CF89
:10035B00BEB01AA5E850055E00DFD2F39006EAA303
:10036B00E4936011BCB078F77417934CAB30F6B3D1
:10037B004EF08080AEA3E4936010BCB078F7741697
:10038B00937C3B7423937C2B89147CB08013742057
:10039B001202FF20F205BEC00250F31B6D29B600FE
:1003AB00011202FF02030A1B6E691600020B6A00A0
:1003BB00BE08000078087E0400FF7E14000320F2C4
:1003CB001E4CCC681A7F10E47E1B804C8868070B90
:1003DB001C04BCBD78F2C2F6CA0B1204E9DA0B7E20
:1003EB000BB060C0CA0B1202FFDA0B0B0C4CDD68B2
:1003FB00EE1BD078EA80ADD2F07E101080037E1019
:10040B00085EB05F800AD2F67E100A80057E100A65
:10041B00C2F66D119F117E00201B6C7E6B7030F647
:10042B00021A3720F1051B6C7E6B6030F6041A261E
:10043B001A2430F0051B6D0B6A20A5EC3382F69263
:10044B00F6500A7CEA9F229F217F127CAE4C4478A7
:10045B000F7C457C567C676C772E00F878EF80120A
:10046B002F117CB3337C3B9CB140047C3B0B70A5C0
:10047B00D8EE7CB230E005DAB8C44C3BCA380B205E
:10048B007E00207E3000BE18000078C1BE100878B8
:10049B000730F404C2F480B5CA287CB2BCBD380264
:1004AB007CBD1204E9DA28BC2D500A1BD0E4CA2803
:1004BB001202E880F07CB213DAB84004C4CAB8C4A4
:1004CB00CA28BEF08040095CDD7805A5DA0260061B
:1004DB005EF07F1202E8DA28A5DADA02030ABEF030
:1004EB0001680F30F402240220F50620F70330F6E2
:1004FB00010420F229BCBC5025CAB87CBF13B0E65E
:10050B007420501174307C8A5E80F06808120529C3
:10051B005EA00F80031202FFDAB8BCBC78DB30F4AC
:10052B000F74301202FF745830F30274781202FF0A
:10053B0030F605742D0202FF742B20F5F874202081
:10054B00F7F3221B6C7E6BB010F1021B6C20F60BC9
:10055B0030E704F404D2F27CCB800520E7057CDB8A
:10056B0002032E5EF07F80F81B6E691600020B6A89
:10057B000030F0076D221B0A200B0D1B0A800203B3
:10058B0019E46C22BE3007500B7F1F2D312E34FF28
:10059B00F77E39B0227CBF20E7A8742E4EF0800284
:1005AB0002FF1206D3403D7CBD7003047CDB1207B7
:1005BB00EA7C3D4C3368101B307CBE20E4091205ED
:1005CB008C70044C3378F07CBD7CD3BEA0FD481CF2
:1005DB00BCAB5818E49CBA2CB31801E47CDB0206C4
:1005EB00741206D3406E7CBD041207EA7AFBA07C22
:1005FB00AE7CBDA2F492F0C2F4400260010424056B
:10060B001204E97E30FF0B3012058CCA381202E857
:10061B0020F0044CDD68031205A0DA38BC3D78E607
:10062B00740E1202E8742B7EFBA030F707742D6E4C
:10063B00A0FF0BA07AFBA01202FF7EA00A7EFBB0EC
:10064B00847AFBA01202E87EFBB01202E89EF8004F
:10065B000802030AD2F27ED0000203C91206D3406D
:10066B00F37CBA2CBD041207EA7AFBA07CBA7CAEF1
:10067B0030E701E40420F4044CDD6805D2F0C2F449
:10068B00042CBD1204E96C337EFBB0601B20E71217
:10069B00147AFBB012058CCA381202E8DA380B3028
:1006AB0080E6047AFBB01B3012058CCA381202E8C4
:1006BB004CDD68071205A01BD080E19EF8000930C5
:1006CB00F0031205A002030A7CEA7CAF10F7037E4D
:1006DB00D0067CFA1B6E693600020B6A20020732C9
:1006EB002D2B204C4248232E0053584F4449435541
:1006FB00502A4E464547000420800102001040B2AC
:10070B00040911119E18024E7367ECAD0304040427
:10071B000403040405050605054E614E002B494EE6
:10072B0046002D494E46007D522D557CBE92E67CEF
:10073B00EB7CBA601F0470287CB5C2E77E0400FF17
:10074B0060067E140724D3227E14072D40047E14EA
:10075B000728D322DA099F22CA2BCA2BC3CA092224
:10076B000A0A7E144D10AD109E083AF09E10267C9E
:10077B00B5C2E77EA0567C9BA46E54FFFF2E54C5DA
:10078B0011ACA92D15E4A539CAB8CA1B20E70A126A
:10079B00085DDA1B12017C800AF40412085DDA1B77
:1007AB001200DCDAA87CB5337CB4334E50806C4439
:1007BB0024822F111478FBDA497407BE400A4009D2
:1007CB009E400ACA0201140BA0CA486C442F117F29
:1007DB00012F112F112F101478EFCA48CA49227F0D
:1007EB000F20E73ABEB007400274070A0B2D109E8C
:1007FB001400097E19B02EB0FB501F4C116817E482
:10080B007A19B01B147E19B0047A19B0B40A0BE430
:10081B007A19B0A5D9ED0BA074017A19B0225EE05C
:10082B00BF223F8000004120000042C80000447AF4
:10083B000000461C400047C35000497424004B186D
:10084B0096804CBEBC205A0E1BCA6753C21C749DAB
:10085B00C5AE7C7B60065407681623231208827C86
:10086B00B75438680A7F1012087F1200DC7F012210
:10087B007CB7543803241C6CAA2E54082D7E4400DC
:10088B00FF0B2A006912000222C2D57CB430E708A4
:10089B00B2D56E24FFFF0B247CB630E712B2D56EB7
:1008AB0034FFFF0B348D326E24FFFF0B2480028D3F
:1008BB003230D5066E34FFFF0B34227D51AD037DF4
:1008CB00027D21AD052D12AD352D21227D02AD31DD
:1008DB00AD102D21226D0074104D00780B4D227838
:1008EB00278D317D126D22227D437D326D222F119A
:1008FB002D445002A50FBF1040049F100B9014788D
:10090B00ED7F016D227D34227D417D138D247D028F
:10091B002F004004BD0440049D040B141478F17D9A
:10092B00237D317D106D00220000000000000000CF
:10093B00002F000000000700070000147F147F1435
:10094B0000242A7F2A1200626408132300364955BB
:10095B00225000000503000000001C224100000093
:10096B0041221C000014083E08140008083E080829
:10097B00000000A060000008080808080000606084
:10098B000000002010080402003E5149453E0000C3
:10099B00427F4000004261514946002141454B31A5
:1009AB00001814127F10002745454539003C4A4971
:1009BB0049300001710905030036494949360006E3
:1009CB004949291E0000363600000000563600004B
:1009DB0000081422410000141414141400004122C6
:1009EB00140800020151090600324959513E007C9E
:1009FB001211127C007F49494936003E4141412288
:100A0B00007F4141221C007F49494941007F090970
:100A1B000901003E4149497A007F0808087F000020
:100A2B00417F4100002040413F01007F08142241DB
:100A3B00007F40404040007F020C027F007F040893
:100A4B00107F003E4141413E007F09090906003EEF
:100A5B004151215E007F0919294600464949493118
:100A6B000001017F0101003F4040403F001F20403B
:100A7B00201F003F4038403F0063140814630007F9
:100A8B000870080700615149454300007F41410050
:100A9B0000552A552A55000041417F0000040201F0
:100AAB0002040040404040400000010204000020CE
:100ABB0054545478007F484444380038444444200C
:100ACB0000384444487F00385454541800087E09B9
:100ADB0001020018A4A4A47C007F08040478000081
:100AEB00447D4000004080847D00007F102844003E
:100AFB000000417F4000007C04180478007C08044F
:100B0B00047800384444443800FC2424241800188A
:100B1B00242418FC007C0804040800485454542076
:100B2B0000043F444020003C4040207C001C2040FF
:100B3B00201C003C4030403C004428102844001C42
:100B4B00A0A0A07C004464544C441414141414143A
:100B5B00000000000000000000000000000000008A
:100B6B00000000F80000000000000033300000001F
:100B7B0000100C06100C0600000000000000000026
:100B8B0040C07840C0784000043F04043F04040098
:100B9B00007088FC08300000001820FF211E0000A8
:100BAB00F008F000E018000000211C031E211E00BD
:100BBB0000F00888700000001E2123241927211043
:100BCB0010160E00000000000000000000000000E6
:100BDB00000000E01804020000000007182040008D
:100BEB0000020418E000000000402018070000007D
:100BFB00404080F0804040000202010F01020200E1
:100C0B00000000F0000000000101011F01010100C4
:100C1B00000000000000000080B070000000000029
:100C2B0000000000000000000001010101010101B2
:100C3B000000000000000000003030000000000049
:100C4B00000000008060180400601806010000001E
:100C5B0000E010080810E000000F102020100F001B
:100C6B00001010F8000000000020203F20200000A2
:100C7B0000700808088870000030282422213000FA
:100C8B0000300888884830000018202020110E0002
:100C9B000000C02010F8000000070424243F2400AB
:100CAB0000F80888880808000019212020110E0080
:100CBB0000E0108888180000000F112020110E0092
:100CCB0000380808C83808000000003F000000008A
:100CDB000070880808887000001C222121221C004B
:100CEB0000E010080810E0000000312222110F0074
:100CFB00000000C0C0000000000000303000000009
:100D0B000000008000000000000080600000000078
:100D1B000000804020100800000102040810200091
:100D2B0040404040404040000404040404040400DC
:100D3B000008102040800000002010080402010071
:100D4B00007048080808F000000000303601000071
:100D5B00C030C828E810E0000718272423140B0024
:100D6B000000C038E0000000203C2302022738209E
:100D7B0008F8888888700000203F202020110E0082
:100D8B00C030080808083800071820202010080079
:100D9B0008F808080810E000203F202020100F0062
:100DAB0008F88888E8081000203F2020232018002E
:100DBB0008F88888E8081000203F20000300000096
:100DCB00C03008080838000007182020221E020037
:100DDB0008F808000008F808203F210101213F20F6
:100DEB00000808F8080800000020203F2020000021
:100DFB0000000808F8080800C08080807F00000011
:100E0B0008F888C028180800203F20012638200049
:100E1B0008F8080000000000203F202020203000B0
:100E2B0008F8F800F8F80800203F003F003F2000CA
:100E3B0008F830C00008F808203F200007183F00D2
:100E4B00E01008080810E0000F10202020100F0001
:100E5B0008F808080808F000203F210101010000F4
:100E6B00E01008080810E0000F18242438504F0039
:100E7B0008F8888888887000203F2000030C3020F9
:100E8B0000708808080838000038202121221C0037
:100E9B00180808F8080818000000203F2000000080
:100EAB0008F808000008F808001F202020201F0069
:100EBB000878880000C83808000007380E010000C9
:100ECB00F80800F80008F800033C0700073C030093
:100EDB00081868808068180820302C03032C3020F9
:100EEB000838C800C83808000000203F2000000068
:100EFB0010080808C83808002038262120201800C0
:100F0B00000000FE020202000000007F4040400093
:100F1B00000C30C000000000000000010638C000CB
:100F2B0000020202FE000000004040407F00000073
:100F3B000000040202020400000000000000000098
:100F4B000000000000000000808080808080808096
:100F5B00000202040000000000000000000000007E
:100F6B0000008080808000000019242222223F2074
:100F7B0008F8008080000000003F112020110E00B7
:100F8B000000008080800000000E11202020110046
:100F9B00000000808088F800000E112020103F20F8
:100FAB000000808080800000001F2222222213007C
:100FBB00008080F0888888180020203F20200000C7
:100FCB000000808080808000006B9494949360007C
:100FDB0008F8008080800000203F210000203F2087
:100FEB0000809898000000000020203F2020000087
:100FFB00000000809898000000C08080807F000077
:10100B0008F8000080808000203F24022D30200053
:10101B00000808F8000000000020203F20200000FE
:10102B008080808080808000203F20003F20003F18
:10103B008080008080800000203F210000203F2026
:10104B000000808080800000001F202020201F00D7
:10105B00808000808000000080FFA12020110E0006
:10106B000000008080808000000E112020A0FF80F7
:10107B00808080008080800020203F2120000100A4
:10108B0000008080808080000033242424241900F9
:10109B00008080E0808000000000001F2020000006
:1010AB008080000000808000001F202020103F2047
:1010BB00808080000080808000010E3008060100D7
:1010CB0080800080008080800F300C030C300F007C
:1010DB0000808000808080000020312E0E312000A7
:1010EB00808080000080808080818E7018060100D7
:1010FB0000808080808080000021302C22213000F5
:10110B0000000000807C020200000000003F404015
:10111B0000000000FF00000000000000FF000000C6
:10112B000002027C800000000040403F00000000F5
:10113B000006010102020404000000000000000090
:10114B000000F010101010FF10101010F000000035
:10115B0000000F04040404FF040404040F00000047
:10116B004040405F555555755555555F40404000C3
:10117B000040200F094989790909090F2040000017
:10118B0000FE02424ACA4A4ACA4A4A4202FE0000CA
:10119B0000FF40504C4340404F50505C40FF00001C
:1011AB000000F888888888FF88888888F800000005
:1011BB0000001F080808087F888888889F80F00037
:1011CB0080828282828282E2A2928A8682808000E0
:1011DB00000000000040807F0000000000000000C5
:1011EB00101010FF109008888888FF8888880800E6
:1011FB000444827F01808040432C1028468180006C
:10120B000010101010D030FF30D0121C1010000046
:10121B0010080402010000FF000001020408100086
:10122B007F707C7BA5BF010280030212F37E34FE2C
:10123B00CC7E24007E7E1BB054FE7A1BB07E1BB08E
:10124B0054FB7A1BB07ED4FEC87EC4007E7E6BB08E
:10125B0054FC7A6BB07E6B305E308F7E7B204C32D1
:10126B007A6B3029A700067CBA30E0177E1BB0449E
:10127B00017A1BB07E14FEB17E04007E7E0BB0445F
:10128B000180157E1BB054FE7A1BB07E14FEB17E1E
:10129B0004007E7E0BB054FE7A0BB07CBA30E11AA0
:1012AB007E1BB044047A1BB07E14FEB17E04007E1C
:1012BB007E0BB044027A0BB080187E1BB054FB7AC5
:1012CB001BB07E34FEB17E24007E7E1BB054FD7AB3
:1012DB001BB0691700037E34FED57E24007E7A1B7B
:1012EB00207E34FED60217C6A5BF0202800302136E
:1012FB00B77E34FECC7E24007E7E1BB054EF7A1B6F
:10130B00B07E1BB054BF7A1BB07ED4FEC97EC40026
:10131B007E7E6BB054FC7A6BB07E6B305E308F7E12
:10132B007B204C327A6B3029A700067CBA30E2174F
:10133B007E1BB044107A1BB07E14FEB17E04007E7F
:10134B007E0BB0440480157E1BB054EF7A1BB07E2D
:10135B0014FEB17E04007E7E0BB054FB7A0BB07C86
:10136B00BA30E31A7E1BB044407A1BB07E14FEB138
:10137B007E04007E7E0BB044087A0BB080187E1B77
:10138B00B054BF7A1BB07E34FEB17E24007E7E1B30
:10139B00B054F77A1BB0691700037E34FED77E2456
:1013AB00007E7A1B207E34FED80217C6A5BF03022F
:1013BB00800302147B7E34FECD7E24007E7E1BB028
:1013CB0054FE7A1BB07E1BB054FB7A1BB07ED4FE4E
:1013DB00CA7EC4007E7E6BB054FC7A6BB07E6B30E1
:1013EB005E308F7E7B204C327A6B3029A700067CD7
:1013FB00BA30E4177E1BB044017A1BB07E14FEB1E9
:10140B007E04007E7E0BB0441080157E1BB054FE14
:10141B007A1BB07E14FEB17E04007E7E0BB054EFBF
:10142B007A0BB07CBA30E51A7E1BB044047A1BB041
:10143B007E14FEB17E04007E7E0BB044207A0BB08E
:10144B0080187E1BB054FB7A1BB07E34FEB17E2419
:10145B00007E7E1BB054DF7A1BB0691700037E340D
:10146B00FED97E24007E7A1B207E34FEDA0217C65C
:10147B00A5BF0402800302153F7E34FECD7E2400FF
:10148B007E7E1BB054EF7A1BB07E1BB054BF7A1B11
:10149B00B07ED4FECB7EC4007E7E6BB054FC7A6BE8
:1014AB00B07E6B305E308F7E7B204C327A6B302976
:1014BB00A700067CBA30E6177E1BB044107A1BB02F
:1014CB007E14FEB17E04007E7E0BB0444080157E00
:1014DB001BB054EF7A1BB07E14FEB17E04007E7EEF
:1014EB000BB054BF7A0BB07CBA30E71A7E1BB044FA
:1014FB00407A1BB07E14FEB17E04007E7E0BB0449E
:10150B00807A0BB080187E1BB054BF7A1BB07E3430
:10151B00FEB17E24007E7E1BB0547F7A1BB0691710
:10152B0000037E34FEDB7E24007E7A1B207E34FE9D
:10153B00DC0217C6A5BF096E293700057E34FEDE17
:10154B007E24007E7A1B30691700017E34FED27A2E
:10155B001B207E34FED37A1B3029B70008B4010F51
:10156B007E34FEDD7E24007E7E1BB04480800D7EAB
:10157B0034FEDD7E24007E7E1BB0547F7A1BB029A7
:10158B00B70007B401107E34FEC07E24007E7E1BA4
:10159B00B0440102183D7E34FEC07E24007E7E1BCB
:1015AB00B054FE02183DA5BF050280030216377E1C
:1015BB0034FEEC7E24007E7E1BB054FE7A1BB07E84
:1015CB00D4FEE87EC4007E7E6BB054FC7A6BB07E9A
:1015DB006B305E308F7E7B204C327A6B3029B700BC
:1015EB000630E01A7E1BB044017A1BB07E14FEB5A8
:1015FB007E04007E7E0BB044017A0BB080187E1BFC
:10160B00B054FE7A1BB07E34FEB57E24007E7E1B6A
:10161B00B054FE7A1BB0691700037E34FEF57E24AE
:10162B00007E7A1B207E34FEF60217C6A5BF06028B
:10163B0080030216BD7E34FEEC7E24007E7E1BB042
:10164B0054EF7A1BB07ED4FEE97EC4007E7E6BB075
:10165B0054FC7A6BB07E6B305E308F7E7B204C32CD
:10166B007A6B3029B7000630E21A7E1BB044107A31
:10167B001BB07E14FEB57E04007E7E0BB044047A54
:10168B000BB080187E1BB054EF7A1BB07E34FEB5C6
:10169B007E24007E7E1BB054FB7A1BB069170003BF
:1016AB007E34FEF77E24007E7A1B207E34FEF80209
:1016BB0017C6A5BF070280030217437E34FEED7EDB
:1016CB0024007E7E1BB054FE7A1BB07ED4FEEA7ED5
:1016DB00C4007E7E6BB054FC7A6BB07E6B305E3098
:1016EB008F7E7B204C327A6B3029B7000630E41AA0
:1016FB007E1BB044017A1BB07E14FEB57E04007EC7
:10170B007E0BB044107A0BB080187E1BB054FE7A5F
:10171B001BB07E34FEB57E24007E7E1BB054EF7A68
:10172B001BB0691700037E34FEF97E24007E7A1B02
:10173B00207E34FEFA0217C6A5BF080280030217EB
:10174B00CF7E34FEED7E24007E7E1BB054EF7A1BE1
:10175B00B07ED4FEEB7EC4007E7E6BB054FC7A6B05
:10176B00B07E6B305E308F7E7B204C327A6B3029B3
:10177B00B7000630E61A7E1BB044107A1BB07E14FD
:10178B00FEB57E04007E7E0BB044407A0BB0801811
:10179B007E1BB054EF7A1BB07E34FEB57E24007EE8
:1017AB007E1BB054BF7A1BB0691700037E34FEFB5F
:1017BB007E24007E7A1B207E34FEFC7E24007E7A03
:1017CB001B30E422A5BF0A6F293700057E34FEFECD
:1017DB007E24007E7A1B30691700017E34FEF27A7C
:1017EB001B207E34FEF37A1B3029B70008B4010F9F
:1017FB007E34FEFD7E24007E7E1BB04480800D7EF9
:10180B0034FEFD7E24007E7E1BB0547F7A1BB029F4
:10181B00B70007B4010F7E34FEE07E24007E7E1BF2
:10182B00B04401800D7E34FEE07E24007E7E1BB032
:10183B0054FE7A1BB0E42274FF22E47E34FED07E89
:10184B0024007E7A1BB07E34FED17A1BB074027EEC
:10185B0034FEF07A1BB074DC7E34FEF17A1BB07E62
:10186B0004008090006A1BEA007E14010090006C5B
:10187B001BEA107E24020090006E1BEA207E3404CB
:10188B00009000701BEA309000821BEA00900084ED
:10189B001BEA109000861BEA209000881BEA30742C
:1018AB0060900042F090006A0BEA309000451BEA12
:1018BB00307403900048F074017E1400427E0400E3
:1018CB000112122B7460900042F090006C0BEA3006
:1018DB009000451BEA307404900048F074027E14AB
:1018EB0000427E04000112122B7460900042F090B3
:1018FB00006E0BEA309000451BEA307410900048E4
:10190B00F074037E1400427E04000112122B7460EB
:10191B00900042F09000700BEA309000451BEA30CB
:10192B007440900048F074047E1400427E04000161
:10193B0012122B7E3401A69000431BEA30E4900078
:10194B0047F0740190004AF0900049F074097E143E
:10195B0000427E04000112122B7460900042F09042
:10196B0000820BEA309000451BEA3074019000486E
:10197B00F074057E1400427E04000112122B7E349B
:10198B007FE69000431BEA30E4900047F07401902F
:10199B00004AF0900049F0740A7E1400427E040065
:1019AB000112122B7E34FEB27E24007E7E1BB054BD
:1019BB00FC44017A1BB0227F7114BEB008400302B5
:1019CB001B367EA003A49019D5730219ED021A15CC
:1019DB00021A3D021A65021A8D021AB6021ADF02AA
:1019EB001B086D117E0443D37F171200DC12023AE1
:1019FB0090006A1BEA307E14FED57E04007E7A0BC3
:101A0B00607C377E34FED6021B2F6D117E0443D3D0
:101A1B007F171200DC12023A90006C1BEA307E1426
:101A2B00FED77E04007E7A0B607C377E34FED802B4
:101A3B001B2F6D117E0443D37F171200DC12023A69
:101A4B0090006E1BEA307E14FED97E04007E7A0B6A
:101A5B00607C377E34FEDA021B2F6D117E0443D37C
:101A6B007F171200DC12023A9000701BEA307E14D2
:101A7B00FEDB7E04007E7A0B607C377E34FEDC025C
:101A8B001B2F7E14CC007E0446FF7F171200DC1246
:101A9B00023A9000821BEA307E14FEF57E04007E33
:101AAB007A0B607C377E34FEF680797E14CC007E18
:101ABB000446FF7F171200DC12023A9000841BEAE7
:101ACB00307E14FEF77E04007E7A0B607C377E340A
:101ADB00FEF880507E14CC007E0446FF7F17120068
:101AEB00DC12023A9000861BEA307E14FEF97E046B
:101AFB00007E7A0B607C377E34FEFA80277E14CC16
:101B0B00007E0446FF7F171200DC12023A90008819
:101B1B001BEA307E14FEFB7E04007E7A0B607C3762
:101B2B007E34FEFC7E24007E7A1B3022CA3B900062
:101B3B008D7AEB5090008C7AEB607F3090008B7A33
:101B4B00EB7090008AF0E4900090F0900091F09090
:101B5B00008DE0B408067402900090F0E490008EC3
:101B6B00F0021C26740A90008E7EEBA00A2A9000CD
:101B7B008C7EEBA00A3A9D321B341222257F017F0B
:101B8B00131208E27E14000A1208E07CB390008F57
:101B9B00F0900091E0704590008CE00A0B1B0490D4
:101BAB00008EE00A1BBD10583390008FE070279019
:101BBB00008D7EEB500A351E34900090E00A0B2D01
:101BCB0003AD1090008AE00A5B2D5190008B7EEBE9
:101BDB00707E6020803C7401900091F090008D7EAF
:101BEB00EB500A151E14900090E00A0B2D0190008B
:101BFB008EE00A1BAD1090008AE00A5B2D5190001D
:101C0B008B7EEB7090008F7EEB600A162E140030EB
:101C1B007C63121C3A90008EE004F090008C7EEBFB
:101C2B00A090008EE0BCBA5003021B6FDA3B22CAB5
:101C3B003B7CF57C367CE77CDB0A257D321E347CD5
:101C4B00B7900046F06D009000471BEA00BEF0080D
:101C5B00780C7E0400069000491BEA0080207D0270
:101C6B001E041E041E045E24000768067E24000169
:101C7B0080026D222D20AD329000491BEA300A33D1
:101C8B009E3400207CC77CBD7C7E1221DE6D3390A0
:101C9B0000478064900046E00A3B9000470BEA2027
:101CAB008D234D22780EBEF00868097CBD7C7E0B1F
:101CBB00E01221DEBEF00878137E7006AC7C90003B
:101CCB00470BEA202D322E3409338016BEF01078E4
:101CDB003A7E7010AC7C9000470BEA202D322E34EC
:101CEB000B5B7A71827A6183E4937E700112218996
:101CFB009000470BEA300B341BEA309000490BEA9B
:101D0B00209000470BEA30BD324089DA3B22C2C239
:101D1B007E3400C8122256D2C274AE6C771221895F
:101D2B00E46C7712218974106C7712218974406CE2
:101D3B007712218974816C7712218974CF6C771299
:101D4B00218974A16C7712218974C86C771221894F
:101D5B0074A66C7712218974A86C77122189743F51
:101D6B006C7712218974D36C77122189E46C77120A
:101D7B00218974D56C7712218974806C7712218933
:101D8B0074D96C7712218974F16C7712218974DA0A
:101D9B006C7712218974126C7712218974DB6C7742
:101DAB0012218974406C7712218974206C7712216F
:101DBB008974026C77122189748D6C771221897466
:101DCB00146C7712218974A46C7712218974A66C18
:101DDB007712218912212774AF6C77022189CA3BB4
:101DEB007F309000957AEB509000947AEB609000E6
:101DFB00937AEB70900092F06D339000961BEA3063
:101E0B00900095E00A5B7D455E44000768067E44C2
:101E1B00000180026D441E541E541E542D5490001C
:101E2B0095F0E4900098F08054900092E09000932D
:101E3B007EEBA00A2A9000987EEBA00A3A2D321274
:101E4B0021DEE4900099F080209000960BEA307D23
:101E5B00230B241BEA202D377D267E1BB07E7001C1
:101E6B00122189900099E004F09000947EEBA090F1
:101E7B000099E0BCBA40D2900098E004F090009535
:101E8B007EEBA0900098E0BCBA409EDA3B22CA2BB6
:101E9B00CA1BCA0BC0D1C0D0C083C0829000050B37
:101EAB00EA307D231B241BEA204D33787290000708
:101EBB00E0900000F0E4900007F07E3401F4900015
:101ECB00051BEA30E58D0A3B9000011BEA30E58BE0
:101EDB000A3B9000031BEA30758D00758B00900058
:101EEB0000E01A3B1A267E14FFFF1208D77F0190E1
:101EFB0000010BEA207C456C559000030BEA302D5A
:101F0B00326D222F107CB41201FD7E142FB87E048B
:101F1B003F801200DC900008793E00021BEA20D0C3
:101F2B0082D083D0D0D0D1DA0BDA1BDA2B32D2AFFE
:101F3B0074C47E34FE037E24007E7A1BB07E34FE96
:101F4B00037E24007E7E1BB020E0F2E47E34FE0193
:101F5B007E24007E7A1BB074017E34FE007A1BB0A7
:101F6B00A9D7BA75EA0075E90053B22053B12075B1
:101F7B0096FF75950075B4FF75B300121D191222EB
:101F8B00971222AA1218451221B490003E793E00F6
:101F9B00021BEA20900066793E00021BEA207E14A9
:101FAB00000C7E0400017E34000E7E2400FF120222
:101FBB007774027E70027E14000C7E0400017E603A
:101FCB00081220667E3403E812225680BACA3B7C84
:101FDB00F57CE67CD77CCB0A357D131E141E141EB4
:101FEB00147D235E24000768067E24000180026DA9
:101FFB00222D21AD3290009C1BEA306D3390009A5C
:10200B0080430A3F90009A0BEA208D234D227809DA
:10201B007CBC7C7D0BD01221DEBEF010783A7E703A
:10202B0020AC7E90009A0BEA202D322E34114B7A85
:10203B0071827A6183E4937E700112218990009AF8
:10204B000BEA300B341BEA3090009C0BEA2090001B
:10205B009A0BEA30BD3240AADA3B22CA3B900044CD
:10206B007AEB607F309000437AEB70900042F0E4A3
:10207B00900045F0804D900042E09000437EEB7065
:10208B009000457EEB607CA60BA07AEBA00A267F26
:10209B00032D127E0B609000447EEB50121C3A9085
:1020AB0000447EEBA0BEA0087809900042E0240615
:1020BB00F080100A3A7E240002120894900042E04D
:1020CB002CB7F0900045E00A3B2D377D267E1BB0E8
:1020DB0070A4DA3B227584017E44041FE47A49B074
:1020EB001B4478F97EF800077E0400FF7E1422BDA6
:1020FB000B0A405D446822295000020A2569300012
:10210B00032E0800050B44800A7E0BB07A1BB00B24
:10211B001C0B0C1B4478F280D7021F39CA796CFF59
:10212B000A5F2E5400B06C77122189E46C77122170
:10213B008974106C771221896CEEE47E7001122188
:10214B00890BE0BEE08078F20BF0BEF00840D1DAEC
:10215B007922CAF87CFB4CFB780E74C86C77122181
:10216B008974A16C77122189BEF001780E74C06C52
:10217B007712218974A06C77122189DAF8227CAB53
:10218B004C776804D2C38002C2C3C2C47E7008C23B
:10219B00C07CBA30E704D2C18002C2C1D2C03EA01B
:1021AB001B7078EBD2C4D2C3229F776DDD900008F1
:1021BB00691E00020BEA007F171200247F710BD4FB
:1021CB00BED4271048E77E1440007E04461C7F17C0
:1021DB0002017CCAF87CFB0A572E5400B06C7712B4
:1021EB0021897CBF54F0C4540F44106C77122189A1
:1021FB007CBF540F6C77122189DAF822CAF87CFB6A
:10220B004CFB780774A66C77122189BEF001780716
:10221B0074A76C77122189DAF8227C977C8B7E1855
:10222B00000180070A186D001208C67CA91B904C90
:10223B00AA78F122CAB8C0D1C083C082900007E04F
:10224B0004F0D082D083D0D1DAB8327D13800E7EE9
:10225B000407087D301B044D3378F81B144D11789F
:10226B00EE22748D6C7712218974146C771221898C
:10227B0074AF6C77022189748D6C7712218974107D
:10228B006C7712218974AE6C77022189438E80534F
:10229B0089F0758A80758C44C28DD28CD2A9225359
:1022AB00890F438950758B00758D00C28FD28ED2EA
:1022BB00AB22000101000000000201000501F40047
:0122CB000012
:00000001FF
