:10000000021DEECAF8122026DAF822021AD07592E2
:10001000007591FF75DE0075BC8022021F8A00000A
:10002000000000000000002F000000000700070093
:1000300000147F147F1400242A7F2A1200626408AF
:10004000132300364955225000000503000000002C
:100050001C224100000041221C000014083E08142C
:100060000008083E0808000000A06000000808081A
:100070000808000060600000002010080402003E34
:100080005149453E0000427F4000004261514946CF
:10009000002141454B31001814127F1000274545BF
:1000A0004539003C4A4949300001710905030036D1
:1000B0004949493600064949291E000036360000E4
:1000C00000005636000000081422410000141414E9
:1000D00014140000412214080002015109060032E4
:1000E0004959513E007C1211127C007F4949493622
:1000F000003E41414122007F4141221C007F49498D
:100100004941007F09090901003E4149497A007FC0
:100110000808087F0000417F4100002040413F0166
:10012000007F08142241007F40404040007F020CC5
:10013000027F007F0408107F003E4141413E007F66
:1001400009090906003E4151215E007F091929462F
:100150000046494949310001017F0101003F40400B
:10016000403F001F2040201F003F4038403F0063B9
:1001700014081463000708700807006151494543DB
:1001800000007F41410000552A552A550000414199
:100190007F00000402010204004040404040000093
:1001A00001020400002054545478007F484444382D
:1001B00000384444442000384444487F00385454B4
:1001C000541800087E0901020018A4A4A47C007F32
:1001D000080404780000447D4000004080847D00D5
:1001E000007F102844000000417F4000007C04187C
:1001F0000478007C0804047800384444443800FC47
:10020000242424180018242418FC007C0804040862
:1002100000485454542000043F444020003C4040D7
:10022000207C001C2040201C003C4030403C00440E
:1002300028102844001CA0A0A07C004464544C4416
:100240001414141414140000000000000000000036
:10025000000000000000000000F8000000000000A6
:1002600000333000000000100C06100C06000000E7
:1002700000000000000040C07840C0784000043F0B
:1002800004043F040400007088FC083000000018DB
:1002900020FF211E0000F008F000E01800000021FF
:1002A0001C031E211E0000F00888700000001E21A3
:1002B00023241927211010160E0000000000000052
:1002C000000000000000000000E018040200000030
:1002D00000071820400000020418E0000000004061
:1002E000201807000000404080F0804040000202DB
:1002F000010F01020200000000F0000000000101F7
:10030000011F01010100000000000000000080B09A
:10031000700000000000000000000000000000016C
:100320000101010101010000000000000000003097
:100330003000000000000000000080601804006031
:1003400018060100000000E010080810E000000F8F
:10035000102020100F00001010F8000000000020F6
:10036000203F20200000007008080888700000303E
:1003700028242221300000300888884830000018E6
:10038000202020110E000000C02010F800000007FF
:100390000424243F240000F8088888080800001975
:1003A000212020110E0000E0108888180000000FA6
:1003B000112020110E0000380808C838080000007D
:1003C000003F000000000070880808887000001CD2
:1003D000222121221C0000E010080810E00000008B
:1003E000312222110F00000000C0C00000000000F8
:1003F000003030000000000000800000000000001D
:100400008060000000000000804020100800000113
:1004100002040810200040404040404040000404D6
:1004200004040404040000081020408000000020A0
:10043000100804020100007048080808F0000000DD
:10044000003036010000C030C828E810E00007186E
:10045000272423140B000000C038E0000000203CDB
:1004600023020227382008F8888888700000203F7F
:10047000202020110E00C030080808083800071896
:1004800020202010080008F808080810E000203F8D
:10049000202020100F0008F88888E8081000203F6E
:1004A00020202320180008F88888E8081000203F42
:1004B000200003000000C0300808083800000718BA
:1004C0002020221E020008F808000008F808203F3B
:1004D000210101213F20000808F808080000002041
:1004E000203F2020000000000808F8080800C08015
:1004F00080807F00000008F888C028180800203F8E
:1005000020012638200008F8080000000000203FE5
:1005100020202020300008F8F800F8F80800203FDC
:10052000003F003F200008F830C00008F808203FD6
:10053000200007183F00E01008080810E0000F1026
:10054000202020100F0008F808080808F000203FBD
:10055000210101010000E01008080810E0000F1858
:10056000242438504F0008F8888888887000203F7D
:100570002000030C3020007088080808380000387C
:10058000202121221C00180808F808081800000083
:10059000203F2000000008F808000008F808001FAD
:1005A000202020201F000878880000C8380800009C
:1005B00007380E010000F80800F80008F800033CB6
:1005C0000700073C0300081868808068180820307E
:1005D0002C03032C30200838C800C838080000005D
:1005E000203F2000000010080808C8380800203804
:1005F000262120201800000000FE02020200000058
:10060000007F40404000000C30C0000000000000AF
:1006100000010638C00000020202FE000000004097
:1006200040407F00000000000402020204000000BD
:1006300000000000000000000000000000008080BA
:1006400080808080808000020204000000000000A2
:100650000000000000000000808080800000001981
:10066000242222223F2008F8008080000000003F62
:10067000112020110E000000008080800000000E7C
:10068000112020201100000000808088F800000E5A
:10069000112020103F200000808080800000001F7B
:1006A000222222221300008080F0888888180020EF
:1006B000203F202000000000808080808000006BB0
:1006C00094949493600008F8008080800000203F9C
:1006D000210000203F2000809898000000000020AA
:1006E000203F20200000000000809898000000C0FB
:1006F0008080807F000008F8000080808000203F1C
:1007000024022D302000000808F80000000000201E
:10071000203F202000008080808080808000203F5B
:1007200020003F20003F8080008080800000203F2C
:10073000210000203F200000808080800000001FFA
:10074000202020201F00808000808000000080FF8B
:10075000A12020110E000000008080808000000E8B
:10076000112020A0FF8080808000808080002020D9
:100770003F21200001000000808080808000003345
:10078000242424241900008080E0808000000000E0
:10079000001F202000008080000000808000001FDB
:1007A000202020103F208080800000808080000179
:1007B0000E300806010080800080008080800F30AD
:1007C0000C030C300F00008080008080800000202F
:1007D000312E0E312000808080000080808080815A
:1007E0008E701806010000808080808080000021CB
:1007F000302C2221300000000000807C020200002A
:100800000000003F404000000000FF00000000002A
:100810000000FF0000000002027C80000000004099
:10082000403F000000000006010102020404000035
:100830000000000000002030AC632018809090FF82
:1008400090494A4840002267221212124040201369
:100850000C142241F800003E22E2223E001088578C
:1008600024548C000000407E403F22220001FE42C2
:100870004242FE010100101010FF10105020D81746
:100880001010F0101000007F2121217F80402116E0
:1008900008162140800000FE0222DA0610D2565AC5
:1008A000535A56D2100000FF0810080710171515EC
:1008B000FD1515171000000000F8888C8A898888BB
:1008C00088F800000000000000FF44444444444411
:1008D00044FF000000004044C4444444401010FF62
:1008E000101010F00000103C131014B840300E012E
:1008F0004080403F00001010D0FF905020504C43EB
:100900004C5020404000040300FF00414458414E39
:100910006058474040001060028C00FE02F202FE68
:1009200000F800FF000004047E018047300F10270C
:100930000047807F0000000022322AA6A262211117
:10094000098101000000004222130B42827E020254
:100950000A12234600002030AC63300088C8A899F2
:100960008E88A8C8880022672212128040300F00AB
:10097000003F4040710080828282FE8282828282B9
:10098000FE8282828000008040300F000000000064
:10099000FF0000000000003E22E2223E00108857C7
:1009A00024548C000000407E403F22220001FE4281
:1009B0004242FE010100101010FF10105020D81705
:1009C0001010F0101000007F2121217F804021169F
:1009D00008162140800000FE0222DA0610D2565A84
:1009E000535A56D2100000FF0810080710171515AB
:1009F000FD151517100000222C2020FF20282600AE
:100A0000F80000FF0000028242221A0702020202DE
:100A10000F40807F000000FC2024A8FFA82400FCD9
:100A20004444C4424000003F2221202F20A3601FE5
:100A30000000FF000000106002CC8040201E020277
:100A4000023E4040400004047E018080834D5121DD
:100A500051498780800004040484E43C2724242432
:100A600024E40404040004020100FF0909090949FF
:100A7000897F000000005D22680D5D0078122D2244
:100A80000B4068099F11222D000B0078F9020C839E
:100A9000120C465C800B806808248150072CB050F3
:100AA0000A020C8B2CB04003020C887C8B5D117801
:100AB000267CB17CA5BE1080680A5D33780DA5BD8B
:100AC00080057F10020C756D0080307F017C5B7C9F
:100AD000B17CA5AD1280245D337806A5BD80F08081
:100AE000E1CA887D41AD437CB17CA5AD122D145087
:100AF000020B047C5BAD232F01DA88A42D05BE0018
:100B00008040060B80780480982F007C437C507CCA
:100B1000617C72020C5FBE24FFFF6806BE04FFFF0B
:100B20007803020C83120C465CB00468F57CB8A50F
:100B30004868EF7CB870039F1122A5B80003020C2F
:100B40008B2E008150079C803807020C889C8050B7
:100B5000ED0A51C2E74D517803020C757E540080B6
:100B60007E901A6C0080061B9068142F11BF1040F5
:100B7000049F104CAB0330E7EECAA86CAA80E8DAF9
:100B800039DA587C4ABE5080500A1B8068BC2F114D
:100B900050020B70020C5F74F86CAA6E40806E00FD
:100BA00080BEB0FF68277C837C975C3B5C7BBF107A
:100BB000682AF4400D7C382D15F45C3B500F0B0473
:100BC000800B7C792D35F45C7B50020B24BF1068C0
:100BD0000B7CB020E7067CB420E701B3227EA02086
:100BE000800C7EA01080057EA0086C556D3333927A
:100BF000D5500A6E34FFFF6E24FFFF0B1CA5EC33AB
:100C000040062F11D5F0F6227CBA247EA2D5137CA3
:100C1000767C65A5CC92E77C5B227F507EC4000188
:100C20007ED400287E940C2B020CC44001227CEA66
:100C3000CA89CA5BCA6B120003DA6BDA5BDA897E97
:100C4000940C2B7CAE222D0092D50E104E10807D80
:100C5000422D445002B2D54E50806C447CB8222CB8
:100C60004450120B1C7E40005E507FBE180000787E
:100C7000040B806816A2D57CB8137C4B7CB592E738
:100C80007C5B227E1CFFFF229F11227E24FF80209E
:100C9000D5026C456D3322540F2490D43440D430A7
:100CA000F30CBEB0414007BEB05B500224204CCCD8
:100CB00068021BC00B84D389944CCC680B7420123F
:100CC0000CAE80F5CA3B6D889F337CAE7E5BB00B6B
:100CD0005C7007C37D38DA3B8994B42569C2F37E22
:100CE0005BB00B5CA5F824D0BEB00A501B7E500A46
:100CF00020F60DAC5CA52D7CCB70034EF00180DDA1
:100D0000AC5DA52D7CDB80D524CFBEB01AA5E85004
:100D1000055E00DFD2F3901099A3E4936011BCB09C
:100D200078F77417934CAB30F6B34EF08080AEA3D7
:100D3000E4936010BCB078F77416937C3B742393F3
:100D40007C2B89147CB080137420120CAE20F20529
:100D5000BEC00250F31B6D29B60001120CAE020C8E
:100D6000B91B6E691600020B6A00BE080000780805
:100D70007E0400FF7E14202F20F21E4CCC681A7FC8
:100D800010E47E1B804C8868070B1C04BCBD78F205
:100D9000C2F6CA0B120E98DA0B7E0BB060C0CA0BFB
:100DA000120CAEDA0B0B0C4CDD68EE1BD078EA802F
:100DB000ADD2F07E101080037E10085EB05F800A16
:100DC000D2F67E100A80057E100AC2F66D119F11C0
:100DD0007E00201B6C7E6B7030F6021A3720F10506
:100DE0001B6C7E6B6030F6041A261A2430F0051B4B
:100DF0006D0B6A20A5EC3382F692F6500A7CEA9FCE
:100E0000229F217F127CAE4C44780F7C457C567C1F
:100E1000676C772E00F878EF80122F117CB3337C4B
:100E20003B9CB140047C3B0B70A5D8EE7CB230E01B
:100E300005DAB8C44C3BCA380B207E00207E300057
:100E4000BE18000078C1BE1008780730F404C2F460
:100E500080B5CA287CB2BCBD38027CBD120E98DABF
:100E600028BC2D500A1BD0E4CA28120C9780F07CB5
:100E7000B213DAB84004C4CAB8C4CA28BEF080406D
:100E8000095CDD7805A5DA0260065EF07F120C973A
:100E9000DA28A5DADA020CB9BEF001680F30F402E4
:100EA000240220F50620F70330F6010420F229BCC5
:100EB000BC5025CAB87CBF13B0E674205011743002
:100EC0007C8A5E80F06808120ED85EA00F80031244
:100ED0000CAEDAB8BCBC78DB30F40F7430120CAE58
:100EE000745830F3027478120CAE30F605742D028B
:100EF0000CAE742B20F5F8742020F7F3221B6C7EC7
:100F00006BB010F1021B6C20F60B30E704F404D236
:100F1000F27CCB800520E7057CDB020CDD5EF07FF8
:100F200080F81B6E691600020B6A0030F0076D2214
:100F30001B0A200B0D1B0A80020CC8E46C22BE3079
:100F400007500B7F1F2D312E34FFF77E39B0227CE6
:100F5000BF20E7A8742E4EF080020CAE1210824023
:100F60003D7CBD7003047CDB1211997C3D4C3368E1
:100F7000101B307CBE20E409120F3B70044C337808
:100F8000F07CBD7CD3BEA0FD481CBCAB5818E49CD3
:100F9000BA2CB31801E47CDB021023121082406EDD
:100FA0007CBD041211997AFBA07CAE7CBDA2F492A8
:100FB000F0C2F440026001042405120E987E30FF56
:100FC0000B30120F3BCA38120C9720F0044CDD682E
:100FD00003120F4FDA38BC3D78E6740E120C97748A
:100FE0002B7EFBA030F707742D6EA0FF0BA07AFBC1
:100FF000A0120CAE7EA00A7EFBB0847AFBA0120C7D
:10100000977EFBB0120C979EF80008020CB9D2F242
:101010007ED000020D7812108240F37CBA2CBD0401
:101020001211997AFBA07CBA7CAE30E701E404206F
:10103000F4044CDD6805D2F0C2F4042CBD120E9805
:101040006C337EFBB0601B20E712147AFBB0120FEA
:101050003BCA38120C97DA380B3080E6047AFBB0C2
:101060001B30120F3BCA38120C974CDD6807120F69
:101070004F1BD080E19EF8000930F003120F4F02A1
:101080000CB97CEA7CAF10F7037ED0067CFA1B6EAD
:10109000693600020B6A200210E12D2B204C4248D9
:1010A000232E0053584F44494355502A4E46454736
:1010B00000042080010200104061B3B8C0C04DC7D9
:1010C000B1FD22169B5C0D0D0D0D0D0D0D0D0E0FBE
:1010D000100F0F4E614E002B494E46002D494E46D3
:1010E000007D522D557CBE92E67CEB7CBA601F04DD
:1010F00070287CB5C2E77E0400FF60067E1410D322
:10110000D3227E1410DC40047E1410D7D322DA09D7
:101110009F22CA2BCA2BC3CA09220A0A7E144D1069
:10112000AD109E083AF09E10267CB5C2E77EA05610
:101130007C9BA46E54FFFF2E54C511ACA92D15E461
:10114000A539CAB8CA1B20E70A12120CDA1B120B07
:1011500016800AF40412120CDA1B120A76DAA87C42
:10116000B5337CB4334E50806C4424822F111478F4
:10117000FBDA497407BE400A40099E400ACA0201D0
:10118000140BA0CA486C442F117F012F112F112F6F
:10119000101478EFCA48CA49227F0F20E73ABEB040
:1011A00007400274070A0B2D109E1400097E19B027
:1011B0002EB0FB501F4C116817E47A19B01B147E37
:1011C00019B0047A19B0B40A0BE47A19B0A5D9EDB4
:1011D0000BA074017A19B0225EE0BF223F800000AC
:1011E0004120000042C80000447A0000461C400034
:1011F00047C35000497424004B1896804CBEBC2055
:101200005A0E1BCA6753C21C749DC5AE7C7B600618
:101210005407681623231212317CB75438680A7FAA
:101220001012122E120A767F01227CB75438032442
:101230001C6CAA2E5411DC7E4400FF0B2A0069129C
:10124000000222C2D57CB430E708B2D56E24FFFF7D
:101250000B247CB630E712B2D56E34FFFF0B348D11
:10126000326E24FFFF0B2480028D3230D5066E349F
:10127000FFFF0B34227D51AD037D027D21AD052D95
:1012800012AD352D21227D02AD31AD102D21226D03
:101290000074104D00780B4D2278278D317D126D32
:1012A00022227D437D326D222F112D445002A50F45
:1012B000BF1040049F100B901478ED7F016D227DCC
:1012C00034227D417D138D247D022F004004BD0416
:1012D00040049D040B141478F17D237D317D106D45
:1012E0000022121D95900030693E00020BEA20900A
:1012F0000024793E00021BEA207E1420757E040043
:10130000FF120C1A900042693E00020BEA20900086
:1013100047793E00021BEA20E46C777E600C7E5029
:1013200010121C0C74106C777E600D7E5010121C15
:101330000C74206C777E60067E5010121C0C74308A
:101340006C777E60077E5010121C0CA2A4E43368F8
:10135000030214587E340014121FA1A2A4E43368BF
:10136000FA7E340014121FA1121E357E144E007E28
:1013700004474F90004769FE00020BEAE07F171216
:101380000B9728147E14F0007E0447527F17120B2F
:1013900097500574010214547E1431007E0448DD18
:1013A0007F17120B9728147E1424007E0448F47FC4
:1013B00017120B97500574020214547E143E007EDF
:1013C0000447C67F17120B9728137E142C007E0447
:1013D00047C97F17120B975004740380777E1484DB
:1013E000007E0447647F17120B9728137E14340085
:1013F0007E0447697F17120B975004740480557E52
:1014000014ED007E0449147F17120B97280474050D
:1014100080427E144A007E0447AB7F17120B972848
:10142000137E1470007E0447AD7F17120B97500493
:10143000740680207E1474007E0447A47F17120B6C
:101440009728157E148E007E0447A87F17120B97ED
:101450005006740790003EF090003EE014BEB008C5
:1014600040030215EF7EA003A490146D730214854F
:101470000214BA0214E602151202153E02156A029F
:1014800015950215C074207E70027E60107E50108B
:10149000121C0C74307E70027E60117E5010121C83
:1014A0000C74407E70027E600C7E5010121C0C7416
:1014B000507E70027E600D0215E974107E70027E0F
:1014C0001420727E0400FF7E6010121D1B74207EAB
:1014D00070027E600A7E5010121C0C74307E700206
:1014E0007E600B0215E974107E70027E14206F7E00
:1014F0000400FF7E6010121D1B74207E70027E604F
:101500000A7E5010121C0C74307E70027E600B023A
:1015100015E974107E70027E14206C7E0400FF7E3C
:101520006010121D1B74207E70027E600A7E5010B7
:10153000121C0C74307E70027E600B0215E9741070
:101540007E70027E1420697E0400FF7E6010121DF2
:101550001B74207E70027E600A7E5010121C0C7478
:10156000307E70027E600B0215E974107E70027E80
:101570001420667E0400FF7E6010121D1B74207E06
:1015800070027E600A7E5010121C0C74307E700255
:101590007E600B805474107E70027E1420637E0483
:1015A00000FF7E6010121D1B74207E70027E600A98
:1015B0007E5010121C0C74307E70027E600B8029ED
:1015C00074107E70027E1420607E0400FF7E601026
:1015D000121D1B74207E70027E600A7E5010121C49
:1015E0000C74307E70027E600B7E5010021C0C2248
:1015F000CA796CEE7E34000A121FB8121F151BB197
:10160000681414681B1468222403782CA2A3E43302
:101610007CFB7401801CA2A4E4337CFB7402801266
:10162000A2A5E4337CFB74038008A2A6E4337CFB10
:101630007404900062F080037EF00190005E7EEB07
:1016400070BE7000282390005F0BEA200B241BEA79
:101650002090005F0BEA20BE24001E400CBE240038
:10166000325006740290005BF090005BE014682436
:101670001468531478030217452403680302175CA7
:101680004CFF68030217616D2290005C1BEA207416
:101690000102175D4CFF782A90005C0BEA200B24B6
:1016A0001BEA2090005C0BEA20BE240001500302DC
:1016B0001761740290005BF090005E7CB704F0024A
:1016C0001761E402175D4CFF685090005F0BEA2041
:1016D000BE24001E5005E490005BF0BE24001E50A6
:1016E00003021761BE2400325077A5BF011090009D
:1016F000627EEB50740AAC5B0B247CE5804BA5BF8B
:101700000216900061E09000627EEB70BC7B78393D
:10171000740AAC7B0B357CE7802F90005C0BEA30C1
:101720000B341BEA3090005C0BEA30BE34003240D0
:10173000309000627EEB70740AAC7B2E3400037C28
:10174000E7740380184CFF6818E490005BF0900089
:101750005EF06D3390005F1BEA308005E490005B23
:10176000F0900062E0900061F07CBEDA7922CA3B22
:1017700090004E7AEB5090004D7AEB607F309000F5
:101780004C7AEB7090004BF0E4900051F0900052D6
:10179000F090004EE0B408067402900051F0E4901E
:1017A000004FF002185D740A90004F7EEBA00A2AE9
:1017B00090004D7EEBA00A3A9D321B34121F587FD9
:1017C000017F131212917E14000A12128F7CB390C3
:1017D0000050F0900052E0704590004DE00A0B1B65
:1017E0000490004FE00A1BBD105833900050E07089
:1017F0002790004E7EEB500A351E34900051E00ACF
:101800000B2D03AD1090004BE00A5B2D5190004C66
:101810007EEB707E6020803C7401900052F090005E
:101820004E7EEB500A151E14900051E00A0B2D015C
:1018300090004FE00A1BAD1090004BE00A5B2D5169
:1018400090004C7EEB709000507EEB600A162E14D8
:1018500000307C6312187190004FE004F090004D4E
:101860007EEBA090004FE0BCBA50030217A6DA3B13
:1018700022CA3B7CF57C367CE77CDB0A257D321E68
:10188000347CB7900004F06D009000051BEA00BEA8
:10189000F008780C7E0400069000071BEA00802008
:1018A0007D021E041E041E045E24000768067E24BA
:1018B000000180026D222D20AD329000071BEA301E
:1018C0000A339E3400207CC77CBD7C7E121EEC6DEA
:1018D000339000058064900004E00A3B9000050B03
:1018E000EA208D234D22780EBEF00868097CBD7C6D
:1018F0007E0BE0121EECBEF00878137E7006AC7C06
:101900009000050BEA202D322E34001E8016BEF00A
:1019100010783A7E7010AC7C9000050BEA202D32D6
:101920002E3402467A71827A6183E4937E700112CA
:101930001E979000050BEA300B341BEA309000072D
:101940000BEA209000050BEA30BD324089DA3B22D9
:10195000C2C27E3400C8121FA1D2C274AE6C77120C
:101960001E97E46C77121E9774106C77121E977492
:10197000406C77121E9774816C77121E9774CF6C2F
:1019800077121E9774A16C77121E9774C86C771229
:101990001E9774A66C77121E9774A86C77121E9708
:1019A000743F6C77121E9774D36C77121E97E46C99
:1019B00077121E9774D56C77121E9774806C77120D
:1019C0001E9774D96C77121E9774F16C77121E975C
:1019D00074DA6C77121E9774126C77121E9774DB90
:1019E0006C77121E9774406C77121E9774206C7778
:1019F000121E9774026C77121E97748D6C77121EEC
:101A00009774146C77121E9774A46C77121E9774D7
:101A1000A66C77121E97121E3574AF6C77021E9754
:101A2000CA3B7F309000567AEB509000557AEB60BD
:101A30009000547AEB70900053F06D339000571B78
:101A4000EA30900056E00A5B7D455E440007680678
:101A50007E44000180026D441E541E541E542D54B9
:101A6000900056F0E4900059F08054900053E090BC
:101A700000547EEBA00A2A9000597EEBA00A3A2D72
:101A800032121EECE490005AF080209000570BEACE
:101A9000307D230B241BEA202D377D267E1BB07E54
:101AA0007001121E9790005AE004F09000557EEBF2
:101AB000A090005AE0BCBA40D2900059E004F090E7
:101AC00000567EEBA0900059E0BCBA409EDA3B2263
:101AD000CA2BCA1BCA0BC0D1C0D0C083C082900021
:101AE0003F0BEA307D231B241BEA204D3378729094
:101AF0000041E0900034F0E4900041F07E3401F4C5
:101B000090003F1BEA30E58D0A3B9000351BEA3020
:101B1000E58B0A3B9000371BEA30758D00758B0012
:101B2000900034E01A3B1A267E14FFFF1212867FC3
:101B3000019000350BEA207C456C559000370BEA8C
:101B4000302D326D222F107CB4120BDD7E142FB895
:101B50007E043F80120A76900042793E00021BEA22
:101B600020D082D083D0D0D0D1DA0BDA1BDA2B325E
:101B7000D2AF74C47E34FE037E24007E7A1BB07E16
:101B800034FE037E24007E7E1BB020E0F2E47E342F
:101B9000FE017E24007E7A1BB074017E34FE007A42
:101BA0001BB0A9D7BA75EA0075E90075B20075B126
:101BB000207596FF75950075B4FF75B30012195026
:101BC000121F72121FF912200C12000E900039E041
:101BD000146808047808121C9A80031212E2A2A367
:101BE000E43378E880007E340014121FA1A2A3E43D
:101BF0003368F3900039E004F0121E35900039E0AC
:101C0000BEB00248C7E4900039F080C0CA3B7CF502
:101C10007CE67CD77CCB0A357D131E141E141E1463
:101C20007D235E24000768067E24000180026D2269
:101C30002D21AD329000021BEA306D339000008000
:101C4000430A3F9000000BEA208D234D2278097C47
:101C5000BC7C7D0BD0121EECBEF010783A7E70205A
:101C6000AC7E9000000BEA202D322E3408367A71BB
:101C7000827A6183E4937E7001121E979000000BBC
:101C8000EA300B341BEA309000020BEA209000008F
:101C90000BEA30BD3240AADA3B22E46C776C667EF8
:101CA0005010121C0C74106C777E60017E50101264
:101CB0001C0C74206C777E60027E5010121C0C7419
:101CC000306C777E60037E5010121C0C74406C7771
:101CD0007E60047E5010121C0C74506C777E600580
:101CE0007E5010121C0C74606C777E60067E501063
:101CF000121C0C74706C777E60077E5010121C0CE6
:101D0000E47E70027E60087E5010121C0C74107EFF
:101D100070027E60097E5010021C0CCA3B900002CB
:101D20007AEB607F309000017AEB70900000F0E475
:101D3000900003F0804D900000E09000017EEB7079
:101D40009000037EEB607CA60BA07AEBA00A267FB6
:101D5000032D127E0B609000027EEB5012187190E2
:101D600000027EEBA0BEA0087809900000E02406E7
:101D7000F080100A3A7E240002121243900000E024
:101D80002CB7F0900003E00A3B2D377D267E1BB078
:101D900070A4DA3B22740F121EC27D23E4120BE200
:101DA00090002C793E00021BEA207401121EC27DB5
:101DB00023E4120BE290003A793E00021BEA2090E5
:101DC000003A691E00020BEA007E346CDF7E243F7D
:101DD00097120A7690002C691E00020BEA00120B83
:101DE00016900030793E00021BEA2002201C758408
:101DF000017E44041FE47A49B01B4478F97EF80060
:101E0000077E0400FF7E1420330B0A405D446822E5
:101E1000295000020A25693000032E0800050B44F2
:101E2000800A7E0BB07A1BB00B1C0B0C1B4478F2A3
:101E300080D7021B70CA796CFF0A5F2E5400B06C09
:101E400077121E97E46C77121E9774106C77121E2F
:101E5000976CEEE47E7001121E970BE0BEE0807876
:101E6000F20BF0BEF00840D1DA7922CAF87CFB4CC4
:101E7000FB780E74C86C77121E9774A16C77121ED3
:101E800097BEF001780E74C06C77121E9774A06C28
:101E900077121E97DAF8227CAB4C776804D2C380A5
:101EA00002C2C3C2C47E7008C2C07CBA30E704D28A
:101EB000C18002C2C1D2C03EA01B7078EBD2C4D296
:101EC000C3227EA1BC5EA0E04CBAF5BC43BCC0E519
:101ED000BC30E5FB53BCDFE5BD7C6B6C77E5BE0A2F
:101EE0002B4D321E341E341E341E3422CAF87CFBA5
:101EF0000A572E5400B06C77121E977CBF54F0C462
:101F0000540F44106C77121E977CBF540F6C7712DD
:101F10001E97DAF82220A3057EA001801A20A405CE
:101F20007EA002801220A5057EA003800A20A605BF
:101F30007EA00480026CAA7CBA22CAF87CFB4CFB0F
:101F4000780774A66C77121E97BEF001780774A705
:101F50006C77121E97DAF8227C977C8B7E18000132
:101F600080070A186D001212757CA91B904CAA7884
:101F7000F122438E805389F0758A80758C44C28D1E
:101F8000D28CD2A9A9D3B7D2BB22CAB8C0D1C08340
:101F9000C082900041E004F0D082D083D0D1DAB882
:101FA000327D13800E7E0407087D301B044D33788C
:101FB000F81B144D1178EE227D237E340FA07D1383
:101FC0001B147D3178F87D121B147D2178EC22746E
:101FD0008D6C77121E9774146C77121E9774AF6C09
:101FE00077021E97748D6C77121E9774106C77129F
:101FF0001E9774AE6C77021E9753890F43895075F4
:102000008B00758D00C28FD28ED2AB227598505343
:102010008EFB75D7CC75D6FF438E1022007E18013B
:10202000131B1C78FC227AB1993099FDC2992228A1
:1020300030290000010100340000010100390100D5
:102040000101003E00000201003F01F40004010014
:1020500042000000000004010047000000000000F2
:102060004334004333004332004331004C33004CCF
:0A20700032004C310025660D0A0015
:00000001FF
