:100000000200A4020130CAF8E47E34FED07E24004F
:100010007E7A1BB074017E34FED17A1BB0E47E146C
:10002000FECC7E04007E7A0BB07E34FECD7A1BB00F
:100030007EF0687E54FEC87E44007E7A2BF07E54AB
:10004000FEC97A2BF07E54FECA7A2BF07E54FECB8A
:100050007A2BF074557A0BB07A1BB0E47E34FED262
:100060007A1BB074647E34FED37A1BB0E47E34FE17
:10007000B17A1BB07E1BB044017A1BB07E1BB0442A
:10008000027A1BB0E47E34FEB27A1BB074807E34F8
:10009000FEDD7A1BB07E34FEC07E1BB044817A1B2D
:1000A000B0DAF8227584017E44041FE47A49B01B5B
:1000B0004478F97EF80020D2007E0400FF7E14010F
:1000C0004A0B0A405D446822295000020A25693023
:1000D00000032E0800050B44800A7E0BB07A1BB08B
:1000E0000B1C0B0C1B4478F280D70200EDA9D7BA89
:1000F00075EA0075E9007E3400199000011BEA30B2
:1001000075CC0075CB0075E805120006120117D2F8
:1001100088D2A8D2AF80FE9000010BEA107E34FE98
:10012000D57E24007E7A1B207E34FED67A1B3022B8
:10013000CAB8C0D1E5E803F5E8D0D1DAB83200009A
:10014000007E18000D1B1C78FC220001010000003D
:020150000000AD
:00000001FF
