:0700000002201F2830290037
:08000B00021DDB252E33660007
:10001B000221540000000000000000002F0000002F
:10002B00000700070000147F147F1400242A7F2A86
:10003B001200626408132300364955225000000554
:10004B0003000000001C224100000041221C0000A4
:10005B0014083E08140008083E0808000000A060C1
:10006B00000008080808080000606000000020106D
:10007B00080402003E5149453E0000427F4000000B
:10008B004261514946002141454B31001814127F02
:10009B0010002745454539003C4A4949300001715C
:1000AB0009050300364949493600064949291E000E
:1000BB0000363600000000563600000008142241BE
:1000CB00000014141414140000412214080002013F
:1000DB0051090600324959513E007C1211127C0025
:1000EB007F49494936003E41414122007F4141222F
:1000FB001C007F49494941007F09090901003E4124
:10010B0049497A007F0808087F0000417F410000C1
:10011B002040413F01007F08142241007F404040B6
:10012B0040007F020C027F007F0408107F003E41DD
:10013B0041413E007F09090906003E4151215E0005
:10014B007F091929460046494949310001017F01C0
:10015B0001003F4040403F001F2040201F003F4018
:10016B0038403F0063140814630007087008070049
:10017B00615149454300007F41410000552A552AF2
:10018B0055000041417F0000040201020400404081
:10019B0040404000000102040000205454547800F9
:1001AB007F48444438003844444420003844444891
:1001BB007F00385454541800087E0901020018A41B
:1001CB00A4A47C007F080404780000447D40000058
:1001DB004080847D00007F102844000000417F4058
:1001EB0000007C04180478007C0804047800384470
:1001FB0044443800FC242424180018242418FC0040
:10020B007C0804040800485454542000043F444024
:10021B0020003C4040207C001C2040201C003C4027
:10022B0030403C004428102844001CA0A0A07C00B7
:10023B004464544C441414141414140000000000AF
:10024B000000000000000000000000000000F800AB
:10025B00000000000000333000000000100C0610FE
:10026B000C0600000000000000000040C07840C0F9
:10027B00784000043F04043F040400007088FC082D
:10028B00300000001820FF211E0000F008F000E0F5
:10029B0018000000211C031E211E0000F0088870AE
:1002AB000000001E2123241927211010160E000018
:1002BB000000000000000000000000000000E0183B
:1002CB00040200000000071820400000020418E0A0
:1002DB000000000040201807000000404080F08024
:1002EB004040000202010F01020200000000F0007A
:1002FB000000000101011F010101000000000000CE
:10030B0000000080B0700000000000000000000042
:10031B0000000000010101010101010000000000CB
:10032B0000000000303000000000000000000080E2
:10033B00601804006018060100000000E0100808B7
:10034B0010E000000F102020100F00001010F8001C
:10035B000000000020203F2020000000700808084B
:10036B008870000030282422213000003008888853
:10037B004830000018202020110E000000C0201073
:10038B00F8000000070424243F240000F8088888A4
:10039B000808000019212020110E0000E0108888A9
:1003AB00180000000F112020110E0000380808C89B
:1003BB003808000000003F000000000070880808AB
:1003CB00887000001C222121221C0000E01008086C
:1003DB0010E0000000312222110F00000000C0C00D
:1003EB000000000000003030000000000000800022
:1003FB000000000000806000000000000080402032
:10040B00100800000102040810200040404040404A
:10041B0040400004040404040404000008102040BD
:10042B00800000002010080402010000704808083A
:10043B0008F0000000003036010000C030C828E88A
:10044B0010E0000718272423140B000000C038E02D
:10045B00000000203C23020227382008F8888888F7
:10046B00700000203F202020110E00C0300808082B
:10047B00083800071820202010080008F808080882
:10048B0010E000203F202020100F0008F88888E89B
:10049B00081000203F20202320180008F88888E847
:1004AB00081000203F200003000000C0300808089F
:1004BB0038000007182020221E020008F808000050
:1004CB0008F808203F210101213F20000808F80807
:1004DB000800000020203F2020000000000808F842
:1004EB00080800C08080807F00000008F888C028C2
:1004FB00180800203F20012638200008F8080000CB
:10050B00000000203F20202020300008F8F800F8E1
:10051B00F80800203F003F003F200008F830C000E3
:10052B0008F808203F200007183F00E010080808D3
:10053B0010E0000F10202020100F0008F80808080A
:10054B0008F000203F210101010000E0100808081D
:10055B0010E0000F18242438504F0008F8888888C2
:10056B00887000203F2000030C30200070880808A2
:10057B000838000038202121221C00180808F80830
:10058B000818000000203F2000000008F8080000B9
:10059B0008F808001F202020201F00087888000082
:1005AB00C83808000007380E010000F80800F800F2
:1005BB0008F800033C0700073C030008186880801C
:1005CB0068180820302C03032C30200838C800C8CA
:1005DB003808000000203F2000000010080808C861
:1005EB003808002038262120201800000000FE02C9
:1005FB000202000000007F40404000000C30C000B1
:10060B00000000000000010638C00000020202FEDC
:10061B00000000004040407F000000000004020288
:10062B0002040000000000000000000000000000B9
:10063B0000000080808080808080800002020400A7
:10064B00000000000000000000000000008080801F
:10065B008000000019242222223F2008F80080800D
:10066B00000000003F112020110E000000008080D0
:10067B00800000000E11202020110000000080805F
:10068B0088F800000E112020103F20000080808091
:10069B00800000001F222222221300008080F0889D
:1006AB008888180020203F202000000000808080D8
:1006BB00808000006B94949493600008F800808015
:1006CB00800000203F210000203F200080989800F0
:1006DB000000000020203F20200000000000809838
:1006EB0098000000C08080807F000008F800008028
:1006FB00808000203F24022D302000000808F800E5
:10070B000000000020203F2020000080808080809F
:10071B00808000203F20003F20003F8080008080B1
:10072B00800000203F210000203F200000808080BF
:10073B00800000001F202020201F00808000808070
:10074B0000000080FFA12020110E0000000080801F
:10075B00808000000E112020A0FF80808080008010
:10076B0080800020203F212000010000008080803D
:10077B008080000033242424241900008080E08032
:10078B008000000000001F2020000080800000007F
:10079B00808000001F202020103F208080800000E0
:1007AB0080808000010E30080601008080008000F0
:1007BB008080800F300C030C300F00008080008095
:1007CB008080000020312E0E3120008080800000C0
:1007DB0080808080818E7018060100008080808070
:1007EB008080000021302C2221300000000000808E
:1007FB007C020200000000003F404000000000FFB0
:10080B0000000000000000FF0000000002027C80DE
:10081B000000000040403F00000000000601010204
:10082B0002040400000000000000000000F01010A3
:10083B001010FF10101010F000000000000F040447
:10084B000404FF040404040F0000004040405F5503
:10085B005555755555555F404040000040200F09D8
:10086B004989790909090F2040000000FE02424A1C
:10087B00CA4A4ACA4A4A4202FE000000FF40504C94
:10088B004340404F50505C40FF00000000F8888808
:10089B008888FF88888888F800000000001F0808F7
:1008AB0008087F888888889F80F0008082828282F7
:1008BB008282E2A2928A8682808000000000000081
:1008CB0040807F0000000000000000101010FF109F
:1008DB009008888888FF88888808000444827F01F4
:1008EB00808040432C10284681800000101010108F
:1008FB00D030FF30D0121C10100000100804020181
:10090B000000FF00000102040810005D22680D5D6D
:10091B000078122D220B4068099F11222D000B002D
:10092B0078F9020B0E120AD15C800B8068082481C7
:10093B0050072CB0500A020B162CB04003020B13BD
:10094B007C8B5D1178267CB17CA5BE1080680A5D1E
:10095B0033780DA5BD80057F10020B006D00803034
:10096B007F017C5B7CB17CA5AD1280245D33780666
:10097B00A5BD80F080E1CA887D41AD437CB17CA5EB
:10098B00AD122D1450020B047C5BAD232F01DA88C2
:10099B00A42D05BE008040060B80780480982F00A4
:1009AB007C437C507C617C72020AEABE24FFFF68A8
:1009BB0006BE04FFFF7803020B0E120AD15CB004D3
:1009CB0068F57CB8A54868EF7CB870039F1122A529
:1009DB00B80003020B162E008150079C80380702CB
:1009EB000B139C8050ED0A51C2E74D517803020B5B
:1009FB00007E5400807E901A6C0080061B90681459
:100A0B002F11BF1040049F104CAB0330E7EECAA868
:100A1B006CAA80E8DA39DA587C4ABE5080500A1B3F
:100A2B008068BC2F1150020B70020AEA7EA0208056
:100A3B000C7EA01080057EA0086C556D333392D5CB
:100A4B00500A6E34FFFF6E24FFFF0B1CA5EC3340E6
:100A5B00062F11D5F0F6227CBA247EA2D5137C7614
:100A6B007C65A5CC92E77C5B227CB5337CB433925E
:100A7B00D54E5080248140039F11227C457C567CAF
:100A8B00676C7724E0500E7E1CFFFF221E341E2461
:100A9B0050034E60800478F430D50A6E34FFFF6E3D
:100AAB0024FFFF0B1C227F707F517EC400017ED47C
:100ABB0000677E940AC4020B4F4005E47A7BB02298
:100ACB007A7BB00B7C222D0092D50E104E10807DC0
:100ADB00422D445002B2D54E50806C447CB8222C2F
:100AEB004450120B1C7E40005E507FBE18000078F5
:100AFB00040B806816A2D57CB8137C4B7CB592E7AF
:100B0B007C5B227E1CFFFF229F11227E24FF802014
:100B1B00D5026C456D3322540F2490D43440D4301D
:100B2B00F30CBEB0414007BEB05B500224204CCC4E
:100B3B0068021BC00B84D389944CCC680B742012B5
:100B4B000B3980F5CA3B6D889F337CAE7E5BB00B57
:100B5B005C7007C37D38DA3B8994B42569C2F37E98
:100B6B005BB00B5CA5F824D0BEB00A501B7E500ABC
:100B7B0020F60DAC5CA52D7CCB70034EF00180DD17
:100B8B00AC5DA52D7CDB80D524CFBEB01AA5E8507B
:100B9B00055E00DFD2F3900F24A3E4936011BCB089
:100BAB0078F77417934CAB30F6B34EF08080AEA34E
:100BBB00E4936010BCB078F77416937C3B7423936A
:100BCB007C2B89147CB080137420120B3920F20516
:100BDB00BEC00250F31B6D29B60001120B39020B7C
:100BEB00441B6E691600020B6A00BE0800007808F1
:100BFB007E0400FF7E14000320F21E4CCC681A7F8B
:100C0B0010E47E1B804C8868070B1C04BCBD78F27B
:100C1B00C2F6CA0B120D23DA0B7E0BB060C0CA0BE7
:100C2B00120B39DA0B0B0C4CDD68EE1BD078EA801B
:100C3B00ADD2F07E101080037E10085EB05F800A8C
:100C4B00D2F67E100A80057E100AC2F66D119F1136
:100C5B007E00201B6C7E6B7030F6021A3720F1057C
:100C6B001B6C7E6B6030F6041A261A2430F0051BC1
:100C7B006D0B6A20A5EC3382F692F6500A7CEA9F44
:100C8B00229F217F127CAE4C44780F7C457C567C96
:100C9B00676C772E00F878EF80122F117CB3337CC2
:100CAB003B9CB140047C3B0B70A5D8EE7CB230E092
:100CBB0005DAB8C44C3BCA380B207E00207E3000CE
:100CCB00BE18000078C1BE1008780730F404C2F4D7
:100CDB0080B5CA287CB2BCBD38027CBD120D23DAAC
:100CEB0028BC2D500A1BD0E4CA28120B2280F07CA2
:100CFB00B213DAB84004C4CAB8C4CA28BEF08040E4
:100D0B00095CDD7805A5DA0260065EF07F120B2226
:100D1B00DA28A5DADA020B44BEF001680F30F402D0
:100D2B00240220F50620F70330F6010420F229BC3B
:100D3B00BC5025CAB87CBF13B0E674205011743078
:100D4B007C8A5E80F06808120D635EA00F80031230
:100D5B000B39DAB8BCBC78DB30F40F7430120B39BA
:100D6B00745830F3027478120B3930F605742D0277
:100D7B000B39742B20F5F8742020F7F3221B6C7EB3
:100D8B006BB010F1021B6C20F60B30E704F404D2AD
:100D9B00F27CCB800520E7057CDB020B685EF07FE5
:100DAB0080F81B6E691600020B6A0030F0076D228B
:100DBB001B0A200B0D1B0A80020B53E46C22BE3066
:100DCB0007500B7F1F2D312E34FFF77E39B0227C5D
:100DDB00BF20E7A8742E4EF080020B39120F0D4086
:100DEB003D7CBD7003047CDB1210247C3D4C3368CE
:100DFB00101B307CBE20E409120DC670044C3378F6
:100E0B00F07CBD7CD3BEA0FD481CBCAB5818E49C49
:100E1B00BA2CB31801E47CDB020EAE120F0D406E40
:100E2B007CBD041210247AFBA07CAE7CBDA2F49294
:100E3B00F0C2F440026001042405120D237E30FF42
:100E4B000B30120DC6CA38120B2220F0044CDD6891
:100E5B0003120DDADA38BC3D78E6740E120B2274ED
:100E6B002B7EFBA030F707742D6EA0FF0BA07AFB37
:100E7B00A0120B397EA00A7EFBB0847AFBA0120B6A
:100E8B00227EFBB0120B229EF80008020B44D2F21A
:100E9B007ED000020C03120F0D40F37CBA2CBD0464
:100EAB001210247AFBA07CBA7CAE30E701E404205C
:100EBB00F4044CDD6805D2F0C2F4042CBD120D23F2
:100ECB006C337EFBB0601B20E712147AFBB0120D63
:100EDB00C6CA38120B22DA380B3080E6047AFBB024
:100EEB001B30120DC6CA38120B224CDD6807120DCF
:100EFB00DA1BD080E19EF8000930F003120DDA0204
:100F0B000B447CEA7CAF10F7037ED0067CFA1B6E99
:100F1B00693600020B6A20020F6C2D2B204C4248C5
:100F2B00232E0053584F44494355502A4E464547AC
:100F3B00000420800102001040EC3E434B4BD85282
:100F4B003C88ADA126E70B0C0C0C0C0B0C0C0D0DFF
:100F5B000E0E0D4E614E002B494E46002D494E464E
:100F6B00007D522D557CBE92E67CEB7CBA601F0453
:100F7B0070287CB5C2E77E0400FF60067E140F5E0E
:100F8B00D3227E140F6740047E140F62D322DA093A
:100F9B009F22CA2BCA2BC3CA09220A0A7E144D10E0
:100FAB00AD109E083AF09E10267CB5C2E77EA05687
:100FBB007C9BA46E54FFFF2E54C511ACA92D15E4D8
:100FCB00A539CAB8CA1B20E70A121097DA1B1209F7
:100FDB00B6800AF404121097DA1B120916DAA87CF1
:100FEB00B5337CB4334E50806C4424822F1114786B
:100FFB00FBDA497407BE400A40099E400ACA020147
:10100B00140BA0CA486C442F117F012F112F112FE5
:10101B00101478EFCA48CA49227F0F20E73ABEB0B6
:10102B0007400274070A0B2D109E1400097E19B09D
:10103B002EB0FB501F4C116817E47A19B01B147EAD
:10104B0019B0047A19B0B40A0BE47A19B0A5D9ED2A
:10105B000BA074017A19B0225EE0BF223F80000022
:10106B004120000042C80000447A0000461C4000AA
:10107B0047C35000497424004B1896804CBEBC20CB
:10108B005A0E1BCA6753C21C749DC5AE7C7B60068F
:10109B005407681623231210BC7CB75438680A7F98
:1010AB00101210B91209167F01227CB75438032491
:1010BB001C6CAA2E5410677E4400FF0B2A00691289
:1010CB00000222C2D57CB430E708B2D56E24FFFFF4
:1010DB000B247CB630E712B2D56E34FFFF0B348D88
:1010EB00326E24FFFF0B2480028D3230D5066E3416
:1010FB00FFFF0B34227D51AD037D027D21AD052D0C
:10110B0012AD352D21227D02AD31AD102D21226D79
:10111B000074104D00780B4D2278278D317D126DA8
:10112B0022227D437D326D222F112D445002A50FBB
:10113B00BF1040049F100B901478ED7F016D227D42
:10114B0034227D417D138D247D022F004004BD048C
:10115B0040049D040B141478F17D237D317D106DBB
:10116B0000227F707C7BA5BF010280030212357EBB
:10117B0034FECC7E24007E7E1BB054FE7A1BB07EE8
:10118B001BB054FB7A1BB07ED4FEC87EC4007E7E9F
:10119B006BB054FC7A6BB07E6B305E308F7E7B20F5
:1011AB004C327A6B3029A700067CBA30E0177E1BD5
:1011BB00B044017A1BB07E14FEB17E04007E7E0B20
:1011CB00B0440180157E1BB054FE7A1BB07E14FE1A
:1011DB00B17E04007E7E0BB054FE7A0BB07CBA302D
:1011EB00E11A7E1BB044047A1BB07E14FEB17E0460
:1011FB00007E7E0BB044027A0BB080187E1BB0547D
:10120B00FB7A1BB07E34FEB17E24007E7E1BB05475
:10121B00FD7A1BB0691700037E34FED57E24007E59
:10122B007A1B207E34FED6021708A5BF020280036C
:10123B000212F97E34FECC7E24007E7E1BB054EF6E
:10124B007A1BB07E1BB054BF7A1BB07ED4FEC97E16
:10125B00C4007E7E6BB054FC7A6BB07E6B305E301C
:10126B008F7E7B204C327A6B3029A700067CBA30FC
:10127B00E2177E1BB044107A1BB07E14FEB17E04C5
:10128B00007E7E0BB0440480157E1BB054EF7A1B9E
:10129B00B07E14FEB17E04007E7E0BB054FB7A0B45
:1012AB00B07CBA30E31A7E1BB044407A1BB07E147C
:1012BB00FEB17E04007E7E0BB044087A0BB0801822
:1012CB007E1BB054BF7A1BB07E34FEB17E24007EF1
:1012DB007E1BB054F77A1BB0691700037E34FED720
:1012EB007E24007E7A1B207E34FED8021708A5BF11
:1012FB00030280030213BD7E34FECD7E24007E7E6E
:10130B001BB054FE7A1BB07E1BB054FB7A1BB07E15
:10131B00D4FECA7EC4007E7E6BB054FC7A6BB07E6A
:10132B006B305E308F7E7B204C327A6B3029A7007E
:10133B00067CBA30E4177E1BB044017A1BB07E14D6
:10134B00FEB17E04007E7E0BB0441080157E1BB078
:10135B0054FE7A1BB07E14FEB17E04007E7E0BB071
:10136B0054EF7A0BB07CBA30E51A7E1BB044047A8A
:10137B001BB07E14FEB17E04007E7E0BB044207A3F
:10138B000BB080187E1BB054FB7A1BB07E34FEB1C1
:10139B007E24007E7E1BB054DF7A1BB069170003DE
:1013AB007E34FED97E24007E7A1B207E34FEDA0248
:1013BB001708A5BF040280030214817E34FECD7E84
:1013CB0024007E7E1BB054EF7A1BB07E1BB054BF43
:1013DB007A1BB07ED4FECB7EC4007E7E6BB054FCF9
:1013EB007A6BB07E6B305E308F7E7B204C327A6BAB
:1013FB003029A700067CBA30E6177E1BB044107A62
:10140B001BB07E14FEB17E04007E7E0BB044408088
:10141B00157E1BB054EF7A1BB07E14FEB17E040018
:10142B007E7E0BB054BF7A0BB07CBA30E71A7E1BB2
:10143B00B044407A1BB07E14FEB17E04007E7E0B5E
:10144B00B044807A0BB080187E1BB054BF7A1BB0AF
:10145B007E34FEB17E24007E7E1BB0547F7A1BB09F
:10146B00691700037E34FEDB7E24007E7A1B207E10
:10147B0034FEDC021708A5BF096E293700057E3440
:10148B00FEDE7E24007E7A1B30691700017E34FE5F
:10149B00D27A1B207E34FED37A1B3029B70008B4D6
:1014AB00010F7E34FEDD7E24007E7E1BB0448080E7
:1014BB000D7E34FEDD7E24007E7E1BB0547F7A1BB6
:1014CB00B029B70007B401107E34FEC07E24007E25
:1014DB007E1BB0440102177F7E34FEC07E24007E4B
:1014EB007E1BB054FE02177FA5BF050280030215B9
:1014FB00797E34FEEC7E24007E7E1BB054FE7A1B7C
:10150B00B07ED4FEE87EC4007E7E6BB054FC7A6B5A
:10151B00B07E6B305E308F7E7B204C327A6B302905
:10152B00B7000630E01A7E1BB044017A1BB07E1464
:10153B00FEB57E04007E7E0BB044017A0BB08018A2
:10154B007E1BB054FE7A1BB07E34FEB57E24007E2B
:10155B007E1BB054FE7A1BB0691700037E34FEF578
:10156B007E24007E7A1B207E34FEF6021708A5BF70
:10157B00060280030215FF7E34FEEC7E24007E7E85
:10158B001BB054EF7A1BB07ED4FEE97EC4007E7E86
:10159B006BB054FC7A6BB07E6B305E308F7E7B20F1
:1015AB004C327A6B3029B7000630E21A7E1BB044FE
:1015BB00107A1BB07E14FEB57E04007E7E0BB04409
:1015CB00047A0BB080187E1BB054EF7A1BB07E34BC
:1015DB00FEB57E24007E7E1BB054FB7A1BB06917D0
:1015EB0000037E34FEF77E24007E7A1B207E34FEC1
:1015FB00F8021708A5BF070280030216857E34FE8A
:10160B00ED7E24007E7E1BB054FE7A1BB07ED4FE92
:10161B00EA7EC4007E7E6BB054FC7A6BB07E6B307E
:10162B005E308F7E7B204C327A6B3029B7000630D0
:10163B00E41A7E1BB044017A1BB07E14FEB57E0407
:10164B00007E7E0BB044107A0BB080187E1BB0541A
:10165B00FE7A1BB07E34FEB57E24007E7E1BB0541A
:10166B00EF7A1BB0691700037E34FEF97E24007EEF
:10167B007A1B207E34FEFA021708A5BF08028003EE
:10168B000217117E34FEED7E24007E7E1BB054EFDC
:10169B007A1BB07ED4FEEB7EC4007E7E6BB054FC16
:1016AB007A6BB07E6B305E308F7E7B204C327A6BE8
:1016BB003029B7000630E61A7E1BB044107A1BB0F7
:1016CB007E14FEB57E04007E7E0BB044407A0BB0D8
:1016DB0080187E1BB054EF7A1BB07E34FEB57E248F
:1016EB00007E7E1BB054BF7A1BB0691700037E349B
:1016FB00FEFB7E24007E7A1B207E34FEFC7E2400C3
:10170B007E7A1B30E422A5BF0A6F293700057E3491
:10171B00FEFE7E24007E7A1B30691700017E34FEAC
:10172B00F27A1B207E34FEF37A1B3029B70008B403
:10173B00010F7E34FEFD7E24007E7E1BB044808034
:10174B000D7E34FEFD7E24007E7E1BB0547F7A1B03
:10175B00B029B70007B4010F7E34FEE07E24007E73
:10176B007E1BB04401800D7E34FEE07E24007E7E25
:10177B001BB054FE7A1BB0E42274FF22E47E34FECD
:10178B00D07E24007E7A1BB07E34FED17A1BB074DF
:10179B00027E34FEF07A1BB074DC7E34FEF17A1BD1
:1017AB00B07E0400809000671BEA007E140100905D
:1017BB0000691BEA107E24020090006B1BEA207E5E
:1017CB0034040090006D1BEA3090007F1BEA009000
:1017DB0000811BEA109000831BEA209000851BEA16
:1017EB0030746090003FF09000670BEA309000423D
:1017FB001BEA307403900045F074017E14003F7EA9
:10180B0004000112116D746090003FF09000690BA1
:10181B00EA309000421BEA307404900045F07402E9
:10182B007E14003F7E04000112116D746090003F26
:10183B00F090006B0BEA309000421BEA3074109072
:10184B000045F074037E14003F7E04000112116DFD
:10185B00746090003FF090006D0BEA309000421BDB
:10186B00EA307440900045F074047E14003F7E040F
:10187B00000112116D7E3401A69000401BEA30E48A
:10188B00900044F07401900047F0900046F074090A
:10189B007E14003F7E04000112116D746090003FB6
:1018AB00F090007F0BEA309000421BEA30740190FD
:1018BB000045F074057E14003F7E04000112116D8B
:1018CB007E347FE69000401BEA30E4900044F074D5
:1018DB0001900047F0900046F0740A7E14003F7EA2
:1018EB0004000112116D7E34FEB27E24007E7E1B3D
:1018FB00B054FC44017A1BB0227F7114BEB0084077
:10190B0003021A787EA003A49019177302192F02F1
:10191B00195702197F0219A70219CF0219F8021AD7
:10192B0021021A4A6D117E0443D37F171209161236
:10193B000A749000671BEA307E14FED57E04007E8D
:10194B007A0B607C377E34FED6021A716D117E04E1
:10195B0043D37F17120916120A749000691BEA30E1
:10196B007E14FED77E04007E7A0B607C377E34FEBD
:10197B00D8021A716D117E0443D37F171209161208
:10198B000A7490006B1BEA307E14FED97E04007E35
:10199B007A0B607C377E34FEDA021A716D117E048D
:1019AB0043D37F17120916120A7490006D1BEA308D
:1019BB007E14FEDB7E04007E7A0B607C377E34FE69
:1019CB00DC021A717E14CC007E0446FF7F171209CD
:1019DB0016120A7490007F1BEA307E14FEF57E040B
:1019EB00007E7A0B607C377E34FEF680797E14CCD9
:1019FB00007E0446FF7F17120916120A74900081AD
:101A0B001BEA307E14FEF77E04007E7A0B607C3777
:101A1B007E34FEF880507E14CC007E0446FF7F1788
:101A2B00120916120A749000831BEA307E14FEF919
:101A3B007E04007E7A0B607C377E34FEFA80277E34
:101A4B0014CC007E0446FF7F17120916120A7490FD
:101A5B0000851BEA307E14FEFB7E04007E7A0B6051
:101A6B007C377E34FEFC7E24007E7A1B3022CA3B00
:101A7B0090008A7AEB509000897AEB607F3090006F
:101A8B00887AEB70900087F0E490008DF090008ED8
:101A9B00F090008AE0B40806740290008DF0E49098
:101AAB00008BF0021B68740A90008B7EEBA00A2A55
:101ABB009000897EEBA00A3A9D321B3412213A7FAB
:101ACB00017F1312111C7E14000A12111A7CB390A1
:101ADB00008CF090008EE07045900089E00A0B1BA3
:101AEB000490008BE00A1BBD10583390008CE07003
:101AFB002790008A7EEB500A351E3490008DE00A49
:101B0B000B2D03AD10900087E00A5B2D51900088E0
:101B1B007EEB707E6020803C740190008EF0900014
:101B2B008A7EEB500A151E1490008DE00A0B2D01D6
:101B3B0090008BE00A1BAD10900087E00A5B2D51E3
:101B4B009000887EEB7090008C7EEB600A162E1452
:101B5B0000307C63121B7C90008BE004F0900089BA
:101B6B007EEBA090008BE0BCBA5003021AB1DA3BBB
:101B7B0022CA3B7CF57C367CE77CDB0A257D321E5A
:101B8B00347CB7900043F06D009000441BEA00BE1C
:101B9B00F008780C7E0400069000461BEA008020BB
:101BAB007D021E041E041E045E24000768067E24AC
:101BBB00000180026D222D20AD329000461BEA30D1
:101BCB000A339E3400207CC77CBD7C7E1220F36DD3
:101BDB00339000448064900043E00A3B9000440B38
:101BEB00EA208D234D22780EBEF00868097CBD7C5F
:101BFB007E0BE01220F3BEF00878137E7006AC7CEF
:101C0B009000440BEA202D322E34001E8016BEF0BD
:101C1B0010783A7E7010AC7C9000440BEA202D3289
:101C2B002E3402467A71827A6183E4937E700112BC
:101C3B0020C89000440BEA300B341BEA309000466E
:101C4B000BEA209000440BEA30BD324089DA3B228C
:101C5B00C2C27E3400C812216BD2C274AE6C771232
:101C6B0020C8E46C771220C874106C771220C874EB
:101C7B00406C771220C874816C771220C874CF6CBB
:101C8B00771220C874A16C771220C874C86C7712B5
:101C9B0020C874A66C771220C874A86C771220C861
:101CAB00743F6C771220C874D36C771220C8E46C25
:101CBB00771220C874D56C771220C874806C771299
:101CCB0020C874D96C771220C874F16C771220C8B5
:101CDB0074DA6C771220C874126C771220C874DB1C
:101CEB006C771220C874406C771220C874206C7704
:101CFB001220C874026C771220C8748D6C77122076
:101D0B00C874146C771220C874A46C771220C87432
:101D1B00A66C771220C812206674AF6C770220C8AD
:101D2B00CA3B7F309000927AEB509000917AEB6037
:101D3B009000907AEB7090008FF06D339000931BB6
:101D4B00EA30900092E00A5B7D455E44000768062E
:101D5B007E44000180026D441E541E541E542D54AB
:101D6B00900092F0E4900095F0805490008FE090FA
:101D7B0000907EEBA00A2A9000957EEBA00A3A2DEC
:101D8B00321220F3E4900096F080209000930BEA3F
:101D9B00307D230B241BEA202D377D267E1BB07E46
:101DAB0070011220C8900096E004F09000917EEB39
:101DBB00A0900096E0BCBA40D2900095E004F09061
:101DCB0000927EEBA0900095E0BCBA409EDA3B22DD
:101DDB00CA2BCA1BCA0BC0D1C0D0C083C082900013
:101DEB00060BEA307D231B241BEA204D33787290BF
:101DFB000008E0900000F0E4900008F07E3401F45D
:101E0B009000061BEA30E58D0A3B9000011BEA307F
:101E1B00E58B0A3B9000031BEA30758D00758B0038
:101E2B00900000E01A3B1A267E14FFFF1211117F5F
:101E3B00019000010BEA207C456C559000030BEAE6
:101E4B00302D326D222F107CB4120A377E14ACC5A4
:101E5B007E043F7F1209B6900009793E00021BEA0F
:101E6B0020D082D083D0D0D0D1DA0BDA1BDA2B3250
:101E7B00D2AF74C47E34FE037E24007E7A1BB07E08
:101E8B0034FE037E24007E7E1BB020E0F2E47E3421
:101E9B00FE017E24007E7A1BB074017E34FE007A34
:101EAB001BB0A9D7BA75EA0075E90053B22053B13C
:101EBB00207596FF75950075B4FF75B300121C5B0A
:101ECB001221AC1221BF121787900009693E000244
:101EDB000BEA20900063793E00021BEA207E14007F
:101EEB000D7E0400017E34000E7E2400FF120AB129
:101EFB0074027E70027E14000D7E0400017E600869
:101F0B00121FA57E3403E812216B80BDCA3B7CF502
:101F1B007CE67CD77CCB0A357D131E141E141E1455
:101F2B007D235E24000768067E24000180026D225B
:101F3B002D21AD329000991BEA306D3390009780C4
:101F4B00430A3F9000970BEA208D234D2278097CA2
:101F5B00BC7C7D0BD01220F3BEF010783A7E702043
:101F6B00AC7E9000970BEA202D322E3408367A7116
:101F7B00827A6183E4937E70011220C89000970BE4
:101F8B00EA300B341BEA309000990BEA2090009753
:101F9B000BEA30BD3240AADA3B22CA3B9000417AB1
:101FAB00EB607F309000407AEB7090003FF0E49054
:101FBB000042F0804D90003FE09000407EEB70902F
:101FCB0000427EEB607CA60BA07AEBA00A267F0377
:101FDB002D127E0B609000417EEB50121B7C90000B
:101FEB00417EEBA0BEA008780990003FE02406F0EC
:101FFB0080100A3A7E2400021210CE90003FE02C93
:10200B00B7F0900042E00A3B2D377D267E1BB07067
:10201B00A4DA3B227584017E44041FE47A49B01B89
:10202B004478F97EF800077E0400FF7E1421D20B62
:10203B000A405D446822295000020A2569300003DA
:10204B002E0800050B44800A7E0BB07A1BB00B1CCC
:10205B000B0C1B4478F280D7021E7BCA796CFF0AEB
:10206B005F2E5400B06C771220C8E46C771220C836
:10207B0074106C771220C86CEEE47E70011220C8CD
:10208B000BE0BEE08078F20BF0BEF00840D1DA79BD
:10209B0022CAF87CFB4CFB780E74C86C771220C8F4
:1020AB0074A16C771220C8BEF001780E74C06C77E7
:1020BB001220C874A06C771220C8DAF8227CAB4CC3
:1020CB00776804D2C38002C2C3C2C47E7008C2C088
:1020DB007CBA30E704D2C18002C2C1D2C03EA01B81
:1020EB007078EBD2C4D2C322CAF87CFB0A572E54A9
:1020FB0000B06C771220C87CBF54F0C4540F44104E
:10210B006C771220C87CBF540F6C771220C8DAF89A
:10211B0022CAF87CFB4CFB780774A66C771220C89C
:10212B00BEF001780774A76C771220C8DAF8227C0E
:10213B00977C8B7E18000180070A186D0012110026
:10214B007CA91B904CAA78F122CAB8C0D1C083C01D
:10215B0082900008E004F0D082D083D0D1DAB8327C
:10216B007D13800E7E0407087D301B044D3378F8F9
:10217B001B144D1178EE22748D6C771220C87414D9
:10218B006C771220C874AF6C770220C8748D6C7793
:10219B001220C874106C771220C874AE6C770220B2
:1021AB00C8438E805389F0758A80758C44C28DD25A
:1021BB008CD2A92253890F438950758B00758D00E2
:1021CB00C28FD28ED2AB22000101000000000101B0
:0C21DB00000500000201000601F40000F5
:00000001FF
