:10000000021A06C2C5121B86D2C522021B9B000023
:10001000000000000000002F0000000007000700A3
:1000200000147F147F1400242A7F2A1200626408BF
:10003000132300364955225000000503000000003C
:100040001C224100000041221C000014083E08143C
:100050000008083E0808000000A06000000808082A
:100060000808000060600000002010080402003E44
:100070005149453E0000427F4000004261514946DF
:10008000002141454B31001814127F1000274545CF
:100090004539003C4A4949300001710905030036E1
:1000A0004949493600064949291E000036360000F4
:1000B00000005636000000081422410000141414F9
:1000C00014140000412214080002015109060032F4
:1000D0004959513E007C1211127C007F4949493632
:1000E000003E41414122007F4141221C007F49499D
:1000F0004941007F09090901003E4149497A007FD1
:100100000808087F0000417F4100002040413F0176
:10011000007F08142241007F40404040007F020CD5
:10012000027F007F0408107F003E4141413E007F76
:1001300009090906003E4151215E007F091929463F
:100140000046494949310001017F0101003F40401B
:10015000403F001F2040201F003F4038403F0063C9
:1001600014081463000708700807006151494543EB
:1001700000007F41410000552A552A5500004141A9
:100180007F000004020102040040404040400000A3
:1001900001020400002054545478007F484444383D
:1001A00000384444442000384444487F00385454C4
:1001B000541800087E0901020018A4A4A47C007F42
:1001C000080404780000447D4000004080847D00E5
:1001D000007F102844000000417F4000007C04188C
:1001E0000478007C0804047800384444443800FC57
:1001F000242424180018242418FC007C0804040873
:1002000000485454542000043F444020003C4040E7
:10021000207C001C2040201C003C4030403C00441E
:1002200028102844001CA0A0A07C004464544C4426
:100230001414141414140000000000000000000046
:10024000000000000000000000F8000000000000B6
:1002500000333000000000100C06100C06000000F7
:1002600000000000000040C07840C0784000043F1B
:1002700004043F040400007088FC083000000018EB
:1002800020FF211E0000F008F000E018000000210F
:100290001C031E211E0000F00888700000001E21B3
:1002A00023241927211010160E0000000000000062
:1002B000000000000000000000E018040200000040
:1002C00000071820400000020418E0000000004071
:1002D000201807000000404080F0804040000202EB
:1002E000010F01020200000000F000000000010107
:1002F000011F01010100000000000000000080B0AB
:10030000700000000000000000000000000000017C
:1003100001010101010100000000000000000030A7
:100320003000000000000000000080601804006041
:1003300018060100000000E010080810E000000F9F
:10034000102020100F00001010F800000000002006
:10035000203F20200000007008080888700000304E
:1003600028242221300000300888884830000018F6
:10037000202020110E000000C02010F8000000070F
:100380000424243F240000F8088888080800001985
:10039000212020110E0000E0108888180000000FB6
:1003A000112020110E0000380808C838080000008D
:1003B000003F000000000070880808887000001CE2
:1003C000222121221C0000E010080810E00000009B
:1003D000312222110F00000000C0C0000000000008
:1003E000003030000000000000800000000000002D
:1003F0008060000000000000804020100800000124
:1004000002040810200040404040404040000404E6
:1004100004040404040000081020408000000020B0
:10042000100804020100007048080808F0000000ED
:10043000003036010000C030C828E810E00007187E
:10044000272423140B000000C038E0000000203CEB
:1004500023020227382008F8888888700000203F8F
:10046000202020110E00C0300808080838000718A6
:1004700020202010080008F808080810E000203F9D
:10048000202020100F0008F88888E8081000203F7E
:1004900020202320180008F88888E8081000203F52
:1004A000200003000000C0300808083800000718CA
:1004B0002020221E020008F808000008F808203F4B
:1004C000210101213F20000808F808080000002051
:1004D000203F2020000000000808F8080800C08025
:1004E00080807F00000008F888C028180800203F9E
:1004F00020012638200008F8080000000000203FF6
:1005000020202020300008F8F800F8F80800203FEC
:10051000003F003F200008F830C00008F808203FE6
:10052000200007183F00E01008080810E0000F1036
:10053000202020100F0008F808080808F000203FCD
:10054000210101010000E01008080810E0000F1868
:10055000242438504F0008F8888888887000203F8D
:100560002000030C3020007088080808380000388C
:10057000202121221C00180808F808081800000093
:10058000203F2000000008F808000008F808001FBD
:10059000202020201F000878880000C838080000AC
:1005A00007380E010000F80800F80008F800033CC6
:1005B0000700073C0300081868808068180820308E
:1005C0002C03032C30200838C800C838080000006D
:1005D000203F2000000010080808C8380800203814
:1005E000262120201800000000FE02020200000068
:1005F000007F40404000000C30C0000000000000C0
:1006000000010638C00000020202FE0000000040A7
:1006100040407F00000000000402020204000000CD
:1006200000000000000000000000000000008080CA
:1006300080808080808000020204000000000000B2
:100640000000000000000000808080800000001991
:10065000242222223F2008F8008080000000003F72
:10066000112020110E000000008080800000000E8C
:10067000112020201100000000808088F800000E6A
:10068000112020103F200000808080800000001F8B
:10069000222222221300008080F0888888180020FF
:1006A000203F202000000000808080808000006BC0
:1006B00094949493600008F8008080800000203FAC
:1006C000210000203F2000809898000000000020BA
:1006D000203F20200000000000809898000000C00B
:1006E0008080807F000008F8000080808000203F2C
:1006F00024022D302000000808F80000000000202F
:10070000203F202000008080808080808000203F6B
:1007100020003F20003F8080008080800000203F3C
:10072000210000203F200000808080800000001F0A
:10073000202020201F00808000808000000080FF9B
:10074000A12020110E000000008080808000000E9B
:10075000112020A0FF8080808000808080002020E9
:100760003F21200001000000808080808000003355
:10077000242424241900008080E0808000000000F0
:10078000001F202000008080000000808000001FEB
:10079000202020103F208080800000808080000189
:1007A0000E300806010080800080008080800F30BD
:1007B0000C030C300F00008080008080800000203F
:1007C000312E0E312000808080000080808080816A
:1007D0008E701806010000808080808080000021DB
:1007E000302C2221300000000000807C020200003A
:1007F0000000003F404000000000FF00000000003B
:100800000000FF0000000002027C800000000040A9
:10081000403F000000000006010102020404000045
:1008200000000000000080808080808080808080C8
:1008300080808080808000000000000000000000B8
:10084000000000000000FF010101010101010101A0
:100850000101010101FF0000000000000000000094
:10086000000000000000CA3B90003C1BEA00900022
:100870003A1BEA107D727D6390003A0BEA309D3698
:1008800090003E1BEA3090003C0BEA209D27900030
:10089000401BEA20BE3400005803020A5590004075
:1008A0000BEA10BE140000580302097390003E0BBF
:1008B000EA00BD01485B90003E0BEA307E24000256
:1008C000120E017D237D319D3290004280337CBD2C
:1008D0007C7F1218589000420BEA30BE34000008AA
:1008E000100B7490003E0BEA209000429D321BEAF0
:1008F000300B649000400BEA209000420BEA302D50
:10090000321BEA3090003A0BEA30BD6308C0020C9B
:10091000129000400BEA307E240002120E017D236B
:1009200090003E0BEA309D329000421BEA30803648
:100930007CBD7C7F1218589000420BEA30BE340018
:100940000008100B649000400BEA209000429D329A
:100950001BEA300B7490003E0BEA209000420BEA39
:10096000302D321BEA3090003C0BEA30BD7308C0DA
:10097000020C129000400BEA306E34FFFF0B3490F3
:1009800000401BEA309000400BEA1090003E0BEA5A
:1009900000BD01485E90003E0BEA307E240002124A
:1009A0000E017D237D319D329000421BEA3080365E
:1009B0007CBD7C7F1218589000420BEA30BE340098
:1009C0000008101B7490003E0BEA209000429D32FC
:1009D0001BEA300B649000400BEA209000420BEAC7
:1009E000302D321BEA3090003A0BEA30BD6308C06C
:1009F000020C129000400BEA307E240002120E011D
:100A00007D2390003E0BEA309D329000421BEA307D
:100A100080367CBD7C7F1218589000420BEA30BEB5
:100A200034000008100B649000400BEA2090004254
:100A30009D321BEA301B7490003E0BEA209000426E
:100A40000BEA302D321BEA3090003C0BEA30BD73CC
:100A500058C0020C1290003E0BEA306E34FFFF0BC0
:100A60003490003E1BEA309000400BEA10BE1400A8
:100A7000005803020B3A90003E0BEA30BD31485853
:100A80007E240002120E017D237D319D32900042B2
:100A90001BEA3080367CBD7C7F1218589000420BD8
:100AA000EA30BE34000008100B7490003E0BEA20C0
:100AB0009000429D321BEA301B649000400BEA20FC
:100AC0009000420BEA302D321BEA3090003A0BEADC
:100AD00030BD6358C0020C129000400BEA307E24F7
:100AE0000002120E017D2390003E0BEA309D3290F1
:100AF00000421BEA3080367CBD7C7F121858900083
:100B0000420BEA30BE34000008101B649000400B1A
:100B1000EA209000429D321BEA300B7490003E0B9D
:100B2000EA209000420BEA302D321BEA3090003C64
:100B30000BEA30BD7308C0020C129000400BEA3083
:100B40006E34FFFF0B349000401BEA309000400BE6
:100B5000EA1090003E0BEA30BD3148577E24000277
:100B6000120E017D237D319D329000421BEA3080C0
:100B7000367CBD7C7F1218589000420BEA30BE34A0
:100B8000000008101B7490003E0BEA209000429D6C
:100B9000321BEA301B649000400BEA209000420BAD
:100BA000EA302D321BEA3090003A0BEA30BD635830
:100BB000C0805F9000400BEA307E240002120E01DC
:100BC0007D2390003E0BEA309D329000421BEA30BC
:100BD00080367CBD7C7F1218589000420BEA30BEF4
:100BE00034000008101B649000400BEA2090004283
:100BF0009D321BEA301B7490003E0BEA20900042AD
:100C00000BEA302D321BEA3090003C0BEA30BD730A
:100C100058C0DA3B225D22680D5D0078122D220B50
:100C20004068099F11222D000B0078F9020DED128A
:100C30000DB05C800B806808248150072CB0500AEE
:100C4000020DF52CB04003020DF27C8B5D1178266D
:100C50007CB17CA5BE1080680A5D33780DA5BD808F
:100C6000057F10020DDF6D0080307F017C5B7CB161
:100C70007CA5AD1280245D337806A5BD80F080E1AF
:100C8000CA887D41AD437CB17CA5AD122D145002C4
:100C90000B047C5BAD232F01DA88A42D05BE0080F8
:100CA00040060B80780480982F007C437C507C6148
:100CB0007C72020DC9BE24FFFF6806BE04FFFF78E8
:100CC00003020DED120DB05CB00468F57CB8A548C8
:100CD00068EF7CB870039F1122A5B80003020DF5E0
:100CE0002E008150079C803807020DF29C8050ED49
:100CF0000A51C2E74D517803020DDF7E5400807E19
:100D0000901A6C0080061B9068142F11BF104004CD
:100D10009F104CAB0330E7EECAA86CAA80E8DA3922
:100D2000DA587C4ABE5080500A1B8068BC2F115094
:100D3000020B70020DC97EA020800C7EA0108005E1
:100D40007EA0086C556D333392D5500A6E34FFFF88
:100D50006E24FFFF0B1CA5EC3340062F11D5F0F6D7
:100D6000227CBA247EA2D5137C767C65A5CC92E742
:100D70007C5B227CB5337CB43392D54E5080248189
:100D800040039F11227C457C567C676C7724E050A1
:100D90000E7E1CFFFF221E341E2450034E60800472
:100DA00078F430D50A6E34FFFF6E24FFFF0B1C224F
:100DB0002D0092D50E104E10807D422D445002B26F
:100DC000D54E50806C447CB8222C4450120B1C7EB3
:100DD00040005E507FBE18000078040B806816A2A9
:100DE000D57CB8137C4B7CB592E77C5B227E1CFFE4
:100DF000FF229F11227E24FF8020D5026C456D3397
:100E000022C2D57CB430E708B2D56E24FFFF0B2494
:100E10007CB630E712B2D56E34FFFF0B348D326EE4
:100E200024FFFF0B2480028D3230D5066E34FFFF85
:100E30000B34227D51AD037D027D21AD052D12AD18
:100E4000352D21226D0074104D00780B4D2278272E
:100E50008D317D126D22227D437D326D222F112D29
:100E6000445002A50FBF1040049F100B901478ED62
:100E70007F016D227D34227D417D138D247D022FE3
:100E8000004004BD0440049D040B141478F17D233C
:100E90007D317D106D0022CA3B7D727CD67C377C13
:100EA0002B0A0B7D305E340007780F7D501E541ED8
:100EB000541E54900065F0E480487D501E541E542A
:100EC0001E54900065F00A327E240008120E017C48
:100ED000B51BB1681714681814681914681A1468D7
:100EE0001B14681C2406781E74FE801674FC801285
:100EF00074F8800E7410800A74E0800674C080025A
:100F00007480900067F00A337D235E240007781018
:100F10007D531E541E541E54900066F07401804888
:100F20007D531E541E541E54900066F00A337E24D6
:100F30000008120E017CB51BB168171468181468FC
:100F40001914681A14681B14681C2406781E74038C
:100F5000801674078012740F800E741F800A743F0D
:100F60008006747F800274FF900068F07CBD900062
:100F7000657EEB70121ADC900067E07E7001121A39
:100F8000B17D373E343E343E34121B927CBD90001E
:100F9000657EEBA00A3A0B34121ADC900065E00A79
:100FA0003B0B347CC7801B7D373E343E343E3412CD
:100FB0001B927CBD7C7C121ADCE47E7001121AB19B
:100FC0000BC09000667EEB70BCC740DB7CBD121A84
:100FD000DC7D373E343E343E34121B92900068E094
:100FE0007E7001121AB1DA3B22CA3B7D727C367CDC
:100FF000277CDB0A077D305E34000778107D501EA9
:10100000541E541E54900061F074FF80487D501EA1
:10101000541E541E54900061F00A327E24000812BF
:101020000E017CB51BB16817146818146819146890
:101030001A14681B14681C2406781E74FE8016742B
:10104000FC801274F8800E7410800A74E0800674BC
:10105000C080027480900063F00A337D235E240018
:101060000778107D531E541E541E54900062F07475
:101070000180487D531E541E541E54900062F00A95
:10108000337E240008120E017CB51BB1681714686A
:101090001814681914681A14681B14681C2406783C
:1010A0001E7403801674078012740F800E741F80E4
:1010B0000A743F8006747F800274FF900064F07CA5
:1010C000BD9000617EEB70121ADC900063E07E70D0
:1010D00001121AB17D37121B927CBD9000617EEB2C
:1010E000A00A3A0B34121ADC900061E00A3B0B3480
:1010F0007CC780167D37121B927CBD7C7C121ADC6B
:1011000074FF7E7001121AB10BC09000627EEB700A
:10111000BCC740E07CBD121ADC7D37121B929000E8
:1011200064E07E7001121AB1DA3B22CA3B7D727C08
:10113000D67C377C2B0A0B7D305E340007780E7D21
:10114000301E341E341E347CC774FF80441E041EBF
:10115000041E047CC10A327E240008120E017CB5F4
:101160001BB1681714681814681914681A14681BDE
:1011700014681C2406781E74FE801674FC80127499
:10118000F8800E7410800A74E0800674C0800274C7
:101190008090006AF00A337D235E24000778107D7A
:1011A000531E541E541E54900069F0740180487DF3
:1011B000531E541E541E54900069F00A337E2400BE
:1011C00008120E017CB51BB1681714681814681951
:1011D00014681A14681B14681C2406781E74038093
:1011E0001674078012740F800E741F800A743F807B
:1011F00006747F800274FF90006BF07CBD900069E4
:101200007EEB70121ADC90006BE07E7001121AB156
:101210007D37121B927CBD0A3C0B34121ADC900005
:1012200069E00A5B1B5490006CF0801E7D37121B36
:10123000927CBD90006C7EEB70121ADC74FF7E70A5
:1012400001121AB190006CE014F090006CE0BCBC8C
:1012500038DA7CBD7C7C121ADC7D37121B92900040
:101260006AE07E7001121AB1DA3B22CA3B90004755
:101270007AEB509000467AEB607F309000457AEB35
:1012800070900044F0E490004AF090004BF0900021
:1012900047E0B40806740290004AF0E4900048F079
:1012A00002135A740A9000487EEBA00A2A90004666
:1012B0007EEBA00A3A9D321B34121B237F017F1361
:1012C000120E467E14000A120E447CB3900049F0C0
:1012D00090004BE07045900046E00A0B1B04900024
:1012E00048E00A1BBD105833900049E07027900079
:1012F000477EEB500A351E3490004AE00A0B2D035E
:10130000AD10900044E00A5B2D519000457EEB70DB
:101310007E6020803C740190004BF09000477EEB93
:10132000500A151E1490004AE00A0B2D0190004847
:10133000E00A1BAD10900044E00A5B2D519000457F
:101340007EEB709000497EEB600A162E1400307C14
:101350006312136E900048E004F09000467EEBA00C
:10136000900048E0BCBA50030212A3DA3B22CA3B09
:101370007CF57C367CE77CDB0A257D321E347CB72D
:10138000900054F06D009000551BEA00BEF0087804
:101390000C7E0400069000571BEA0080207D021E90
:1013A000041E041E045E24000768067E24000180DB
:1013B000026D222D20AD329000571BEA300A339E79
:1013C0003400207CC77CBD7C7E121ADC6D3390001B
:1013D000558064900054E00A3B9000550BEA208D44
:1013E000234D22780EBEF00868097CBD7C7E0BE0A0
:1013F000121ADCBEF00878137E7006AC7C900055A3
:101400000BEA202D322E34000E8016BEF010783AF2
:101410007E7010AC7C9000550BEA202D322E3402E9
:10142000367A71827A6183E4937E7001121AB190E8
:1014300000550BEA300B341BEA309000570BEA20C2
:101440009000550BEA30BD324089DA3B22CA3B7C22
:10145000F77CEB7CB61EB064FF04900073F06CDD8B
:101460007CC60215140A4D0A5E2D541B540A2C0A20
:101470003F2D321B341218580A4C0A5E2D541B544F
:101480000A2D0A3F2D321B341218580A4D0A5E9D50
:10149000540A2C0A3F2D321B341218580A4C0A5E8B
:1014A0009D540A2D0A3F2D321B341218580A4D0A3A
:1014B0005E9D540A2C0A3F9D321218580A4C0A5E4F
:1014C0009D540A2D0A3F9D321218580A4D0A5E2D6E
:1014D000541B540A2C0A3F9D321218580A4C0A5EBB
:1014E0002D541B540A2D0A3F9D321218580BD090D0
:1014F00000737EEBA0BEA000500A9000737CBA2C53
:10150000BDF080101BC00A2C0A3D9D327CB79000B4
:10151000732CBAF0BCCD4003021465DA3B22C2C280
:101520007E3400C8121B92D2C274AE6C77121AB10C
:10153000E46C77121AB174106C77121AB174406CA3
:1015400077121AB174816C77121AB174CF6C77125A
:101550001AB174A16C77121AB174C86C77121AB1EF
:1015600074A66C77121AB174A86C77121AB1743F12
:101570006C77121AB174D36C77121AB1E46C7712CB
:101580001AB174D56C77121AB174806C77121AB1D3
:1015900074D96C77121AB174F16C77121AB174DACB
:1015A0006C77121AB174126C77121AB174DB6C7703
:1015B000121AB174406C77121AB174206C77121A37
:1015C000B174026C77121AB1748D6C77121AB174FF
:1015D000146C77121AB174A46C77121AB174A66CD9
:1015E00077121AB1121A4F74AF6C77021AB1CA3B54
:1015F0007F3090004F7AEB5090004E7AEB60900075
:101600004D7AEB7090004CF06D339000501BEA3037
:1016100090004FE00A5B7D455E44000768067E440B
:10162000000180026D441E541E541E542D5490001F
:101630004FF0E4900052F0805990004CE090004D43
:101640007EEBA00A2A9000527EEBA00A3A2D3212BD
:101650001ADCE4900053F080259000500BEA307DB6
:10166000230B241BEA203E343E342D377D2669515E
:1016700000027E7001121AB1900053E004F0900055
:101680004E7EEBA0900053E0BCBA40CD900052E0FB
:1016900004F090004F7EEBA0900052E0BCBA40995D
:1016A000DA3B22CA3B7D727CD67C577CCB0A377DE5
:1016B000135E14000778107D531E541E541E549060
:1016C000006DF0740180487D531E541E541E5490CA
:1016D000006DF00A357E240008120E017CB51BB1A6
:1016E000681714681814681914681A14681B1468A9
:1016F0001C2406781E7402801674048012740880FC
:101700000E7410800A7420800674408002748090E9
:10171000006EF07CBC90006D7EEB70121ADC8011C4
:101720007D37121B9290006EE07E7001121AB10B91
:10173000C00A2D0B240A3CBD3248E5DA3B22CA3BE5
:101740007CF57CE67CD77CCB0A357D131E141E14F9
:101750001E147D235E24000768067E24000180029B
:101760006D222D21AD3290005F1BEA306D33900069
:101770005D80430A3F90005D0BEA208D234D227867
:10178000097CBC7C7D0BD0121ADCBEF010783A7E4E
:101790007020AC7E90005D0BEA202D322E3408269E
:1017A0007A71827A6183E4937E7001121AB190009B
:1017B0005D0BEA300B341BEA3090005F0BEA20909F
:1017C000005D0BEA30BD3240AADA3B22A9D7BA75D8
:1017D000EA0075E9007594007593007592007591A3
:1017E0000075960075950075B20075B10075B41F4F
:1017F00075B30075CA0075C90075CC0075CB00754E
:10180000E20075E10012151E121B676D339000385F
:101810001BEA301219B3900034793E00021BEA2013
:10182000120D737CB7121B9E1A3B9000001BEA300E
:101830009000380BEA50121858121B779000380BA2
:10184000EA300B341BEA309000380BEA30BE34002B
:101850008040C0121A4F80B3CA797C577C3B0A374C
:101860007D035E040007780F7D731E741E741E7462
:101870007CEF7EF001804B1E341E341E347CE70A60
:10188000357E240008120E017CB51BB1681814685F
:101890001A14681C14681E14682014682224067820
:1018A000217EF002801C7EF00480177EF0088012FA
:1018B0007EF010800D7EF02080087EF04080037E58
:1018C000F0807CB37C7E121ADC7CBF7E7001121A21
:1018D000B1DA7922CA3B90005B7AEB607F309000EE
:1018E0005A7AEB70900059F0E490005CF0804D90D3
:1018F0000059E090005A7EEB7090005C7EEB607CBB
:10190000A60BA07AEBA00A267F032D127E0B609017
:10191000005B7EEB5012136E90005B7EEBA0BEA0CE
:10192000087809900059E02406F080100A3A7E24D5
:101930000002120E01900059E02CB7F090005CE01C
:101940000A3B2D377D267E1BB070A4DA3B22CA3BB2
:101950007D717CD57CC69000707AEB7090006FF042
:1019600090006FE00A361B349000707EEB607D21A2
:101970001216A3900070E07C7D7C6C7D273E243E97
:10198000243E24120FE990006FE00A5B0B540A3CDE
:101990001B347C6D7D271216A3900070E07C7D9037
:1019A000006F7EEB607D273E243E243E2412112BE7
:1019B000DA3B2212000330C6FDD28C20C6FDC28C59
:1019C000E58C0A2B7E340100AD32E58A0A2B2D32DC
:1019D0009000711BEA30758C00758A009000710BC5
:1019E000EA20E4120D3B7E14999A7E043FD9120C32
:1019F000156D117E0442C8120CB5A200E433B40187
:101A000004C2009F11227584017E44041FE47A49B8
:101A1000B01B4478F97EF80020C2007E0400FF7EEF
:101A2000141B9F0B0A405D446822295000020A25BE
:101A3000693000032E0800050B44800A7E0BB07A43
:101A40001BB00B1C0B0C1B4478F280D70217CCCABE
:101A5000796CFF0A5F2E5400B06C77121AB1E46CF7
:101A600077121AB174106C77121AB16CEEE47E70B2
:101A700001121AB10BE0BEE08078F20BF0BEF00864
:101A800040D1DA7922CAF87CFB4CFB780E74C86C22
:101A900077121AB174A16C77121AB1BEF001780EE8
:101AA00074C06C77121AB174A06C77121AB1DAF89C
:101AB000227CAB4C776804D2C38002C2C3C2C47E0E
:101AC0007008C2C07CBA30E704D2C18002C2C1D261
:101AD000C03EA01B7078EBD2C4D2C322CAF87CFBF4
:101AE0000A572E5400B06C77121AB17CBF54F0C460
:101AF000540F44106C77121AB17CBF540F6C7712DC
:101B00001AB1DAF822CAF87CFB4CFB780774A66C91
:101B100077121AB1BEF001780774A76C77121AB168
:101B2000DAF8227C977C8B7E18000180070A186DFA
:101B300000120E337CA91B904CAA78F122748D6C94
:101B400077121AB174146C77121AB174AF6C7702F1
:101B50001AB1748D6C77121AB174106C77121AB1B5
:101B600074AE6C77021AB1758901758A00758C00A4
:101B7000C28DC28CD2AF2200007E3449EE7E24009A
:101B8000021B1C78FC220000007E18003A1B1C7807
:101B9000FC227D231B344D2278F822D20032220011
:101BA00002010000000000040100340000000000F9
:081BB0000201007100000000B9
:00000001FF
