:10000000020085CAF87E34FEB27E24007E7E1BB0DC
:1000100044017A1BB07E1BB044047A1BB0E47E34EA
:10002000FEB17A1BB07E14FECC7E04007E7A0BB04B
:100030007E34FECD7A1BB07EF0217E54FEC87E4415
:10004000007E7A2BF07E54FEC97A2BF074557A0B21
:10005000B07A1BB074037E34FEC27A1BB07E34FECD
:10006000D27A1BB074E87E34FED37A1BB074827EE1
:1000700034FEC47A1BB07E34FEC07E1BB044817A4D
:100080001BB0DAF8227584017E44041FE47A49B07B
:100090001B4478F97EF8000702099D759850438E3D
:1000A00001538EFB75D7E675D6FF438E10227AB1C9
:1000B000993099FDC29922CAF81200AEDAF82228C6
:0700C00030290025640A004D
:1000D300020A010202E36E00807CB1337CB0336814
:1000E3000D0468EF7CB5337CB43378037F102204AE
:1000F30068E17D5092F77D457D51BF2140067C80AC
:100103007F017F121202A67EA1D05CB00478032087
:10011300D5C17CB00478075002B2D50202EB92D568
:10012300BE80FF68F67CB89CB06C00602AB41805EA
:100133007C410202BF50FB80032F00047C9B5E9036
:100143000778F630E4067C437D106D0030E3087CCD
:10015300437C327C210A0030F5199F10780E22026D
:1001630002E81B8068F92F1150020B707CB530E751
:10017300F1801B2D317CB5A5397C5B50110B807848
:10018300030202EB1E341350034E60801A2B02024B
:10019300BF5D22680D5D0078122D220B4068099F18
:1001A30011222D000B0078F90202E31202A65C80F3
:1001B3000B806808248150072CB0500A0202EB2CF4
:1001C300B040030202E87C8B5D1178267CB17CA5EC
:1001D300BE1080680A5D33780DA5BD80057F1002CF
:1001E30002D56D0080307F017C5B7CB17CA5AD12B4
:1001F30080245D337806A5BD80F080E1CA887D4107
:10020300AD437CB17CA5AD122D1450020B047C5B75
:10021300AD232F01DA88A42D05BE008040060B8094
:10022300780480982F007C437C507C617C720202AE
:10023300BF74F86CAA6E40806E0080BEB0FF682762
:100243007C837C975C3B5C7BBF10682AF4400D7C0D
:10025300382D15F45C3B500F0B04800B7C792D3546
:10026300F45C7B50020B24BF10680B7CB020E706C4
:100273007CB420E701B3227F507EC400017ED4000A
:10028300287E94028B0203244001227CEACA89CA95
:100293005BCA6B1200B7DA6BDA5BDA897E94028B86
:1002A3007CAE222D0092D50E104E10807D422D443F
:1002B3005002B2D54E50806C447CB8222C4450126C
:1002C3000B1C7E40005E507FBE18000078040B803C
:1002D3006816A2D57CB8137C4B7CB592E77C5B2275
:1002E3007E1CFFFF229F11227E24FF8020D5026CFB
:1002F300456D3322540F2490D43440D430F30CBED4
:10030300B0414007BEB05B500224204CCC68021BB6
:10031300C00B84D389944CCC680B742012030E80D9
:10032300F5CA3B6D889F337CAE7E5BB00B5C700778
:10033300C37D38DA3B8994B42569C2F37E5BB00B85
:100343005CA5F824D0BEB00A501B7E500A20F60DDF
:10035300AC5CA52D7CCB70034EF00180DDAC5DA5BC
:100363002D7CDB80D524CFBEB01AA5E850055E00F6
:10037300DFD2F39006F9A3E4936011BCB078F7746D
:1003830017934CAB30F6B34EF08080AEA3E493608A
:1003930010BCB078F77416937C3B7423937C2B8941
:1003A300147CB08013742012030E20F205BEC00229
:1003B30050F31B6D29B6000112030E0203191B6EC5
:1003C300691600020B6A00BE08000078087E04006C
:1003D300FF7E1400BF20F21E4CCC681A7F10E47E0F
:1003E3001B804C8868070B1C04BCBD78F2C2F6CA9C
:1003F3000B1204F8DA0B7E0BB060C0CA0B12030EAB
:10040300DA0B0B0C4CDD68EE1BD078EA80ADD2F032
:100413007E101080037E10085EB05F800AD2F67EE5
:10042300100A80057E100AC2F66D119F117E00200E
:100433001B6C7E6B7030F6021A3720F1051B6C7E45
:100443006B6030F6041A261A2430F0051B6D0B6A14
:1004530020A5EC3382F692F6500A7CEA9F229F2174
:100463007F127CAE4C44780F7C457C567C676C775E
:100473002E00F878EF80122F117CB3337C3B9CB1B4
:1004830040047C3B0B70A5D8EE7CB230E005DAB8B3
:10049300C44C3BCA380B207E00207E3000BE1800BF
:1004A3000078C1BE1008780730F404C2F480B5CADE
:1004B300287CB2BCBD38027CBD1204F8DA28BC2DFE
:1004C300500A1BD0E4CA281202F780F07CB213DA78
:1004D300B84004C4CAB8C4CA28BEF08040095CDD71
:1004E3007805A5DA0260065EF07F1202F7DA28A526
:1004F300DADA020319BEF001680F30F40224022095
:10050300F50620F70330F6010420F229BCBC502580
:10051300CAB87CBF13B0E67420501174307C8A5E75
:1005230080F068081205385EA00F800312030EDA0C
:10053300B8BCBC78DB30F40F743012030E7458303F
:10054300F302747812030E30F605742D02030E7451
:100553002B20F5F8742020F7F3221B6C7E6BB01070
:10056300F1021B6C20F60B30E704F404D2F27CCBCF
:10057300800520E7057CDB02033D5EF07F80F81BEE
:100583006E691600020B6A0030F0076D221B0A2009
:100593000B0D1B0A80020328E46C22BE3007500BAC
:1005A3007F1F2D312E34FFF77E39B0227CBF20E729
:1005B300A8742E4EF08002030E1206E2403D7CBD6D
:1005C3007003047CDB1207F97C3D4C3368101B304D
:1005D3007CBE20E40912059B70044C3378F07CBD8B
:1005E3007CD3BEA0FD481CBCAB5818E49CBA2CB30A
:1005F3001801E47CDB0206831206E2406E7CBD0434
:100603001207F97AFBA07CAE7CBDA2F492F0C2F48F
:10061300400260010424051204F87E30FF0B3012FF
:10062300059BCA381202F720F0044CDD680312055B
:10063300AFDA38BC3D78E6740E1202F7742B7EFBFA
:10064300A030F707742D6EA0FF0BA07AFBA0120356
:100653000E7EA00A7EFBB0847AFBA01202F77EFB1B
:10066300B01202F79EF80008020319D2F27ED000FE
:100673000203D81206E240F37CBA2CBD041207F938
:100683007AFBA07CBA7CAE30E701E40420F4044C8E
:10069300DD6805D2F0C2F4042CBD1204F86C337E7D
:1006A300FBB0601B20E712147AFBB012059BCA381B
:1006B3001202F7DA380B3080E6047AFBB01B3012F3
:1006C300059BCA381202F74CDD68071205AF1BD031
:1006D30080E19EF8000930F0031205AF0203197C94
:1006E300EA7CAF10F7037ED0067CFA1B6E693600F6
:1006F300020B6A200207412D2B204C4248232E0077
:1007030053584F44494355502A4E46454700042009
:10071300800102001040C113182020AD27115D8213
:1007230076FBBC0304040404030404050506050561
:100733004E614E002B494E46002D494E46007D52D8
:100743002D557CBE92E67CEB7CBA601F0470287C3E
:10075300B5C2E77E0400FF60067E140733D3227E12
:1007630014073C40047E140737D322DA099F22CAB8
:100773002BCA2BC3CA09220A0A7E144D10AD109E40
:10078300083AF09E10267CB5C2E77EA0567C9BA457
:100793006E54FFFF2E54C511ACA92D15E4A539CA1B
:1007A300B8CA1B20E70A1208EDDA1B12083C800ABC
:1007B300F4041208EDDA1B120194DAA87CB5337C39
:1007C300B4334E50806C4424822F111478FBDA49E1
:1007D3007407BE400A40099E400ACA0201140BA0D6
:1007E300CA486C442F117F012F112F112F10147839
:1007F300EFCA48CA49227F0F20E73ABEB00740023A
:1008030074070A0B2D109E1400097E19B02EB0FB3D
:10081300501F4C116817E47A19B01B147E19B004E9
:100823007A19B0B40A0BE47A19B0A5D9ED0BA07408
:10083300017A19B0225EE0BF22BE24FFFF6806BE24
:1008430004FFFF78030202E31202A65CB00468F51A
:100853007CB8A54868EF7CB870039F1122A5B80047
:10086300030202EB2E008150079C8038070202E846
:100873009C8050ED0A51C2E74D5178030202D57EA8
:100883005400807E901A6C0080061B9068142F1110
:10089300BF1040049F104CAB0330E7EECAA86CAA0C
:1008A30080E8DA39DA587C4ABE5080500A1B8068E7
:1008B300BC2F1150020B700202BF3F800000412089
:1008C300000042C80000447A0000461C400047C3B1
:1008D3005000497424004B1896804CBEBC205A0E1D
:1008E3001BCA6753C21C749DC5AE7C7B600654074C
:1008F300681623231209127CB75438680A7F101232
:10090300090F1201947F01227CB7543803241C6C15
:10091300AA2E5408BD7E4400FF0B2A006912000270
:10092300227F617F107F061200D97F5190003469C6
:10093300DE00020BEAC06D337E2440007F06120105
:10094300947F017F151200D9900038691E00020BB5
:10095300EA001200DC7E1474BC7E043C1312019482
:100963007F717F167F051200D97E14D70A7E043D5E
:10097300231201947F071200DC7F716DDD7EC44476
:100983007A7F0612023428027F769F667F179F00C4
:1009930012023450027F767F1722A9D7BA75EA0074
:1009A30075E9007593007594007591007592FF7554
:1009B300950075960075B10075B20075B30075B4F6
:1009C3000075C90075CA0075CB0075CC0075E100D0
:1009D30075E200D2AF12000312009B7E34006490D4
:1009E300002A1BEA309000320BEA309000261BEA03
:1009F300307E1400C37E0400FF12027A80E7CAB877
:100A0300CA1BCA0BC0D1C083C0827E34FEC57E24FC
:100A1300007E7E1BB030E13C7E14FED57E04007E5A
:100A23007E0BB0900030F07E14FED67E0BB09000AB
:100A330031F07E1BB054FD7A1BB0900030E00A2BDE
:100A43007E340100AD32900031E00A2B2D3290004C
:100A5300321BEA30D082D083D0D1DA0BDA1BDAB87A
:010A63003260
:00000001FF
