:100000000200FCCAF8E47E34FED07E24007E7A1B17
:10001000B0740B7E34FED17A1BB0E47E14FECC7E2D
:1000200004007E7A0BB07E34FECD7A1BB07EF06881
:100030007E54FEC87E44007E7A2BF07E54FEC97A40
:100040002BF07E54FECA7A2BF07E54FECB7A2BF036
:1000500074557A0BB07A1BB0E47E14FEEC7A0BB0C8
:100060007E34FEED7A1BB07EF0707E54FEE87A2B73
:10007000F07E54FEE97A2BF07E54FEEA7A2BF07E75
:1000800054FEEB7A2BF074117A0BB07A1BB074012A
:100090007E34FED27A1BB074F47E34FED37A1BB069
:1000A000E47E34FEF27A1BB074647E34FEF37A1B75
:1000B000B07E34FEB17E1BB044017A1BB07E1BB013
:1000C00044027A1BB07E34FEB27E1BB044017A1B20
:1000D000B074807E34FEDD7A1BB07E34FEFD7A1B68
:1000E000B07E34FEC07E1BB044817A1BB07E34FEED
:1000F000E07E1BB044817A1BB0DAF8227584017E61
:1001000044041FE47A49B01B4478F97EF800077E66
:100110000400FF7E1401640B0A405D4468222950EC
:1001200000020A25693000032E0800050B44800AEE
:100130007E0BB07A1BB00B1C0B0C1B4478F280D7E3
:1001400002015C9000000BEA107E34FED57E240094
:100150007E7A1B207E34FED67A1B302212000312D8
:0D016000014380FE00020100000064000069
:00000001FF
