:1000000002085F8AFF1C8F00000000000000000053
:100010002F000000000700070000147F147F140069
:10002000242A7F2A120062640813230036495522CD
:100030005000000503000000001C224100000041A8
:10004000221C000014083E08140008083E0808009E
:100050000000A060000008080808080000606000B8
:1000600000002010080402003E5149453E000042B5
:100070007F4000004261514946002141454B31001B
:100080001814127F10002745454539003C4A49495C
:100090003000017109050300364949493600064917
:1000A00049291E00003636000000005636000000C8
:1000B00008142241000014141414140000412214E6
:1000C0000800020151090600324959513E007C12D4
:1000D00011127C007F49494936003E4141412200CE
:1000E0007F4141221C007F49494941007F0909099C
:1000F00001003E4149497A007F0808087F0000411D
:100100007F4100002040413F01007F081422410050
:100110007F40404040007F020C027F007F040810B7
:100120007F003E4141413E007F09090906003E41F2
:1001300051215E007F09192946004649494931008D
:1001400001017F0101003F4040403F001F2040204F
:100150001F003F4038403F00631408146300070845
:1001600070080700615149454300007F414100008C
:10017000552A552A55000041417F00000402010222
:1001800004004040404040000001020400002054B0
:10019000545478007F484444380038444444200094
:1001A000384444487F00385454541800087E0901EC
:1001B000020018A4A4A47C007F0804047800004472
:1001C0007D4000004080847D00007F1028440000B6
:1001D00000417F4000007C04180478007C0804047F
:1001E0007800384444443800FC242424180018249F
:1001F0002418FC007C0804040800485454542000CF
:10020000043F444020003C4040207C001C20402013
:100210001C003C4030403C004428102844001CA0F6
:10022000A0A07C004464544C44141414141414000E
:1002300000000000000000000000000000000000BE
:100240000000F80000000000000033300000000053
:10025000100C06100C06000000000000000000401A
:10026000C07840C0784000043F04043F040400000C
:100270007088FC08300000001820FF211E0000F0EC
:1002800008F000E018000000211C031E211E0000E1
:10029000F00888700000001E212324192721101067
:1002A000160E00000000000000000000000000002A
:1002B0000000E018040200000000071820400000C1
:1002C000020418E000000000402018070000004071
:1002D0004080F0804040000202010F010202000055
:1002E0000000F0000000000101011F0101010000F9
:1002F0000000000000000080B0700000000000005E
:1003000000000000000000000101010101010100E6
:10031000000000000000000030300000000000007D
:100320000000008060180400601806010000000052
:10033000E010080810E000000F102020100F00004F
:100340001010F8000000000020203F2020000000D6
:10035000700808088870000030282422213000002E
:10036000300888884830000018202020110E000036
:1003700000C02010F8000000070424243F240000DF
:10038000F80888880808000019212020110E0000B4
:10039000E0108888180000000F112020110E0000C6
:1003A000380808C83808000000003F0000000000BE
:1003B00070880808887000001C222121221C00007F
:1003C000E010080810E0000000312222110F0000A8
:1003D0000000C0C00000000000003030000000003D
:1003E00000008000000000000080600000000000AD
:1003F0000080402010080000010204081020004086
:100400004040404040400004040404040404000050
:1004100008102040800000002010080402010000A5
:100420007048080808F0000000003036010000C0E5
:1004300030C828E810E0000718272423140B000018
:1004400000C038E0000000203C23020227382008CA
:10045000F8888888700000203F202020110E00C0FE
:100460003008080808380007182020201008000865
:10047000F808080810E000203F202020100F000896
:10048000F88888E8081000203F2020232018000862
:10049000F88888E8081000203F200003000000C012
:1004A0003008080838000007182020221E02000823
:1004B000F808000008F808203F210101213F200032
:1004C0000808F8080800000020203F202000000055
:1004D000000808F8080800C08080807F000000083D
:1004E000F888C028180800203F200126382000087E
:1004F000F8080000000000203F20202020300008E5
:10050000F8F800F8F80800203F003F003F200008FE
:10051000F830C00008F808203F200007183F00E02E
:100520001008080810E0000F10202020100F00080D
:10053000F808080808F000203F210101010000E050
:100540001008080810E0000F18242438504F000845
:10055000F8888888887000203F2000030C30200035
:10056000708808080838000038202121221C001853
:100570000808F8080818000000203F2000000008C4
:10058000F808000008F808001F202020201F00089D
:1005900078880000C83808000007380E010000F80D
:1005A0000800F80008F800033C0700073C030008B7
:1005B0001868808068180820302C03032C3020082D
:1005C00038C800C83808000000203F200000001094
:1005D000080808C838080020382621202018000004
:1005E0000000FE020202000000007F4040400000C8
:1005F0000C30C000000000000000010638C0000000
:10060000020202FE000000004040407F00000000A7
:1006100000040202020400000000000000000000CC
:1006200000000000000000808080808080808000CA
:1006300002020400000000000000000000000000B2
:10064000008080808000000019242222223F2008A0
:10065000F8008080000000003F112020110E0000F3
:1006600000008080800000000E112020201100007A
:100670000000808088F800000E112020103F20002C
:1006800000808080800000001F22222222130000B0
:100690008080F0888888180020203F2020000000FB
:1006A00000808080808000006B94949493600008A8
:1006B000F8008080800000203F210000203F2000C3
:1006C000809898000000000020203F2020000000BB
:1006D0000000809898000000C08080807F000008A3
:1006E000F8000080808000203F24022D3020000090
:1006F0000808F8000000000020203F2020000080B3
:1007000080808080808000203F20003F20003F804C
:1007100080008080800000203F210000203F2000DA
:1007200000808080800000001F202020201F00808B
:100730008000808000000080FFA12020110E0000BA
:1007400000008080808000000E112020A0FF8080AB
:100750008080008080800020203F21200001000058
:10076000008080808080000033242424241900002D
:100770008080E0808000000000001F2020000080BA
:1007800080000000808000001F202020103F20807B
:100790008080000080808000010E3008060100800B
:1007A000800080008080800F300C030C300F000030
:1007B000808000808080000020312E0E312000805B
:1007C0008080000080808080818E7018060100008B
:1007D000808080808080000021302C222130000029
:1007E000000000807C020200000000003F4040004A
:1007F000000000FF00000000000000FF00000000FB
:1008000002027C800000000040403F000000000029
:100810000601010202040400000000000000008044
:100820008080808080808080808080808080800048
:10083000000000000000000000000000000000FFB9
:100840000101010101010101010101010101FF009B
:100850000000000000000000000000000000007523
:1008600084017E44041FE47A49B01B4478F97EF881
:100870000020C2007E0400FF7E141D8F0B0A405D25
:10088000446822295000020A25693000032E08001E
:10089000050B44800A7E0BB07A1BB00B1C0B0C1BA3
:1008A0004478F280D78AFF1BC67D231B344D227803
:1008B000F8AACAF87CFB4CFB780874A66C779AFF00
:1008C0000902BEF001780874A76C779AFF0902DA72
:1008D000F8AACAF87CFB4CFB781074C86C779AFFB6
:1008E000090274A16C779AFF0902BEF001781074B6
:1008F000C06C779AFF090274A06C779AFF0902DA3C
:10090000F8AA7CAB4C776804D2C38002C2C3C2C4CD
:100910007E7008C2C07CBA30E704D2C18002C2C176
:10092000D2C03EA01B7078EBD2C4D2C3AACAF87C56
:10093000FB0A572E5400B06C779AFF09027CBF5413
:10094000F0C4540F44106C779AFF09027CBF540F17
:100950006C779AFF0902DAF8AA748D6C779AFF090E
:100960000274146C779AFF090274AF6C778AFF09DE
:1009700002748D6C779AFF090274106C779AFF09E4
:100980000274AE6C778AFF0902CA796CFF0A5F2E87
:100990005400B06C779AFF0902E46C779AFF090261
:1009A00074106C779AFF09026CEEE47E70019AFF76
:1009B00009020BE0BEE08078F10BF0BEF00840CDFC
:1009C000DA79AACA3B7CF57C367CE77CDB0A257D9C
:1009D000321E347CB790002FF06D009000301BEA7F
:1009E00000BEF008780C7E0400069000321BEA007E
:1009F00080207D021E041E041E045E24000768067B
:100A00007E24000180026D222D20AD329000321B29
:100A1000EA300A339E3400207CC77CBD7C7E9AFF7E
:100A2000092D6D33900030806590002FE00A3B90D7
:100A300000300BEA208D234D22780FBEF008680AA3
:100A40007CBD7C7E0BE09AFF092DBEF00878137EFA
:100A50007006AC7C9000300BEA202D322E3400075B
:100A60008016BEF010783A7E7010AC7C9000300B8F
:100A7000EA202D322E34022F7E2400FF7E1BB07E12
:100A800070019AFF09029000300BEA300B341BEA28
:100A9000309000320BEA209000300BEA30BD32403B
:100AA00088DA3BAA7C977C8B7E18000180080A18A4
:100AB0006D009AFF1D067CA91B904CAA78F0AACA6B
:100AC0003B90001B7AEB5090001A7AEB607F3090DD
:100AD00000197AEB70900018F0E490001EF090007E
:100AE0001FF090001BE0B40806740290001EF0E4B2
:100AF00090001CF0020BB2740A90001C7EEBA00A5E
:100B00002A90001A7EEBA00A3A9D321B349AFF0A03
:100B1000A47F017F139AFF1D197E14000A9AFF1DFE
:100B2000177CB390001DF090001FE0704590001AF4
:100B3000E00A0B1B0490001CE00A1BBD1058339008
:100B4000001DE0702790001B7EEB500A351E34908C
:100B5000001EE00A0B2D03AD10900018E00A5B2D7B
:100B6000519000197EEB707E6020803C74019000F3
:100B70001FF090001B7EEB500A151E1490001EE023
:100B80000A0B2D0190001CE00A1BAD10900018E02C
:100B90000A5B2D519000197EEB7090001D7EEB607A
:100BA0000A162E1400307C639AFF09C390001CE0E3
:100BB00004F090001A7EEBA090001CE0BCBA500339
:100BC000020AF7DA3BAACA3B9000367AEB607F3024
:100BD0009000357AEB70900034F0E4900037F080AC
:100BE0004F900034E09000357EEB709000377EEB44
:100BF000607CA60BA07AEBA00A267F032D127E0B49
:100C0000609000367EEB509AFF09C39000367EEB71
:100C1000A0BEA0087809900034E02406F080110AF4
:100C20003A7E2400029AFF1CD4900034E02CB7F0E6
:100C3000900037E00A3B2D377D267E1BB070A2DA8C
:100C40003BAACA3B7CF57CE67CD77CCB0A357D137E
:100C50001E141E141E147D235E24000768067E24C5
:100C6000000180026D222D21AD3290003A1BEA3046
:100C70006D3390003880440A3F9000380BEA208D95
:100C8000234D22780A7CBC7C7D0BD09AFF092DBEB7
:100C9000F010783A7E7020AC7E9000380BEA202D60
:100CA000322E34081F7E2400FF7E1BB07E70019A16
:100CB000FF09029000380BEA300B341BEA30900039
:100CC0003A0BEA209000380BEA30BD3240A9DA3BFB
:100CD000AACA3B7F309000237AEB509000227AEB37
:100CE000609000217AEB70900020F06D339000242A
:100CF0001BEA30900023E00A5B7D455E44000768F4
:100D0000067E44000180026D441E541E541E542D64
:100D100054900023F0E4900026F0805B900020E0E7
:100D20009000217EEBA00A2A9000267EEBA00A3AD2
:100D30002D329AFF092DE4900027F08026900024A0
:100D40000BEA307D230B241BEA203E343E342D3742
:100D50007D26695100027E70019AFF0902900027EA
:100D6000E004F09000227EEBA0900027E0BCBA40A7
:100D7000CC900026E004F09000237EEBA0900026AB
:100D8000E0BCBA4097DA3BAACA3B7D727CD67C575E
:100D90007CCB0A377D135E14000778107D531E54F8
:100DA0001E541E5490002BF0740180497D531E5434
:100DB0001E541E5490002BF00A357E2400089AFF22
:100DC0001CD47CB51BB16817146818146819146812
:100DD0001A14681B14681C2406781E74028016748A
:100DE0000480127408800E7410800A7420800674C7
:100DF000408002748090002CF07CBC90002B7EEB35
:100E0000709AFF092D80137D379AFF08A990002C56
:100E1000E07E70019AFF09020BC00A2D0B240A3CE8
:100E2000BD3248E3DA3BAACA3B7D727C367C277C24
:100E3000DB0A077D305E34000778107D501E541E9B
:100E4000541E5490002BF074FF80497D501E541E98
:100E5000541E5490002BF00A327E2400089AFF1C86
:100E6000D47CB51BB1681714681814681914681A73
:100E700014681B14681C2406781E74FE801674FC0B
:100E8000801274F8800E7410800A74E0800674C0BA
:100E90008002748090002DF00A337D235E240007C9
:100EA00078107D531E541E541E5490002CF0740173
:100EB00080497D531E541E541E5490002CF00A335A
:100EC0007E2400089AFF1CD47CB51BB168171468F7
:100ED0001814681914681A14681B14681C240678FE
:100EE0001E7403801674078012740F800E741F80A6
:100EF0000A743F8006747F800274FF90002EF07C9D
:100F0000BD90002B7EEB709AFF092D90002DE07EA6
:100F100070019AFF09027D379AFF08A97CBD9000F5
:100F20002B7EEBA00A3A0B349AFF092D90002BE0A0
:100F30000A3B0B347CC780197D379AFF08A97CBD1A
:100F40007C7C9AFF092D74FF7E70019AFF09020BC9
:100F5000C090002C7EEB70BCC740DD7CBD9AFF09C1
:100F60002D7D379AFF08A990002EE07E70019AFF30
:100F70000902DA3BAACA3B7D727CD67C377C2B0AFD
:100F80000B7D305E340007780F7D501E541E541EBA
:100F90005490003CF0E480497D501E541E541E5471
:100FA00090003CF00A327E2400089AFF1CD47CB5E5
:100FB0001BB1681714681814681914681A14681B90
:100FC00014681C2406781E74FE801674FC8012744B
:100FD000F8800E7410800A74E0800674C080027479
:100FE0008090003EF00A337D235E24000778107D58
:100FF000531E541E541E5490003DF0740180497DD0
:10100000531E541E541E5490003DF00A337E24009B
:10101000089AFF1CD47CB51BB168171468181468B3
:101020001914681A14681B14681C2406781E7403AB
:10103000801674078012740F800E741F800A743F2C
:101040008006747F800274FF90003FF07CBD9000AA
:101050003C7EEB709AFF092D90003EE07E70019A75
:10106000FF09027D373E343E343E349AFF08A97CA6
:10107000BD90003C7EEBA00A3A0B349AFF092D90FC
:10108000003CE00A3B0B347CC7801E7D373E343E7B
:10109000343E349AFF08A97CBD7C7C9AFF092DE47C
:1010A0007E70019AFF09020BC090003D7EEB70BC80
:1010B000C740D87CBD9AFF092D7D373E343E343E73
:1010C000349AFF08A990003FE07E70019AFF090260
:1010D000DA3BAACA3B7D727CD67C377C2B0A0B7D1F
:1010E000305E340007780E7D301E341E341E347C92
:1010F000C774FF80451E041E041E047CC10A327E94
:101100002400089AFF1CD47CB51BB168171468181A
:1011100014681914681A14681B14681C2406781EB5
:1011200074FE801674FC801274F8800E7410800AAD
:1011300074E0800674C080027480900041F00A332D
:101140007D235E24000778107D531E541E541E54C8
:10115000900040F0740180497D531E541E541E546B
:10116000900040F00A337E2400089AFF1CD47CB51E
:101170001BB1681714681814681914681A14681BCE
:1011800014681C2406781E74038016740780127479
:101190000F800E741F800A743F8006747F80027473
:1011A000FF900042F07CBD9000407EEB709AFF09FA
:1011B0002D900042E07E70019AFF09027D379AFF70
:1011C00008A97CBD0A3C0B349AFF092D900040E031
:1011D0000A5B1B54900043F080217D379AFF08A9D9
:1011E0007CBD9000437EEB709AFF092D74FF7E70EA
:1011F000019AFF0902900043E014F0900043E0BC24
:10120000BC38D77CBD7C7C9AFF092D7D379AFF08BE
:10121000A9900041E07E70019AFF0902DA3BAACA58
:101220003B7D717CD57CC69000457AEB7090004484
:10123000F0900044E00A361B349000457EEB607D60
:10124000219AFF0D88900045E07C7D7C6C7D273ED7
:10125000243E243E249AFF0E27900044E00A5B0BB4
:10126000540A3C1B347C6D7D279AFF0D8890004505
:10127000E07C7D9000447EEB607D273E243E243E52
:10128000249AFF10D3DA3BAACA797C577C3B0A37F1
:101290007D035E040007780F7D731E741E741E7438
:1012A0007CEF7EF001804C1E341E341E347CE70A35
:1012B000357E2400089AFF1CD47CB51BB168181435
:1012C000681A14681C14681E146820146822240606
:1012D00078217EF002801C7EF00480177EF008806A
:1012E000127EF010800D7EF02080087EF04080039A
:1012F0007EF0807CB37C7E9AFF092D7CBF7E7001DE
:101300009AFF0902DA79AACA3B9000101BEA009002
:10131000000E1BEA107D727D6390000E0BEA309D7B
:10132000369000121BEA309000100BEA209D2790A7
:1013300000141BEA20BE34000058030214FE900083
:10134000140BEA10BE140000580302141890001287
:101350000BEA00BD01485D9000120BEA307E2400CC
:10136000029AFF1CD47D237D319D3290001680347B
:101370007CBD7C7F9AFF12889000160BEA30BE3449
:10138000000008100B749000120BEA209000169DCC
:10139000321BEA300B649000140BEA209000160B0D
:1013A000EA302D321BEA3090000E0BEA30BD6308A4
:1013B000BF0216C39000140BEA307E2400029AFF8D
:1013C0001CD47D239000120BEA309D329000161B36
:1013D000EA3080377CBD7C7F9AFF12889000160B24
:1013E000EA30BE34000008100B649000140BEA20B1
:1013F0009000169D321BEA300B749000120BEA200D
:101400009000160BEA302D321BEA309000100BEAE8
:1014100030BD7308BF0216C39000140BEA306E345F
:10142000FFFF0B349000141BEA309000140BEA10FD
:101430009000120BEA00BD0148609000120BEA30E8
:101440007E2400029AFF1CD47D237D319D329000C2
:10145000161BEA3080377CBD7C7F9AFF1288900093
:10146000160BEA30BE34000008101B749000120BFB
:10147000EA209000169D321BEA300B649000140B9A
:10148000EA209000160BEA302D321BEA3090000E55
:101490000BEA30BD6308BF0216C39000140BEA309C
:1014A0007E2400029AFF1CD47D239000120BEA30A8
:1014B0009D329000161BEA3080377CBD7C7F9AFFFE
:1014C00012889000160BEA30BE34000008100B643E
:1014D0009000140BEA209000169D321BEA301B741A
:1014E0009000120BEA209000160BEA302D321BEA16
:1014F000309000100BEA30BD7358BF0216C3900045
:10150000120BEA306E34FFFF0B349000121BEA30EE
:101510009000140BEA10BE14000058030215E79067
:1015200000120BEA30BD31485A7E2400029AFF1C9B
:10153000D47D237D319D329000161BEA3080377CAC
:10154000BD7C7F9AFF12889000160BEA30BE3400F3
:101550000008100B749000120BEA209000169D32C8
:101560001BEA301B649000140BEA209000160BEA73
:10157000302D321BEA3090000E0BEA30BD6358BFAD
:101580000216C39000140BEA307E2400029AFF1C5E
:10159000D47D239000120BEA309D329000161BEA96
:1015A0003080377CBD7C7F9AFF12889000160BEA52
:1015B00030BE34000008101B649000140BEA209029
:1015C00000169D321BEA300B749000120BEA20903B
:1015D00000160BEA302D321BEA309000100BEA3077
:1015E000BD7308BF0216C39000140BEA306E34FFBF
:1015F000FF0B349000141BEA309000140BEA10909B
:1016000000120BEA30BD3148597E2400029AFF1CBB
:10161000D47D237D319D329000161BEA3080377CCB
:10162000BD7C7F9AFF12889000160BEA30BE340012
:101630000008101B749000120BEA209000169D32D7
:101640001BEA301B649000140BEA209000160BEA92
:10165000302D321BEA3090000E0BEA30BD6358BFCC
:1016600080619000140BEA307E2400029AFF1CD4A3
:101670007D239000120BEA309D329000161BEA3059
:1016800080377CBD7C7F9AFF12889000160BEA3071
:10169000BE34000008101B649000140BEA20900078
:1016A000169D321BEA301B749000120BEA2090004A
:1016B000160BEA302D321BEA309000100BEA30BDD9
:1016C0007358BFDA3BAACA3B7CF77CEB7CB61EB0F2
:1016D00064FF04900046F06CDD7CC60217950A4D4D
:1016E0000A5E2D541B540A2C0A3F2D321B349AFFDC
:1016F00012880A4C0A5E2D541B540A2D0A3F2D32C3
:101700001B349AFF12880A4D0A5E9D540A2C0A3F28
:101710002D321B349AFF12880A4C0A5E9D540A2D02
:101720000A3F2D321B349AFF12880A4D0A5E9D54DF
:101730000A2C0A3F9D329AFF12880A4C0A5E9D5479
:101740000A2D0A3F9D329AFF12880A4D0A5E2D54D7
:101750001B540A2C0A3F9D329AFF12880A4C0A5EDB
:101760002D541B540A2D0A3F9D329AFF12880BD02C
:101770009000467EEBA0BEA000500A9000467CBAC6
:101780002CBDF080101BC00A2C0A3D9D327CB79006
:1017900000462CBAF0BCCD40030216DEDA3BAAC2EA
:1017A000C27E3400C89AFF08A9D2C274AE6C779A80
:1017B000FF0902E46C779AFF090274106C779AFFB4
:1017C000090274406C779AFF090274816C779AFF62
:1017D000090274CF6C779AFF090274A16C779AFFA3
:1017E000090274C86C779AFF090274A66C779AFF95
:1017F000090274A86C779AFF0902743F6C779AFF0C
:10180000090274D36C779AFF0902E46C779AFF0996
:101810000274D56C779AFF090274806C779AFF097D
:101820000274D96C779AFF090274F16C779AFF09F8
:101830000274DA6C779AFF090274126C779AFF09C6
:101840000274DB6C779AFF090274406C779AFF0987
:101850000274206C779AFF090274026C779AFF0970
:1018600002748D6C779AFF090274146C779AFF09E1
:101870000274A46C779AFF090274A66C779AFF0928
:10188000029AFF098974AF6C778AFF090200000091
:10189000007E1800041B1C78FCAA7D231B344D22FB
:1018A00078F8AACA3B9000291BEA107CC47CE5901A
:1018B00000287AEB607CF77CDBE40A2D1B247C6536
:1018C0009000290BEA209AFF0D887CBD9000287EAD
:1018D000EBA00A2A0A3F9D327C6F9000290BEA2078
:1018E0009AFF0E270A1D7D510B549000287EEBA015
:1018F0000A2A0A3F9D320A2E2D217C659000290B71
:10190000EA209AFF0D880A4E0A5D2D540B54900070
:10191000287EEBA00A2A0A3F9D327C6F9000290B9B
:10192000EA209AFF0E270A0E0A1D2D107D510B5535
:101930007C7F0A2C2D217C659000290BEA209AFFE0
:101940000D880A5E0A4D2D450B440A5C2D5490000B
:10195000287EEBA00A2A0A3F9D327C6F9000290B5B
:10196000EA209AFF0E270A1E0A0D2D017D100B1585
:101970000A5C2D519000287EEBA00A2A0A3F9D3276
:101980000A1C2D100A2E2D217C659000290BEA20BF
:101990009AFF0D880A4E0A3D2D340A5C2D532D54B2
:1019A0000B549000287EEBA00A2A0A3F9D327C6FE0
:1019B0009000290BEA209AFF0E270A4E0A3D2D348B
:1019C0000A5C2D532D540B557C7F7E60809000293E
:1019D0000BEA209AFF0D88DA3BAA7CAB6C77BEA09D
:1019E0000578046C778044BEA00A78057E700F806D
:1019F0003ABEA01478057E701E8030BEA0287805FF
:101A00007E702D8026BEA05078057E703C801CBE66
:101A1000A0A078057E704B8012BEA04178057E7034
:101A20005A8008BEA08278037E70691A37AACAF865
:101A30009000097EEBF07CBFBEB0084003021BC3E0
:101A40007EA003A4901A4873021A60021A8B021A2D
:101A5000B6021AE1021B0C021B36021B60021B8A33
:101A60001A3F2E3400007A71827A6183E090000A76
:101A7000F09AFF19DA90000D7AEB700A479000088F
:101A8000E01A5B2D547E7005021BB21A3F2E340003
:101A9000007A71827A6183E090000AF09AFF19DA85
:101AA00090000D7AEB700A47900008E01A5B2D5405
:101AB0007E700D021BB21A3F2E3400007A71827ABA
:101AC0006183E090000AF09AFF19DA90000D7AEB3A
:101AD000700A47900008E01A5B2D547E7015021BB7
:101AE000B21A3F2E3400007A71827A6183E090004E
:101AF0000AF09AFF19DA90000D7AEB700A4790000D
:101B000008E01A5B2D547E701D021BB21A3F2E3462
:101B100000007A71827A6183E090000AF09AFF19DE
:101B2000DA90000D7AEB700A47900008E01A5B2DFE
:101B3000547E7025807C1A3F2E3400007A71827AA0
:101B40006183E090000AF09AFF19DA90000D7AEBB9
:101B5000700A47900008E01A5B2D547E702D805269
:101B60001A3F2E3400007A71827A6183E090000A75
:101B7000F09AFF19DA90000D7AEB700A479000088E
:101B8000E01A5B2D547E703580281A3F2E340000F9
:101B90007A71827A6183E090000AF09AFF19DA90F4
:101BA000000D7AEB700A47900008E01A5B2D547E16
:101BB000703D7E60057E500F7E400F7E1400019ABE
:101BC000FF18A3DAF8AAA9D7BA75EA0075E900D216
:101BD00088D2A8D2AF75B4FF75B30075CC0075CBB1
:101BE000009AFF179F9AFF1D6AA2F8E43378397EA6
:101BF000340FA09AFF189AA2F8E43368FA7E340FE3
:101C0000A09AFF189AD2AFA2AFE433BEB00168F732
:101C1000E4900009F09AFF1A2E900009E004F09079
:101C20000009E0BEB00848EDA2F9E433782C7E3418
:101C30000FA09AFF189AA2F9E43368FA900008E01E
:101C400004F0E4900009F09AFF1A2E900009E004D5
:101C5000F0900009E0BEB00848EDA2FEE4337889B8
:101C60007E340FA09AFF189AA2FEE43368FA90001F
:101C700008E014F0E4900009F09AFF1A2E90000991
:101C8000E004F0900009E0BEB00848ED021BE9CA8C
:101C90002BCA1BC0D1C083C0829AFF188DE5E89083
:101CA000000B7EEBA01A4A2E4400007A91827A81C2
:101CB00083F090000B7CBA04F090000BE0BEB008FB
:101CC0004807E490000BF0C2AFD082D083D0D1DAC5
:101CD0001BDA2B32C2D57CB430E708B2D56E24FFB4
:101CE000FF0B247CB630E712B2D56E34FFFF0B3405
:101CF0008D326E24FFFF0B2480028D3230D5066EAC
:101D000034FFFF0B34AA7D51AD037D027D21AD056B
:101D10002D12AD352D21AA6D0074104D00780B4D9C
:101D20002278278D317D126D22AA7D437D326D226E
:101D30002F112D445002A50FBF1040049F100B908F
:101D40001478ED7F016D227D34AA7D417D138D24B1
:101D50007D022F004004BD0440049D040B14147840
:101D6000F17D237D317D106D00AA759850438E0161
:101D7000538EFB75D7E675D6FF438E10AA7AB199BC
:101D80003099FDC299AACAF89AFF1D7DDAF8AA0017
:101D90000801000000000000000000000001010038
:101DA0000803000101000900000101000B00000010
:00000001FF
