:10000000021B43021AEF32283029000200060000CA
:10001000000000000000002F0000000007000700A3
:1000200000147F147F1400242A7F2A1200626408BF
:10003000132300364955225000000503000000003C
:100040001C224100000041221C000014083E08143C
:100050000008083E0808000000A06000000808082A
:100060000808000060600000002010080402003E44
:100070005149453E0000427F4000004261514946DF
:10008000002141454B31001814127F1000274545CF
:100090004539003C4A4949300001710905030036E1
:1000A0004949493600064949291E000036360000F4
:1000B00000005636000000081422410000141414F9
:1000C00014140000412214080002015109060032F4
:1000D0004959513E007C1211127C007F4949493632
:1000E000003E41414122007F4141221C007F49499D
:1000F0004941007F09090901003E4149497A007FD1
:100100000808087F0000417F4100002040413F0176
:10011000007F08142241007F40404040007F020CD5
:10012000027F007F0408107F003E4141413E007F76
:1001300009090906003E4151215E007F091929463F
:100140000046494949310001017F0101003F40401B
:10015000403F001F2040201F003F4038403F0063C9
:1001600014081463000708700807006151494543EB
:1001700000007F41410000552A552A5500004141A9
:100180007F000004020102040040404040400000A3
:1001900001020400002054545478007F484444383D
:1001A00000384444442000384444487F00385454C4
:1001B000541800087E0901020018A4A4A47C007F42
:1001C000080404780000447D4000004080847D00E5
:1001D000007F102844000000417F4000007C04188C
:1001E0000478007C0804047800384444443800FC57
:1001F000242424180018242418FC007C0804040873
:1002000000485454542000043F444020003C4040E7
:10021000207C001C2040201C003C4030403C00441E
:1002200028102844001CA0A0A07C004464544C4426
:100230001414141414140000000000000000000046
:10024000000000000000000000F8000000000000B6
:1002500000333000000000100C06100C06000000F7
:1002600000000000000040C07840C0784000043F1B
:1002700004043F040400007088FC083000000018EB
:1002800020FF211E0000F008F000E018000000210F
:100290001C031E211E0000F00888700000001E21B3
:1002A00023241927211010160E0000000000000062
:1002B000000000000000000000E018040200000040
:1002C00000071820400000020418E0000000004071
:1002D000201807000000404080F0804040000202EB
:1002E000010F01020200000000F000000000010107
:1002F000011F01010100000000000000000080B0AB
:10030000700000000000000000000000000000017C
:1003100001010101010100000000000000000030A7
:100320003000000000000000000080601804006041
:1003300018060100000000E010080810E000000F9F
:10034000102020100F00001010F800000000002006
:10035000203F20200000007008080888700000304E
:1003600028242221300000300888884830000018F6
:10037000202020110E000000C02010F8000000070F
:100380000424243F240000F8088888080800001985
:10039000212020110E0000E0108888180000000FB6
:1003A000112020110E0000380808C838080000008D
:1003B000003F000000000070880808887000001CE2
:1003C000222121221C0000E010080810E00000009B
:1003D000312222110F00000000C0C0000000000008
:1003E000003030000000000000800000000000002D
:1003F0008060000000000000804020100800000124
:1004000002040810200040404040404040000404E6
:1004100004040404040000081020408000000020B0
:10042000100804020100007048080808F0000000ED
:10043000003036010000C030C828E810E00007187E
:10044000272423140B000000C038E0000000203CEB
:1004500023020227382008F8888888700000203F8F
:10046000202020110E00C0300808080838000718A6
:1004700020202010080008F808080810E000203F9D
:10048000202020100F0008F88888E8081000203F7E
:1004900020202320180008F88888E8081000203F52
:1004A000200003000000C0300808083800000718CA
:1004B0002020221E020008F808000008F808203F4B
:1004C000210101213F20000808F808080000002051
:1004D000203F2020000000000808F8080800C08025
:1004E00080807F00000008F888C028180800203F9E
:1004F00020012638200008F8080000000000203FF6
:1005000020202020300008F8F800F8F80800203FEC
:10051000003F003F200008F830C00008F808203FE6
:10052000200007183F00E01008080810E0000F1036
:10053000202020100F0008F808080808F000203FCD
:10054000210101010000E01008080810E0000F1868
:10055000242438504F0008F8888888887000203F8D
:100560002000030C3020007088080808380000388C
:10057000202121221C00180808F808081800000093
:10058000203F2000000008F808000008F808001FBD
:10059000202020201F000878880000C838080000AC
:1005A00007380E010000F80800F80008F800033CC6
:1005B0000700073C0300081868808068180820308E
:1005C0002C03032C30200838C800C838080000006D
:1005D000203F2000000010080808C8380800203814
:1005E000262120201800000000FE02020200000068
:1005F000007F40404000000C30C0000000000000C0
:1006000000010638C00000020202FE0000000040A7
:1006100040407F00000000000402020204000000CD
:1006200000000000000000000000000000008080CA
:1006300080808080808000020204000000000000B2
:100640000000000000000000808080800000001991
:10065000242222223F2008F8008080000000003F72
:10066000112020110E000000008080800000000E8C
:10067000112020201100000000808088F800000E6A
:10068000112020103F200000808080800000001F8B
:10069000222222221300008080F0888888180020FF
:1006A000203F202000000000808080808000006BC0
:1006B00094949493600008F8008080800000203FAC
:1006C000210000203F2000809898000000000020BA
:1006D000203F20200000000000809898000000C00B
:1006E0008080807F000008F8000080808000203F2C
:1006F00024022D302000000808F80000000000202F
:10070000203F202000008080808080808000203F6B
:1007100020003F20003F8080008080800000203F3C
:10072000210000203F200000808080800000001F0A
:10073000202020201F00808000808000000080FF9B
:10074000A12020110E000000008080808000000E9B
:10075000112020A0FF8080808000808080002020E9
:100760003F21200001000000808080808000003355
:10077000242424241900008080E0808000000000F0
:10078000001F202000008080000000808000001FEB
:10079000202020103F208080800000808080000189
:1007A0000E300806010080800080008080800F30BD
:1007B0000C030C300F00008080008080800000203F
:1007C000312E0E312000808080000080808080816A
:1007D0008E701806010000808080808080000021DB
:1007E000302C2221300000000000807C020200003A
:1007F0000000003F404000000000FF00000000003B
:100800000000FF0000000002027C800000000040A9
:10081000403F000000000006010102020404000045
:100820000000000000000000F010101010FF101079
:100830001010F000000000000F04040404FF040482
:1008400004040F0000004040405F55555575555554
:10085000555F404040000040200F0949897909094F
:10086000090F2040000000FE02424ACA4A4ACA4A12
:100870004A4202FE000000FF40504C4340404F50AF
:10088000505C40FF00000000F888888888FF888856
:100890008888F800000000001F080808087F888882
:1008A00088889F80F00080828282828282E2A29287
:1008B0008A8682808000000000000040807F000067
:1008C000000000000000101010FF109008888888B9
:1008D000FF88888808000444827F01808040432C80
:1008E0001028468180000010101010D030FF30D04A
:1008F000121C1010000010080402010000FF00008C
:10090000010204081000020B7F6E00807CB1337C72
:10091000B033680D0468EF7CB5337CB43378037F63
:1009200010220468E17D5092F77D457D51BF214042
:10093000067C807F017F12120B427EA1D05CB00446
:10094000780320D5C17CB00478075002B2D5020BE1
:100950008792D5BE80FF68F67CB89CB06C00602A98
:10096000B418057C41020B5B50FB80032F00047C14
:100970009B5E900778F630E4067C437D106D003076
:10098000E3087C437C327C210A0030F5199F107803
:100990000E22020B841B8068F92F1150020B707C11
:1009A000B530E7F1801B2D317CB5A5397C5B50114A
:1009B0000B807803020B871E341350034E60801A9D
:1009C0002B020B5B5D22680D5D0078122D220B401F
:1009D00068099F11222D000B0078F9020B7F120B82
:1009E000425C800B806808248150072CB0500A02BA
:1009F0000B872CB04003020B847C8B5D1178267C26
:100A0000B17CA5BE1080680A5D33780DA5BD800558
:100A10007F10020B716D0080307F017C5B7CB17CAC
:100A2000A5AD1280245D337806A5BD80F080E1CAB3
:100A3000887D41AD437CB17CA5AD122D1450020BD5
:100A4000047C5BAD232F01DA88A42D05BE00804015
:100A5000060B80780480982F007C437C507C617C5E
:100A600072020B5BBE24FFFF6806BE04FFFF780323
:100A7000020B7F120B425CB00468F57CB8A5486895
:100A8000EF7CB870039F1122A5B80003020B872EDC
:100A9000008150079C803807020B849C8050ED0A2F
:100AA00051C2E74D517803020B717E5400807E9055
:100AB0001A6C0080061B9068142F11BF1040049F11
:100AC000104CAB0330E7EECAA86CAA80E8DA39DA3A
:100AD000587C4ABE5080500A1B8068BC2F115002BF
:100AE0000B70020B5B7EA020800C7EA01080057E28
:100AF000A0086C556D333392D5500A6E34FFFF6EEB
:100B000024FFFF0B1CA5EC3340062F11D5F0F62275
:100B10007CBA247EA2D5137C767C65A5CC92E77C3A
:100B20005B227F707F517EC400017ED4006A7E9478
:100B30000B35020BC04005E47A7BB0227A7BB00B08
:100B40007C222D0092D50E104E10807D422D4450F7
:100B500002B2D54E50806C447CB8222C4450120B0B
:100B60001C7E40005E507FBE18000078040B806839
:100B700016A2D57CB8137C4B7CB592E77C5B227EB9
:100B80001CFFFF229F11227E24FF8020D5026C458E
:100B90006D3322540F2490D43440D430F30CBEB0C3
:100BA000414007BEB05B500224204CCC68021BC001
:100BB0000B84D389944CCC680B7420120BAA80F55B
:100BC000CA3B6D889F337CAE7E5BB00B5C7007C305
:100BD0007D38DA3B8994B42569C2F37E5BB00B5C47
:100BE000A5F824D0BEB00A501B7E500A20F60DACEA
:100BF0005CA52D7CCB70034EF00180DDAC5DA52D96
:100C00007CDB80D524CFBEB01AA5E850055E00DF9E
:100C1000D2F3900F95A3E4936011BCB078F77417EA
:100C2000934CAB30F6B34EF08080AEA3E4936010EB
:100C3000BCB078F77416937C3B7423937C2B891497
:100C40007CB080137420120BAA20F205BEC00250A3
:100C5000F31B6D29B60001120BAA020BB51B6E69BE
:100C60001600020B6A00BE08000078087E0400FF30
:100C70007E14000720F21E4CCC681A7F10E47E1B05
:100C8000804C8868070B1C04BCBD78F2C2F6CA0B06
:100C9000120D94DA0B7E0BB060C0CA0B120BAADAED
:100CA0000B0B0C4CDD68EE1BD078EA80ADD2F07EE9
:100CB000101080037E10085EB05F800AD2F67E10AE
:100CC0000A80057E100AC2F66D119F117E00201B5E
:100CD0006C7E6B7030F6021A3720F1051B6C7E6B50
:100CE0006030F6041A261A2430F0051B6D0B6A20BA
:100CF000A5EC3382F692F6500A7CEA9F229F217F70
:100D0000127CAE4C44780F7C457C567C676C772E09
:100D100000F878EF80122F117CB3337C3B9CB140FC
:100D2000047C3B0B70A5D8EE7CB230E005DAB8C489
:100D30004C3BCA380B207E00207E3000BE180000DD
:100D400078C1BE1008780730F404C2F480B5CA2810
:100D50007CB2BCBD38027CBD120D94DA28BC2D508B
:100D60000A1BD0E4CA28120B9380F07CB213DAB8C5
:100D70004004C4CAB8C4CA28BEF08040095CDD780B
:100D800005A5DA0260065EF07F120B93DA28A5DA79
:100D9000DA020BB5BEF001680F30F402240220F530
:100DA0000620F70330F6010420F229BCBC5025CA06
:100DB000B87CBF13B0E67420501174307C8A5E801A
:100DC000F06808120DD45EA00F8003120BAADAB8E7
:100DD000BCBC78DB30F40F7430120BAA745830F3BB
:100DE000027478120BAA30F605742D020BAA742B2C
:100DF00020F5F8742020F7F3221B6C7E6BB010F105
:100E0000021B6C20F60B30E704F404D2F27CCB809A
:100E10000520E7057CDB020BD95EF07F80F81B6EB6
:100E2000691600020B6A0030F0076D221B0A200BC6
:100E30000D1B0A80020BC4E46C22BE3007500B7FEE
:100E40001F2D312E34FFF77E39B0227CBF20E7A85A
:100E5000742E4EF080020BAA120F7E403D7CBD70B6
:100E600003047CDB1210957C3D4C3368101B307CF6
:100E7000BE20E409120E3770044C3378F07CBD7C40
:100E8000D3BEA0FD481CBCAB5818E49CBA2CB318C8
:100E900001E47CDB020F1F120F7E406E7CBD04124A
:100EA00010957AFBA07CAE7CBDA2F492F0C2F44017
:100EB000026001042405120D947E30FF0B30120EE7
:100EC00037CA38120B9320F0044CDD6803120E4B26
:100ED000DA38BC3D78E6740E120B93742B7EFBA0BF
:100EE00030F707742D6EA0FF0BA07AFBA0120BAA9F
:100EF0007EA00A7EFBB0847AFBA0120B937EFBB02F
:100F0000120B939EF80008020BB5D2F27ED00002BD
:100F10000C74120F7E40F37CBA2CBD041210957A2B
:100F2000FBA07CBA7CAE30E701E40420F4044CDD85
:100F30006805D2F0C2F4042CBD120D946C337EFB14
:100F4000B0601B20E712147AFBB0120E37CA3812B9
:100F50000B93DA380B3080E6047AFBB01B30120EAC
:100F600037CA38120B934CDD6807120E4B1BD0802A
:100F7000E19EF8000930F003120E4B020BB57CEA3B
:100F80007CAF10F7037ED0067CFA1B6E6936000238
:100F90000B6A20020FDD2D2B204C4248232E0053DC
:100FA000584F44494355502A4E4645470004208037
:100FB00001020010405DAFB4BCBC49C3ADF91E12C4
:100FC00097580C0C0C0C0C0C0C0C0D0E0F0E0E4E3E
:100FD000614E002B494E46002D494E46007D522D54
:100FE000557CBE92E67CEB7CBA601F0470287CB511
:100FF000C2E77E0400FF60067E140FCFD3227E146A
:101000000FD840047E140FD3D322DA099F22CA2BB3
:10101000CA2BC3CA09220A0A7E144D10AD109E08BD
:101020003AF09E10267CB5C2E77EA0567C9BA46E4B
:1010300054FFFF2E54C511ACA92D15E4A539CAB82B
:10104000CA1B20E70A121108DA1B120A64800AF48C
:1010500004121108DA1B1209C4DAA87CB5337CB477
:10106000334E50806C4424822F111478FBDA49747B
:1010700007BE400A40099E400ACA0201140BA0CADA
:10108000486C442F117F012F112F112F101478EF6E
:10109000CA48CA49227F0F20E73ABEB0074002740F
:1010A000070A0B2D109E1400097E19B02EB0FB50BC
:1010B0001F4C116817E47A19B01B147E19B0047A1A
:1010C00019B0B40A0BE47A19B0A5D9ED0BA07401DC
:1010D0007A19B0225EE0BF223F800000412000006C
:1010E00042C80000447A0000461C400047C350003C
:1010F000497424004B1896804CBEBC205A0E1BCA63
:101100006753C21C749DC5AE7C7B6006540768168D
:10111000232312112D7CB75438680A7F1012112A2C
:101120001209C47F01227CB7543803241C6CAA2EF8
:101130005410D87E4400FF0B2A006912000222C21C
:10114000D57CB430E708B2D56E24FFFF0B247CB603
:1011500030E712B2D56E34FFFF0B348D326E24FFB0
:10116000FF0B2480028D3230D5066E34FFFF0B3426
:10117000220003050911FF118905C300E000F000FA
:10118000F8000000000000004428FF11AA440000FD
:10119000000000000000000000000000000000004F
:1011A000000000000000000000000000000000003F
:1011B000000000000000000000000000000000002F
:1011C000000000000000000000000083013844829D
:1011D0009292740183000000000000007C44FF0133
:1011E0007D7D7D017D7D7D7D017D7D7D7D7D01FF21
:1011F00000000000000001000100010001000100EA
:1012000001000000000000000000010100000000DB
:1012100000000000000000000000000000000000CE
:1012200000000000000000000000000000000000BE
:1012300000000000000000000000000000000000AE
:10124000000000000000000000000001010000009C
:10125000000000010100000000000000000001018A
:10126000010101010101010101010101010101016E
:10127000000000000000000000000000000000006E
:10128000000000000000000000000000003F3F03DD
:1012900003F31311111111111101F11161810101F8
:1012A00001816111F1010101014141F101010101DE
:1012B00001C1211111111121C1010101014141F1AE
:1012C000010101010101010101011111111111D3EC
:1012D0003303033F3F000000000000000000000057
:1012E00000000000000000000000000000000000FE
:1012F00000000000000000000000000000000000EE
:1013000000000000000000000000000000E0E0001D
:10131000007F01010101010100007F0000010618AA
:10132000060100007F0000000040407F40400000B8
:10133000001F2040404040201F0000000040407F30
:10134000404000000000600000000040300C03003E
:10135000000000E0E00000000000000000000000CD
:10136000000000000000000000000000000000007D
:10137000000000000000000000000000000000006D
:101380000000000000000000000000000007070649
:101390000606060404048444444484040484444447
:1013A000448404040484C40404040484444444843D
:1013B00004040404048444444484040404040484AD
:1013C00044444484040484444444840404040406DB
:1013D00006060607070000000000000000000000ED
:1013E00000000000000000000000000000000000FD
:1013F00000000000000000000000000000000000ED
:1014000000000000000000000000000000000000DC
:10141000000000000000101814121100000F10103E
:10142000100F000000101F10000000081012120D15
:1014300000001800000D1212120D0000180000101C
:1014400018141211000010181412110000000000EE
:10145000000000000000000000000000000000008C
:10146000000000000000000000000000000000007C
:10147000000000000000000000000000000000006C
:10148000000000000000000000000000000000005C
:10149000000000000000000000000000000000004C
:1014A00000000000000000000000000000808080BC
:1014B00080808080800000000000000000000000AC
:1014C000000000000000000000000000000000001C
:1014D000000000000000000000000000000000000C
:1014E00000000000000000000000000000000000FC
:1014F00000007F030C300C037F0000385454580068
:10150000007C04047800003C40407C0000000000A7
:1015100000000000000000000000000000000000CB
:1015200000000000000000000000000000FFAAAA68
:10153000AA280800FF0000000000000000000000D2
:10154000000000000000000000000000000000009B
:10155000000000000000000000007F030C300C03BE
:101560007F0000264949493200007F020408107FAD
:1015700000CA3B7CF57C367CE77CDB0A257D321E8D
:10158000347CB7900046F06D009000471BEA00BE27
:10159000F008780C7E0400069000491BEA008020C9
:1015A0007D021E041E041E045E24000768067E24BD
:1015B000000180026D222D20AD329000491BEA30DF
:1015C0000A339E3400207CC77CBD7C7E121C196DC2
:1015D000339000478064900046E00A3B9000470B40
:1015E000EA208D234D22780EBEF00868097CBD7C70
:1015F0007E0BE0121C19BEF00878137E7006AC7CDE
:101600009000470BEA202D322E34000E8016BEF0DB
:1016100010783A7E7010AC7C9000470BEA202D3297
:101620002E3402367A71827A6183E4937E700112DD
:101630001BEE9000470BEA300B341BEA3090004958
:101640000BEA209000470BEA30BD324089DA3B229A
:10165000CA3B7CD37CC67D729000737AEB7090009D
:1016600072F0E4900076F0900077F0BED008780633
:101670007402900076F0E4900074F002171D740A72
:101680009000747EEBA00A2A0A3C9D321B34121C87
:10169000777D278D237E24000A8D327CB5900075DE
:1016A000F0900077E0703B0A2C1B24900074E00A55
:1016B0003BBD32582D900075E070210A1D1E14901C
:1016C0000076E00A2B2D21AD32900072E00A5B2DEE
:1016D000539000737EEB707E602080367401900022
:1016E00077F00A3D1E34900076E00A2B2D239000FF
:1016F00074E00A3BAD32900072E00A5B2D5390001B
:10170000737EEB709000757EEB600A262E2400300D
:101710007C657C5D121571900074E004F09000749B
:10172000E0BCBC500302167EDA3B22C2C27E34000B
:10173000C8121C60D2C274AE6C77121BEEE46C77D8
:10174000121BEE74106C77121BEE74406C77121B38
:10175000EE74816C77121BEE74CF6C77121BEE74F3
:10176000A16C77121BEE74C86C77121BEE74A66C1A
:1017700077121BEE74A86C77121BEE743F6C771215
:101780001BEE74D36C77121BEEE46C77121BEE74B5
:10179000D56C77121BEE74806C77121BEE74D96CCB
:1017A00077121BEE74F16C77121BEE74DA6C771201
:1017B0001BEE74126C77121BEE74DB6C77121BEE4F
:1017C00074406C77121BEE74206C77121BEE74025F
:1017D0006C77121BEE748D6C77121BEE74146C77A1
:1017E000121BEE74A46C77121BEE74A66C77121B9E
:1017F000EE121B8C74AF6C77021BEEA9D7BA75EA98
:101800000075E9007596FF75950053B2FB43B1046E
:1018100075B4FF75B300D288D2A812172BE4121C3E
:1018200042E4121BC2D2AF121CB8121CCB6D117E47
:10183000044380900004693E00020BEA201209C4B0
:10184000900008691E00020BEA0012090C6D117E5F
:10185000043EC01209C47E1420277E044148120AA7
:10186000647E1437BD7E0435861209C47F016D3352
:101870007E243F80120A6490003E793E00021BEAFB
:1018800020900066793E00021BEA207E14000C7E48
:101890000400017E341D2E7E2400FF120B22E47E04
:1018A00070017E14000C7E0400017E6008121A751F
:1018B00002182DCA3B7F3090006D7AEB5090006C7F
:1018C0007AEB6090006B7AEB7090006AF06D339069
:1018D000006E1BEA3090006DE00A5B7D455E4400BF
:1018E0000768067E44000180026D441E541E541E8B
:1018F000542D5490006DF0E4900070F080549000EE
:101900006AE090006B7EEBA00A2A9000707EEBA04C
:101910000A3A2D32121C19E4900071F080209000D8
:101920006E0BEA307D230B241BEA202D377D267EAB
:101930001BB07E7001121BEE900071E004F090006D
:101940006C7EEBA0900071E0BCBA40D2900070E0D9
:1019500004F090006D7EEBA0900070E0BCBA409E59
:10196000DA3B22CA3B7CF57CE67CD77CCB0A357D12
:10197000131E141E141E147D235E24000768067EA9
:1019800024000180026D222D21AD3290007A1BEAE5
:10199000306D3390007880430A3F9000780BEA2046
:1019A0008D234D2278097CBC7C7D0BD0121C19BE86
:1019B000F010783A7E7020AC7E9000780BEA202DF3
:1019C000322E3408267A71827A6183E4937E700124
:1019D000121BEE9000780BEA300B341BEA309000BB
:1019E0007A0BEA209000780BEA30BD3240AADA3B4D
:1019F00022E47E34FED07E24007E7A1BB07E34FE4C
:101A0000D17A1BB07E34FED27A1BB074027E34FED3
:101A1000D37A1BB0E47E34FED57A1BB074017E34D9
:101A2000FED67A1BB0E47E34FEB17A1BB07E1BB0CA
:101A300044017A1BB0E47E34FEB27A1BB07E1BB048
:101A400044017A1BB0E47E34FECC7A1BB074687E0D
:101A500014FEC87E04007E7A0BB074017A1BB07449
:101A6000807E34FEDD7A1BB07E34FEC07E1BB04427
:101A7000017A1BB022CA3B9000447AEB607F309021
:101A800000437AEB70900042F0E4900045F0804D06
:101A9000900042E09000437EEB709000457EEB604A
:101AA0007CA60BA07AEBA00A267F032D127E0B608A
:101AB0009000447EEB501215719000447EEBA0BE66
:101AC000A0087809900042E02406F080100A3A7ECF
:101AD00024000212113F900042E02CB7F090004524
:101AE000E00A3B2D377D267E1BB070A4DA3B22CA6C
:101AF00059CA1BC0D1C0D0C083C082A200E43378D1
:101B000006D28CD200802FB4012CC2007E418CE41E
:101B1000120AEF900004793E00021BEA207E418AFF
:101B2000E4120AEF900008793E00021BEA20C28C02
:101B3000758C00758A00D082D083D0D0D0D1DA1BCA
:101B4000DA59327584017E44041FE47A49B01B449B
:101B500078F97EF80020C2007E0400FF7E141CDAB3
:101B60000B0A405D446822295000020A25693000B2
:101B7000032E0800050B44800A7E0BB07A1BB00BC5
:101B80001C0B0C1B4478F280D70217FBCA796CFF40
:101B90000A5F2E5400B06C77121BEEE46C77121BB8
:101BA000EE74106C77121BEE6CEEE47E7001121B6B
:101BB000EE0BE0BEE08078F20BF0BEF00840D1DA28
:101BC0007922CAF87CFB4CFB780E74C86C77121B28
:101BD000EE74A16C77121BEEBEF001780E74C06C2F
:101BE00077121BEE74A06C77121BEEDAF8227CAB36
:101BF0004C776804D2C38002C2C3C2C47E7008C2DC
:101C0000C07CBA30E704D2C18002C2C1D2C03EA0BB
:101C10001B7078EBD2C4D2C322CAF87CFB0A572EC1
:101C20005400B06C77121BEE7CBF54F0C4540F44C8
:101C3000106C77121BEE7CBF540F6C77121BEEDA20
:101C4000F822CAF87CFB4CFB780774A66C77121B51
:101C5000EEBEF001780774A76C77121BEEDAF8225B
:101C60007D13800E7E0407087D301B044D3378F809
:101C70001B144D1178EE227CA77C3B7E3400018042
:101C8000040A23AD327C2A1BA0A5BA00F422748D6D
:101C90006C77121BEE74146C77121BEE74AF6C77BA
:101CA000021BEE748D6C77121BEE74106C77121B96
:101CB000EE74AE6C77021BEE438E805389F0758A0A
:101CC0009A758CA9C28DD28CD2A92243890F5389CF
:101CD00050758B00758D00D28E220004010000002B
:101CE00000000000040100040000000000040100E6
:101CF0000800000000003201000C0000000000009D
:101D000000000000000000000000000000000000D3
:101D100000000000000000000000000000000000C3
:101D20000000000000000000000000000000463A33
:051D3000252E336600C2
:00000001FF
