:10000000021FFC0000000000000000002F000000A4
:10001000000700070000147F147F1400242A7F2AA1
:10002000120062640813230036495522500000056F
:1000300003000000001C224100000041221C0000BF
:1000400014083E08140008083E0808000000A060DC
:100050000000080808080800006060000000201088
:10006000080402003E5149453E0000427F40000026
:100070004261514946002141454B31001814127F1D
:1000800010002745454539003C4A49493000017177
:1000900009050300364949493600064949291E0029
:1000A00000363600000000563600000008142241D9
:1000B000000014141414140000412214080002015A
:1000C00051090600324959513E007C1211127C0040
:1000D0007F49494936003E41414122007F4141224A
:1000E0001C007F49494941007F09090901003E413F
:1000F00049497A007F0808087F0000417F410000DD
:100100002040413F01007F08142241007F404040D1
:1001100040007F020C027F007F0408107F003E41F8
:1001200041413E007F09090906003E4151215E0020
:100130007F091929460046494949310001017F01DB
:1001400001003F4040403F001F2040201F003F4033
:1001500038403F0063140814630007087008070064
:10016000615149454300007F41410000552A552A0D
:1001700055000041417F000004020102040040409C
:100180004040400000010204000020545454780014
:100190007F484444380038444444200038444448AC
:1001A0007F00385454541800087E0901020018A436
:1001B000A4A47C007F080404780000447D40000073
:1001C0004080847D00007F102844000000417F4073
:1001D00000007C04180478007C080404780038448B
:1001E00044443800FC242424180018242418FC005B
:1001F0007C0804040800485454542000043F444040
:1002000020003C4040207C001C2040201C003C4042
:1002100030403C004428102844001CA0A0A07C00D2
:100220004464544C441414141414140000000000CA
:100230000000000000000000000000000000F800C6
:10024000000000000000333000000000100C061019
:100250000C0600000000000000000040C07840C014
:10026000784000043F04043F040400007088FC0848
:10027000300000001820FF211E0000F008F000E010
:1002800018000000211C031E211E0000F0088870C9
:100290000000001E2123241927211010160E000033
:1002A0000000000000000000000000000000E01856
:1002B000040200000000071820400000020418E0BB
:1002C0000000000040201807000000404080F0803F
:1002D0004040000202010F01020200000000F00095
:1002E0000000000101011F010101000000000000E9
:1002F00000000080B070000000000000000000005E
:1003000000000000010101010101010000000000E6
:1003100000000000303000000000000000000080FD
:10032000601804006018060100000000E0100808D2
:1003300010E000000F102020100F00001010F80037
:100340000000000020203F20200000007008080866
:10035000887000003028242221300000300888886E
:100360004830000018202020110E000000C020108E
:10037000F8000000070424243F240000F8088888BF
:100380000808000019212020110E0000E0108888C4
:10039000180000000F112020110E0000380808C8B6
:1003A0003808000000003F000000000070880808C6
:1003B000887000001C222121221C0000E010080887
:1003C00010E0000000312222110F00000000C0C028
:1003D000000000000000303000000000000080003D
:1003E000000000000080600000000000008040204D
:1003F0001008000001020408102000404040404066
:1004000040400004040404040404000008102040D8
:100410008000000020100804020100007048080855
:1004200008F0000000003036010000C030C828E8A5
:1004300010E0000718272423140B000000C038E048
:10044000000000203C23020227382008F888888812
:10045000700000203F202020110E00C03008080846
:10046000083800071820202010080008F80808089D
:1004700010E000203F202020100F0008F88888E8B6
:10048000081000203F20202320180008F88888E862
:10049000081000203F200003000000C030080808BA
:1004A00038000007182020221E020008F80800006B
:1004B00008F808203F210101213F20000808F80822
:1004C0000800000020203F2020000000000808F85D
:1004D000080800C08080807F00000008F888C028DD
:1004E000180800203F20012638200008F8080000E6
:1004F000000000203F20202020300008F8F800F8FD
:10050000F80800203F003F003F200008F830C000FE
:1005100008F808203F200007183F00E010080808EE
:1005200010E0000F10202020100F0008F808080825
:1005300008F000203F210101010000E01008080838
:1005400010E0000F18242438504F0008F8888888DD
:10055000887000203F2000030C30200070880808BD
:100560000838000038202121221C00180808F8084B
:100570000818000000203F2000000008F8080000D4
:1005800008F808001F202020201F0008788800009D
:10059000C83808000007380E010000F80800F8000D
:1005A00008F800033C0700073C0300081868808037
:1005B00068180820302C03032C30200838C800C8E5
:1005C0003808000000203F2000000010080808C87C
:1005D0003808002038262120201800000000FE02E4
:1005E0000202000000007F40404000000C30C000CC
:1005F000000000000000010638C00000020202FEF8
:10060000000000004040407F0000000000040202A3
:1006100002040000000000000000000000000000D4
:1006200000000080808080808080800002020400C2
:10063000000000000000000000000000008080803A
:100640008000000019242222223F2008F800808028
:10065000000000003F112020110E000000008080EB
:10066000800000000E11202020110000000080807A
:1006700088F800000E112020103F200000808080AC
:10068000800000001F222222221300008080F088B8
:100690008888180020203F202000000000808080F3
:1006A000808000006B94949493600008F800808030
:1006B000800000203F210000203F2000809898000B
:1006C0000000000020203F20200000000000809853
:1006D00098000000C08080807F000008F800008043
:1006E000808000203F24022D302000000808F80000
:1006F0000000000020203F202000008080808080BB
:10070000808000203F20003F20003F8080008080CC
:10071000800000203F210000203F200000808080DA
:10072000800000001F202020201F0080800080808B
:1007300000000080FFA12020110E0000000080803A
:10074000808000000E112020A0FF8080808000802B
:1007500080800020203F2120000100000080808058
:100760008080000033242424241900008080E0804D
:100770008000000000001F2020000080800000009A
:10078000808000001F202020103F208080800000FB
:1007900080808000010E300806010080800080000B
:1007A0008080800F300C030C300F000080800080B0
:1007B0008080000020312E0E3120008080800000DB
:1007C00080808080818E701806010000808080808B
:1007D0008080000021302C222130000000000080A9
:1007E0007C020200000000003F404000000000FFCB
:1007F00000000000000000FF0000000002027C80FA
:100800000000000040403F0000000000060101021F
:1008100002040400000000000000004042CC000080
:10082000FE829292FE929282FE000000003F1088AB
:100830007F001E1212125E807F0000044444445F59
:1008400044C44444445F44C4040400000000000065
:1008500000FF000008100807000000000000000072
:100860000000FF08080808080808000000FF4141D0
:1008700041414141414141FF000000100C4424141A
:100880000405060404142444140C000040404141B3
:1008900041417F41414141404000000000FE404055
:1008A000404000FF8040201008000000007F202012
:1008B0001010003F4040404040780080828282FE1D
:1008C0008282828282FE8282828000008040300F9B
:1008D0000000000000FF0000000000000000FC44D9
:1008E00044444546444444447C00004020180700EA
:1008F000FC44444444444444FC00000000101116ED
:100900001010F010101413100000008181414121DB
:10091000110D030D1121414181810000F8012220B8
:100920002222A2FA22222202FE000000FF00080476
:100930000211201F000040807F00000000F888881E
:100940008888FF88888888F800000000001F080851
:1009500008087F888888889F80F0000000FE028257
:10096000828282FA8282828282020080601F4040FC
:100970004040407F404044584040001060028C009E
:10098000FE02F202FE00F800FF000004047E018077
:1009900047300F10270047807F0000404042CC00C6
:1009A0009090909090FF10111610000000003F10E2
:1009B00028603F1010010E3040F0001010D0FF9062
:1009C00014E4AFA4A4A4AFE4040000040300FF00F7
:1009D000894B2A1A0E1A2A4B88800010109090908A
:1009E00090901010FF101011161000002060203F92
:1009F00010101000030C102040F8001060028C0052
:100A00004464544D46445464C4040004047E01808C
:100A1000403E0000FE00007E80E000020CDA6E0026
:100A2000807CB1337CB033680D0468EF7CB5337CD7
:100A3000B43378037F10220468E17D5092F77D453E
:100A40007D51BF2140067C807F017F12120C9D7E6C
:100A5000A1D05CB004780320D5C17CB004780750E5
:100A600002B2D5020CE292D5BE80FF68F67CB89C3B
:100A7000B06C00602AB418057C41020CB650FB80B3
:100A8000032F00047C9B5E900778F630E4067C43DD
:100A90007D106D0030E3087C437C327C210A0030FD
:100AA000F5199F10780E22020CDF1B8068F92F11B8
:100AB00050020B707CB530E7F1801B2D317CB5A561
:100AC000397C5B50110B807803020CE21E3413500A
:100AD000034E60801A2B020CB65D22680D5D007813
:100AE000122D220B4068099F11222D000B0078F96E
:100AF000020CDA120C9D5C800B8068082481500780
:100B00002CB0500A020CE22CB04003020CDF7C8BAC
:100B10005D1178267CB17CA5BE1080680A5D3378B3
:100B20000DA5BD80057F10020CCC6D0080307F01CB
:100B30007C5B7CB17CA5AD1280245D337806A5BDBD
:100B400080F080E1CA887D41AD437CB17CA5AD12C7
:100B50002D1450020B047C5BAD232F01DA88A42DE9
:100B600005BE008040060B80780480982F007C43EF
:100B70007C507C617C72020CB6BE24FFFF6806BE0E
:100B800004FFFF7803020CDA120C9D5CB00468F5D8
:100B90007CB8A54868EF7CB870039F1122A5B80007
:100BA00003020CE22E008150079C803807020CDF04
:100BB0009C8050ED0A51C2E74D517803020CCC7E67
:100BC0005400807E901A6C0080061B9068142F11D0
:100BD000BF1040049F104CAB0330E7EECAA86CAACC
:100BE00080E8DA39DA587C4ABE5080500A1B8068A7
:100BF000BC2F1150020B70020CB674F86CAA6E4038
:100C0000806E0080BEB0FF68277C837C975C3B5C75
:100C10007BBF10682AF4400D7C382D15F45C3B50E6
:100C20000F0B04800B7C792D35F45C7B50020B2478
:100C3000BF10680B7CB020E7067CB420E701B3222C
:100C40007EA020800C7EA01080057EA0086C556DD3
:100C5000333392D5500A6E34FFFF6E24FFFF0B1C16
:100C6000A5EC3340062F11D5F0F6227CBA247EA2E3
:100C7000D5137C767C65A5CC92E77C5B227F707F68
:100C8000517EC400017ED400FD7E940C90020D1BA9
:100C90004005E47A7BB0227A7BB00B7C222D009257
:100CA000D50E104E10807D422D445002B2D54E50CC
:100CB000806C447CB8222C4450120B1C7E40005E99
:100CC000507FBE18000078040B806816A2D57CB84F
:100CD000137C4B7CB592E77C5B227E1CFFFF229F3E
:100CE00011227E24FF8020D5026C456D3322540FE3
:100CF0002490D43440D430F30CBEB0414007BEB091
:100D00005B500224204CCC68021BC00B84D3899416
:100D10004CCC680B7420120D0580F5CA3B6D889F82
:100D2000337CAE7E5BB00B5C7007C37D38DA3B89E9
:100D300094B42569C2F37E5BB00B5CA5F824D0BEE9
:100D4000B00A501B7E500A20F60DAC5CA52D7CCB62
:100D500070034EF00180DDAC5DA52D7CDB80D524D9
:100D6000CFBEB01AA5E850055E00DFD2F39010F0B8
:100D7000A3E4936011BCB078F77417934CAB30F6D2
:100D8000B34EF08080AEA3E4936010BCB078F774EB
:100D900016937C3B7423937C2B89147CB080137452
:100DA00020120D0520F205BEC00250F31B6D29B6BE
:100DB0000001120D05020D101B6E691600020B6A70
:100DC00000BE08000078087E0400FF7E14222B205D
:100DD000F21E4CCC681A7F10E47E1B804C8868079A
:100DE0000B1C04BCBD78F2C2F6CA0B120EEFDA0B74
:100DF0007E0BB060C0CA0B120D05DA0B0B0C4CDD7C
:100E000068EE1BD078EA80ADD2F07E101080037EB1
:100E100010085EB05F800AD2F67E100A80057E1050
:100E20000AC2F66D119F117E00201B6C7E6B703024
:100E3000F6021A3720F1051B6C7E6B6030F6041A3F
:100E4000261A2430F0051B6D0B6A20A5EC3382F6C0
:100E500092F6500A7CEA9F229F217F127CAE4C447E
:100E6000780F7C457C567C676C772E00F878EF8095
:100E7000122F117CB3337C3B9CB140047C3B0B7044
:100E8000A5D8EE7CB230E005DAB8C44C3BCA380BCA
:100E9000207E00207E3000BE18000078C1BE100801
:100EA000780730F404C2F480B5CA287CB2BCBD38DF
:100EB000027CBD120EEFDA28BC2D500A1BD0E4CA0A
:100EC00028120CEE80F07CB213DAB84004C4CAB821
:100ED000C4CA28BEF08040095CDD7805A5DA02604E
:100EE000065EF07F120CEEDA28A5DADA020D10BEEB
:100EF000F001680F30F402240220F50620F70330D9
:100F0000F6010420F229BCBC5025CAB87CBF13B03E
:100F1000E67420501174307C8A5E80F06808120FED
:100F20002F5EA00F8003120D05DAB8BCBC78DB3051
:100F3000F40F7430120D05745830F3027478120DEA
:100F40000530F605742D020D05742B20F5F874207C
:100F500020F7F3221B6C7E6BB010F1021B6C20F6A5
:100F60000B30E704F404D2F27CCB800520E7057C4B
:100F7000DB020D345EF07F80F81B6E691600020BF9
:100F80006A0030F0076D221B0A200B0D1B0A80023D
:100F90000D1FE46C22BE3007500B7F1F2D312E3405
:100FA000FFF77E39B0227CBF20E7A8742E4EF08078
:100FB000020D051210D9403D7CBD7003047CDB128C
:100FC00011F07C3D4C3368101B307CBE20E40912CC
:100FD0000F9270044C3378F07CBD7CD3BEA0FD48EA
:100FE0001CBCAB5818E49CBA2CB31801E47CDB029F
:100FF000107A1210D9406E7CBD041211F07AFBA059
:101000007CAE7CBDA2F492F0C2F4400260010424E4
:1010100005120EEF7E30FF0B30120F92CA38120C01
:10102000EE20F0044CDD6803120FA6DA38BC3D78E0
:10103000E6740E120CEE742B7EFBA030F707742DB5
:101040006EA0FF0BA07AFBA0120D057EA00A7EFB0E
:10105000B0847AFBA0120CEE7EFBB0120CEE9EF870
:101060000008020D10D2F27ED000020DCF1210D96E
:1010700040F37CBA2CBD041211F07AFBA07CBA7C40
:10108000AE30E701E40420F4044CDD6805D2F0C280
:10109000F4042CBD120EEF6C337EFBB0601B20E716
:1010A00012147AFBB0120F92CA38120CEEDA380B17
:1010B0003080E6047AFBB01B30120F92CA38120C53
:1010C000EE4CDD6807120FA61BD080E19EF80009E8
:1010D00030F003120FA6020D107CEA7CAF10F7036C
:1010E0007ED0067CFA1B6E693600020B6A20021164
:1010F000382D2B204C4248232E0053584F4449434F
:1011000055502A4E464547000420800102001040F9
:10111000B80A0F1717A41E0854796DF2B30D0E0EFE
:101120000E0E0D0E0E0F0F100F0F4E614E002B49BD
:101130004E46002D494E46007D522D557CBE92E60E
:101140007CEB7CBA601F0470287CB5C2E77E04008B
:10115000FF60067E14112AD3227E14113340047ED0
:1011600014112ED322DA099F22CA2BCA2BC3CA0913
:10117000220A0A7E144D10AD109E083AF09E1026E9
:101180007CB5C2E77EA0567C9BA46E54FFFF2E5414
:10119000C511ACA92D15E4A539CAB8CA1B20E70AA8
:1011A000121263DA1B120B79800AF404121263DA4A
:1011B0001B120AD9DAA87CB5337CB4334E50806C4C
:1011C0004424822F111478FBDA497407BE400A4088
:1011D000099E400ACA0201140BA0CA486C442F1190
:1011E0007F012F112F112F101478EFCA48CA4922FE
:1011F0007F0F20E73ABEB007400274070A0B2D109C
:101200009E1400097E19B02EB0FB501F4C116817B8
:10121000E47A19B01B147E19B0047A19B0B40A0B21
:10122000E47A19B0A5D9ED0BA074017A19B0225E49
:10123000E0BF223F8000004120000042C80000447F
:101240007A0000461C400047C35000497424004BFC
:101250001896804CBEBC205A0E1BCA6753C21C7421
:101260009DC5AE7C7B600654076816232312128846
:101270007CB75438680A7F10121285120AD97F0190
:10128000227CB7543803241C6CAA2E5412337E449B
:1012900000FF0B2A006912000222C2D57CB430E79D
:1012A00008B2D56E24FFFF0B247CB630E712B2D50E
:1012B0006E34FFFF0B348D326E24FFFF0B2480024F
:1012C0008D3230D5066E34FFFF0B3422CA3B9F337C
:1012D0009000D1797E00021BEA607402900003F056
:1012E000E46C777E60097E5010121E6D74106C776E
:1012F0007E600A7E5010121E6D74206C777E600B2B
:101300007E5010121E6D74306C777E600C7E501013
:10131000121E6D74406C777E600D7E5010121E6D33
:1013200074506C777E600E7E5010121E6D74031226
:1013300020D07D23E4120C45900020793E00021B52
:10134000EA2074041220D07D23E4120C459000247E
:10135000793E00021BEA2074051220D07D23E4129E
:101360000C45900029793E00021BEA20740F1220E0
:10137000D07D23E4120C45900017793E00021BEA51
:1013800020900017691E00020BEA00900020693EC1
:1013900000020BEA20120B797E146A7B7E043F97D1
:1013A000120AD97F719000037EEB407CB4120C4A84
:1013B0007F017F17120B79900013691E00020BEA60
:1013C00000120AD9900007793E00021BEA207E78BD
:1013D0002710900001E0B402028003021511900072
:1013E00007691E00020BEA007F13120A217F311BDE
:1013F0007C78DF7E1440007E04461C7F13120B793C
:10140000900063793E00021BEA207EF466667EE46B
:10141000415E7F07120BFA28127E34D70A7E243DE4
:10142000A39000D1793E00021BEA20900063693E40
:1014300000020BEA207F07120BFA50067ED400014F
:1014400080026DDD7EF4CCCD7EE4409C900063692B
:101450003E00020BEA207F07120BFA28067E3400BA
:101460000180026D334D3D68127E34C28F7E243C74
:10147000F59000D1793E00021BEA20900063693E9E
:1014800000020BEA207F07120BFA50127E34D70AB3
:101490007E243CA39000D1793E00021BEA207E14FA
:1014A000999A7E043E99900063693E00020BEA20FF
:1014B000120BFA50169F11900063793E00021BEA4E
:1014C000209000D1793E00021BEA209000D1691ED5
:1014D00000020BEA00900063693E00020BEA201252
:1014E0000A219000F9793E00021BEA207E14006771
:1014F0007E0400017E3422607E2400FF120C7DE415
:101500007E70027E1400677E0400017E6010121F50
:1015100082DA3B22A9D7BA75EA0075E90075B4FFF3
:1015200075B30075B2FF75B1FF75CCFF75CBFF7554
:1015300096FF7595FFC2EF1222011221EE121DD403
:10154000121C541221667E3400320216DB1216E49D
:1015500090009AF0900001E014680F14681114686C
:101560001324037812121EFB800D121862800812D9
:1015700012CC80031219AB90009AE0B40B17122022
:1015800043900001E004F0900001E0BEB0030805C4
:10159000E4900001F090009AE0B40D1E900001E08C
:1015A000B4031712204390001BE004F090001BE0EE
:1015B000BEB0010805E490001BF090009AE0B40C66
:1015C00008122043E4900001F090009AE0B4154F17
:1015D000900001E0701075E8FFD2B6D2B712204338
:1015E000900028E004F0900001E0B4032490000B88
:1015F0000BEA300B341BEA3012216690000B0BEA29
:1016000030BE340064280A7E34006490000B1BEA6C
:1016100030900028E0BEB00A0805E4900028F09061
:10162000009AE0B4174D900001E0701075E8FFD209
:10163000B6D2B7122043900028E014F0900001E0E9
:10164000B4032290000B0BEA301B341BEA3012214A
:101650006690000B0BEA30BE34000050086D3390EA
:10166000000B1BEA30900028E0BEB0005805E49063
:101670000028F090009AE0B41F2D900001E0B40320
:101680000D90000B0BEA302E34000A1BEA301221B9
:101690006690000B0BEA30BE340064280A7E3400EA
:1016A0006490000B1BEA3090009AE0B421028003A2
:1016B00002154D900001E0B4030D90000B0BEA30D1
:1016C0009E34000A1BEA3012216690000B0BEA30B0
:1016D000BE340000400302154D6D3390000B1BEA31
:1016E0003002154DCA796CEE7E34000A1221AD121B
:1016F00021231BB1681414681B1468222403782C5E
:10170000A2CCE4337CFB7401801CA2CBE4337CFBD1
:1017100074028012A2CAE4337CFB74038008A2C95D
:10172000E4337CFB740490010CF080037EF00190A4
:1017300001087EEB70BE700028239001090BEA209F
:101740000B241BEA209001090BEA20BE24001E4056
:101750000CBE24003250067402900105F090010581
:10176000E0146824146853147803021839240368B9
:10177000030218504CFF68030218556D22900106B1
:101780001BEA2074010218514CFF782A9001060BC5
:10179000EA200B241BEA209001060BEA20BE24005D
:1017A0000150030218557402900105F09001087C65
:1017B000B704F0021855E40218514CFF685090012C
:1017C000090BEA20BE24001E5005E4900105F0BE7E
:1017D00024001E5003021855BE2400325077A5BFC6
:1017E000011090010C7EEB50740AAC5B0B247CE57D
:1017F000804BA5BF021690010BE090010C7EEB70B0
:10180000BC7B7839740AAC7B0B357CE7802F900168
:10181000060BEA300B341BEA309001060BEA30BEAF
:10182000340032403090010C7EEB70740AAC7B2E99
:101830003400037CE7740380184CFF6818E49001BF
:1018400005F0900108F06D339001091BEA30800526
:10185000E4900105F090010CE090010BF07CBEDA01
:101860007922CA3B74011220D07D23E4120C4590EA
:10187000001C793E00021BEA20740F1220D07D2349
:10188000E4120C45900017793E00021BEA20E46C3C
:10189000777E60097E5010121E6D74106C777E602A
:1018A0000F7E5010121E6D74206C777E600B7E5080
:1018B00010121E6D74306C777E600C7E5010121EFC
:1018C0006D74406C777E600D7E5010121E6D7450EA
:1018D0006C777E600E7E5010121E6D900028E0BE68
:1018E000B00B40030219797EA003A49018EF730295
:1018F000191002191C02192402192C021934021998
:101900003C02194402194C02195402195C02196470
:101910009000CD697E00020BEA60805D6D117E044F
:1019200042C880466D117E044348803E6D117E049E
:10193000439680366D117E0443C8802E6D117E045F
:1019400043FA80266D117E044416801E6D117E04BC
:10195000442F80166D117E044448800E6D117E0464
:10196000446180066D117E04447A9000CD693E008A
:10197000020BEA20120A217F319000F9797E0002E1
:101980001BEA607E1400317E0400017E3422597E01
:101990002400FF120C7DE47E70027E1400317E0470
:1019A00000017E6010121F82DA3B2290001BE014BF
:1019B0006858046803021A99E46C776C667E5010CC
:1019C000121E6D74106C777E60017E5010121E6DB9
:1019D00074206C777E1422557E0400FF7E60101206
:1019E0001F82E47E70037E60077E5010121E6D74AD
:1019F000107E70037E60087E5010121E6DE47E34EF
:101A0000FEDD7E24007E7A1BB022E46C776C667E5D
:101A10005010121E6D74106C777E60017E50101293
:101A20001E6D74206C777E1422557E0400FF7E604C
:101A300010121F82E47E70037E60057E5010121E1D
:101A40006D74107E70037E60067E5010121E6DE471
:101A50007E70067E60027E5010121E6D74107E70C5
:101A6000067E60037E5010121E6D74207E70067E0E
:101A700060047E5010121E6D74807E34FEDD7E2464
:101A8000007E7A1BB074307E700690000B0BEA204B
:101A90007E60037E3010021B7922CA3B7CF57C36C7
:101AA0007CE77CDB0A257D321E347CB79000D9F0C0
:101AB0006D009000DA1BEA00BEF008780C7E04008E
:101AC000069000DC1BEA0080207D021E041E041E1E
:101AD000045E24000768067E24000180026D222D2A
:101AE00020AD329000DC1BEA300A339E3400207CAB
:101AF000C77CBD7C7E1220FA6D339000DA80649042
:101B000000D9E00A3B9000DA0BEA208D234D2278C1
:101B10000EBEF00868097CBD7C7E0BE01220FABE88
:101B2000F00878137E7006AC7C9000DA0BEA202D6A
:101B3000322E3400038016BEF010783A7E7010AC5E
:101B40007C9000DA0BEA202D322E34022B7A71823F
:101B50007A6183E4937E70011220A59000DA0BEA8B
:101B6000300B341BEA309000DC0BEA209000DA0BDB
:101B7000EA30BD324089DA3B22CA3B7CD37CC67D49
:101B8000729000D27AEB709000D1F0E49000D5F022
:101B90009000D6F0BED008780674029000D5F0E42C
:101BA0009000D3F0021C46740A9000D37EEBA00A8A
:101BB0002A0A3C9D321B341221967D278D237E24D8
:101BC000000A8D327CB59000D4F09000D6E0703BD6
:101BD0000A2C1B249000D3E00A3BBD32582D900004
:101BE000D4E070210A1D1E149000D5E00A2B2D218F
:101BF000AD329000D1E00A5B2D539000D27EEB70A5
:101C00007E6020803674019000D6F00A3D1E34902C
:101C100000D5E00A2B2D239000D3E00A3BAD329093
:101C200000D1E00A5B2D539000D27EEB709000D47F
:101C30007EEB600A262E2400307C657C5D121A9AA9
:101C40009000D3E004F09000D3E0BCBC5003021B32
:101C5000A7DA3B22C2C27E3400C812217FD2C274EE
:101C6000AE6C771220A5E46C771220A574106C7707
:101C70001220A574406C771220A574816C77122015
:101C8000A574CF6C771220A574A16C771220A5746F
:101C9000C86C771220A574A66C771220A574A86C66
:101CA000771220A5743F6C771220A574D36C77123D
:101CB00020A5E46C771220A574D56C771220A5744A
:101CC000806C771220A574D96C771220A574F16C02
:101CD000771220A574DA6C771220A574126C771233
:101CE00020A574DB6C771220A574406C771220A5B8
:101CF00074206C771220A574026C771220A5748D65
:101D00006C771220A574146C771220A574A46C77DC
:101D10001220A574A66C771220A512204374AF6C14
:101D2000770220A5CA3B7F309001007AEB509000EB
:101D3000FF7AEB609000FE7AEB709000FDF06D335F
:101D40009001011BEA30900100E00A5B7D455E4492
:101D5000000768067E44000180026D441E541E5434
:101D60001E542D54900100F0E4900103F080549033
:101D700000FDE09000FE7EEBA00A2A9001037EEBBE
:101D8000A00A3A2D321220FAE4900104F08020904B
:101D900001010BEA307D230B241BEA202D377D2621
:101DA0007E1BB07E70011220A5900104E004F0902B
:101DB00000FF7EEBA0900104E0BCBA40D29001038A
:101DC000E004F09001007EEBA0900103E0BCBA407B
:101DD0009EDA3B22CAF8E47E34FED07E24007E7A6E
:101DE0001BB0740B7E34FED17A1BB0E47E14FECCA3
:101DF0007E04007E7A0BB07E34FECD7A1BB07EF07E
:101E0000687E54FEC87E44007E7A2BF07E54FEC964
:101E10007A2BF07E54FECA7A2BF07E54FECB7A2BBE
:101E2000F074557A0BB07A1BB0E47E34FED27A1B84
:101E3000B074647E34FED37A1BB07E34FEB17E1B58
:101E4000B044017A1BB07E1BB044027A1BB0E47E22
:101E500034FEB27A1BB07E1BB044017A1BB07E34D4
:101E6000FEC07E1BB044817A1BB0DAF822CA3B7CEC
:101E7000F57CE67CD77CCB0A357D131E141E141E20
:101E8000147D235E24000768067E24000180026D15
:101E9000222D21AD329000D71BEA306D339000D552
:101EA00080430A3F9000D50BEA208D234D2278090C
:101EB0007CBC7C7D0BD01220FABEF010783A7E708C
:101EC00020AC7E9000D50BEA202D322E34081B7AF0
:101ED00071827A6183E4937E70011220A59000D50F
:101EE0000BEA300B341BEA309000D70BEA2090004D
:101EF000D50BEA30BD3240AADA3B22E46C777E6033
:101F0000057E5010121E6D74106C777E60077E5037
:101F100010121E6D74207E70029000287EEB601AF5
:101F2000267E60027E3010121B79900028E0BEB041
:101F30000B504E7EA003A4901F3B73021F5C021F38
:101F40005F021F62021F65021F68021F6B021F6E85
:101F5000021F71021F74021F77021F7AC2EF22C292
:101F6000EE22C2ED22C2EC22C2EB22C2EA22C2E978
:101F700022C2E822C2B622C2B72275E8FFD2F8D246
:101F8000F922CA3B9000D77AEB607F309000D67A76
:101F9000EB709000D5F0E49000D8F0804D9000D523
:101FA000E09000D67EEB709000D87EEB607CA60BB4
:101FB000A07AEBA00A267F032D127E0B609000D73B
:101FC0007EEB50121A9A9000D77EEBA0BEA0087844
:101FD000099000D5E02406F080100A3A7E24000221
:101FE00012129A9000D5E02CB7F09000D8E00A3B8E
:101FF0002D377D267E1BB070A4DA3B227584017ECE
:1020000044041FE47A49B01B4478F97EF800077E47
:102010000400FF7E14222F0B0A405D4468222950E1
:1020200000020A25693000032E0800050B44800ACF
:102030007E0BB07A1BB00B1C0B0C1B4478F280D7C4
:10204000021514CA796CFF0A5F2E5400B06C771227
:1020500020A5E46C771220A574106C771220A56C73
:10206000EEE47E70011220A50BE0BEE08078F20B5A
:10207000F0BEF00840D1DA7922CAF87CFB4CFB783C
:102080000E74C86C771220A574A16C771220A5BEBF
:10209000F001780E74C06C771220A574A06C7712D2
:1020A00020A5DAF8227CAB4C776804D2C38002C248
:1020B000C3C2C47E7008C2C07CBA30E704D2C180FB
:1020C00002C2C1D2C03EA01B7078EBD2C4D2C322E0
:1020D0007EA1BC5EA0E04CBAF5BC43BCC0E5BC3000
:1020E000E5FB53BCDFE5BD7C6B6C77E5BE0A2B4D91
:1020F000321E341E341E341E3422CAF87CFB0A57AA
:102100002E5400B06C771220A57CBF54F0C4540F3D
:1021100044106C771220A57CBF540F6C771220A559
:10212000DAF82220CC057EA001801A20CB057EA003
:1021300002801220CA057EA003800A20C9057EA065
:102140000480026CAA7CBA22CAF87CFB4CFB78079C
:1021500074A66C771220A5BEF001780774A76C777F
:102160001220A5DAF82290000B0BEA107E34FED57F
:102170007E24007E7A1B207E34FED67A1B30227DA0
:1021800013800E7E0407087D301B044D3378F81B46
:10219000144D1178EE227CA77C3B7E340001800434
:1021A0000A23AD327C2A1BA0A5BA00F4227D237E2F
:1021B0003416C97D131B147D3178F87D121B147DF4
:1021C0002178EC22748D6C771220A574146C771230
:1021D00020A574AF6C770220A5748D6C771220A5B2
:1021E00074106C771220A574AE6C770220A57598D8
:1021F00050438E01538EFB75D7E675D6FF438E1084
:10220000227592007591FF75DE0075BC802200007A
:10221000007E186D601B1C78FC227AB1993099FD04
:10222000C29922CAF812221ADAF8222830290000AC
:10223000010100010000040100134121837B000122
:1022400001001B0000010100280000040100CD0076
:10225000000000000050574D00252E33666D4100F0
:07226000763A252E326600DC
:00000001FF
