:1000000002208502033A6E00807CB1337CB03368F5
:100010000D0468EF7CB5337CB43378037F10220481
:1000200068E17D5092F77D457D51BF2140067C807F
:100030007F017F121202FD7EA1D05CB00478032004
:10004000D5C17CB00478075002B2D502034292D5E4
:10005000BE80FF68F67CB89CB06C00602AB41805BE
:100060007C4102031650FB80032F00047C9B5E90B2
:100070000778F630E4067C437D106D0030E3087CA1
:10008000437C327C210A0030F5199F10780E220241
:10009000033F1B8068F92F1150020B707CB530E7CD
:1000A000F1801B2D317CB5A5397C5B50110B80781C
:1000B000030203421E341350034E60801A2B0203C6
:1000C000165D22680D5D0078122D220B4068099F95
:1000D00011222D000B0078F902033A1202FD5C8018
:1000E0000B806808248150072CB0500A0203422C70
:1000F000B0400302033F7C8B5D1178267CB17CA568
:10010000BE1080680A5D33780DA5BD80057F1002A2
:10011000032C6D0080307F017C5B7CB17CA5AD122F
:1001200080245D337806A5BD80F080E1CA887D41DA
:10013000AD437CB17CA5AD122D1450020B047C5B49
:10014000AD232F01DA88A42D05BE008040060B8068
:10015000780480982F007C437C507C617C72020381
:1001600016BE24FFFF6806BE04FFFF780302033AB1
:100170001202FD5CB00468F57CB8A54868EF7CB855
:1001800070039F1122A5B800030203422E00815084
:10019000079C80380702033F9C8050ED0A51C2E75C
:1001A0004D51780302032C7E5400807E901A6C001F
:1001B00080061B9068142F11BF1040049F104CAB99
:1001C0000330E7EECAA86CAA80E8DA39DA587C4A2C
:1001D000BE5080500A1B8068BC2F1150020B700269
:1001E00003165D226809BE24FFFF68036E4080226B
:1001F0007EA020800C7EA01080057EA0086C556D2E
:10020000333392D5500A6E34FFFF6E24FFFF0B1C70
:10021000A5EC3340062F11D5F0F6227CBA247EA23D
:10022000D5137C767C65A5CC92E77C5B227F707FC2
:10023000517EC400017ED400FA7E9402400203C1C4
:100240004005E47A7BB0227A7BB00B7C227CB5A29D
:10025000E7D2E77C1B7CB4334009680DB4FF0BA5E3
:10026000BDFF0302033A020342227C0B2481C2E059
:10027000F582F4042CB07C2BC3137C4B7CB592E745
:100280007C5B7F417CB6A2E77CB1A5BA7F02C31339
:10029000340094007C2B7EA091A47CBA13F494FECD
:1002A000ACB2337CBA33248CD3137C5BE492E77C0E
:1002B0006B6C777E403F7583027F517F017F141204
:1002C00001617F051200099E240080D583EB7E0129
:1002D000826C110E041E042D205E407F227F617F00
:1002E000011200C16E40806D117E043F8012000932
:1002F00012024D7F017F161201610207F02D00925C
:10030000D50E104E10807D422D445002B2D54E5075
:10031000806C447CB8222C4450120B1C7E40005E42
:10032000507FBE18000078040B806816A2D57CB8F8
:10033000137C4B7CB592E77C5B227E1CFFFF229FE7
:1003400011227E24FF8020D5026C456D332274F883
:100350006CAA6E40806E0080BEB0FF68277C837CF4
:10036000975C3B5C7BBF10682AF4400D7C382D15F0
:10037000F45C3B500F0B04800B7C792D35F45C7BD7
:1003800050020B24BF10680B7CB020E7067CB42021
:10039000E701B322540F2490D43440D430F30CBE80
:1003A000B0414007BEB05B500224204CCC68021B19
:1003B000C00B84D389944CCC680B74201203AB809F
:1003C000F5CA3B6D889F337CAE7E5BB00B5C7007DB
:1003D000C37D38DA3B8994B42569C2F37E5BB00BE8
:1003E0005CA5F824D0BEB00A501B7E500A20F60D42
:1003F000AC5CA52D7CCB70034EF00180DDAC5DA51F
:100400002D7CDB80D524CFBEB01AA5E850055E0058
:10041000DFD2F3900796A3E4936011BCB078F77431
:1004200017934CAB30F6B34EF08080AEA3E49360EC
:1004300010BCB078F77416937C3B7423937C2B89A3
:10044000147CB0801374201203AB20F205BEC002EE
:1004500050F31B6D29B600011203AB0203B61B6EED
:10046000691600020B6A00BE08000078087E0400CE
:10047000FF7E1423EF20F21E4CCC681A7F10E47E1E
:100480001B804C8868070B1C04BCBD78F2C2F6CAFE
:100490000B120595DA0B7E0BB060C0CA0B1203ABD2
:1004A000DA0B0B0C4CDD68EE1BD078EA80ADD2F095
:1004B0007E101080037E10085EB05F800AD2F67E48
:1004C000100A80057E100AC2F66D119F117E002071
:1004D0001B6C7E6B7030F6021A3720F1051B6C7EA8
:1004E0006B6030F6041A261A2430F0051B6D0B6A77
:1004F00020A5EC3382F692F6500A7CEA9F229F21D7
:100500007F127CAE4C44780F7C457C567C676C77C0
:100510002E00F878EF80122F117CB3337C3B9CB116
:1005200040047C3B0B70A5D8EE7CB230E005DAB815
:10053000C44C3BCA380B207E00207E3000BE180021
:100540000078C1BE1008780730F404C2F480B5CA40
:10055000287CB2BCBD38027CBD120595DA28BC2DC2
:10056000500A1BD0E4CA2812039480F07CB213DA3C
:10057000B84004C4CAB8C4CA28BEF08040095CDDD3
:100580007805A5DA0260065EF07F120394DA28A5EA
:10059000DADA0203B6BEF001680F30F4022402205A
:1005A000F50620F70330F6010420F229BCBC5025E3
:1005B000CAB87CBF13B0E67420501174307C8A5ED8
:1005C00080F068081205D55EA00F80031203ABDA35
:1005D000B8BCBC78DB30F40F74301203AB74583005
:1005E000F30274781203AB30F605742D0203AB747A
:1005F0002B20F5F8742020F7F3221B6C7E6BB010D3
:10060000F1021B6C20F60B30E704F404D2F27CCB31
:10061000800520E7057CDB0203DA5EF07F80F81BB3
:100620006E691600020B6A0030F0076D221B0A206B
:100630000B0D1B0A800203C5E46C22BE3007500B71
:100640007F1F2D312E34FFF77E39B0227CBF20E78B
:10065000A8742E4EF0800203AB12077F403D7CBD94
:100660007003047CDB1209887C3D4C3368101B301E
:100670007CBE20E40912063870044C3378F07CBD4F
:100680007CD3BEA0FD481CBCAB5818E49CBA2CB36C
:100690001801E47CDB02072012077F406E7CBD045A
:1006A0001209887AFBA07CAE7CBDA2F492F0C2F461
:1006B000400260010424051205957E30FF0B3012C4
:1006C0000638CA3812039420F0044CDD6803120681
:1006D0004CDA38BC3D78E6740E120394742B7EFB22
:1006E000A030F707742D6EA0FF0BA07AFBA01203B9
:1006F000AB7EA00A7EFBB0847AFBA01203947EFB43
:10070000B01203949EF800080203B6D2F27ED00025
:1007100002047512077F40F37CBA2CBD04120988CD
:100720007AFBA07CBA7CAE30E701E40420F4044CF0
:10073000DD6805D2F0C2F4042CBD1205956C337E41
:10074000FBB0601B20E712147AFBB0120638CA38DF
:10075000120394DA380B3080E6047AFBB01B3012B7
:100760000638CA381203944CDD680712064C1BD0B9
:1007700080E19EF8000930F00312064C0203B67CBB
:10078000EA7CAF10F7037ED0067CFA1B6E69360058
:10079000020B6A200208D02D2B204C4248232E0049
:1007A00053584F44494355502A4E4645470004206C
:1007B0008001020010405EB0B5BDBD4AC4AEFA1F54
:1007C00013985904040404040404040506070606E7
:1007D000BE1249253E4CCCCDBEAAAAAB3F8000003C
:1007E0003E7ADBB03EED63383F24BC7D3F490FDBF2
:1007F0007DC25E407FBE247F804010680302033AC2
:100800007E340FDB7E243FC90208B45EC480007DC5
:10081000522D55BEA07F401378049420400D7F01D7
:100820007E243F806D331201610BC47CB5337CB4F0
:1008300033248430E7046DDD803E047CAB7CB5D28C
:10084000E754F0C333D5F0FC5407340023230ADB0C
:100850007F417F017C4BE41201FA1B417F71120042
:10086000C17E043F806D111200097F077F717F14E4
:100870001200067F071201617F717E9407D07E848B
:1008800000FF74031209CB7F071200C15DDD6814FD
:100890007E5407DC7E4400FF2D5D0B2A00691200A8
:1008A000021200097D5C30E00B7E04BFC97E140F8C
:1008B000DB1200095D2268095E407F5EC480004D46
:1008C0002C224E614E002B494E46002D494E4600CB
:1008D0007D522D557CBE92E67CEB7CBA601F047085
:1008E000287CB5C2E77E0400FF60067E1408C2D3F0
:1008F000227E1408CB40047E1408C6D322DA099F56
:1009000022CA2BCA2BC3CA09220A0A7E144D10AD73
:10091000109E083AF09E10267CB5C2E77EA0567C59
:100920009BA46E54FFFF2E54C511ACA92D15E4A550
:1009300039CAB8CA1B20E70A120A28DA1B12016159
:10094000800AF404120A28DA1B1200C1DAA87CB566
:10095000337CB4334E50806C4424822F111478FBC6
:10096000DA497407BE400A40099E400ACA020114CF
:100970000BA0CA486C442F117F012F112F112F108B
:100980001478EFCA48CA49227F0F20E73ABEB00761
:10099000400274070A0B2D109E1400097E19B02E18
:1009A000B0FB501F4C116817E47A19B01B147E1964
:1009B000B0047A19B0B40A0BE47A19B0A5D9ED0BDA
:1009C000A074017A19B0225EE0BF22CAB87F01127A
:1009D00000C1DAB87F510B4A20693400020B4E7F08
:1009E00005CAB81200C10B4A00691400020B4E126E
:1009F0000009DAB81478E8223F80000041200000A6
:100A000042C80000447A0000461C400047C3500022
:100A1000497424004B1896804CBEBC205A0E1BCA49
:100A20006753C21C749DC5AE7C7B60065407681674
:100A30002323120A4D7CB75438680A7F10120A4AE1
:100A40001200C17F01227CB7543803241C6CAA2EEB
:100A50005409F87E4400FF0B2A006912000222C2EA
:100A6000D57CB430E708B2D56E24FFFF0B247CB6EA
:100A700030E712B2D56E34FFFF0B348D326E24FF97
:100A8000FF0B2480028D3230D5066E34FFFF0B340D
:100A9000227D51AD037D027D21AD052D12AD352D99
:100AA00021226D0074104D00780B4D2278278D3176
:100AB0007D126D22227D437D326D222F112D4450F7
:100AC00002A50FBF1040049F100B901478ED7F011A
:100AD0006D227D34227D417D138D247D022F0040C7
:100AE00004BD0440049D040B141478F17D237D3172
:100AF0007D106D00220000000000000000002F00AB
:100B00000000000700070000147F147F1400242A4F
:100B10007F2A1200626408132300364955225000D0
:100B2000000503000000001C224100000041221CBF
:100B3000000014083E08140008083E0808000000E1
:100B4000A0600000080808080800006060000000BD
:100B50002010080402003E5149453E0000427F40FB
:100B600000004261514946002141454B31001814B3
:100B7000127F10002745454539003C4A494930005D
:100B800001710905030036494949360006494929DA
:100B90001E00003636000000005636000000081423
:100BA00022410000141414141400004122140800FF
:100BB000020151090600324959513E007C121112BE
:100BC0007C007F49494936003E41414122007F4136
:100BD00041221C007F49494941007F090909010060
:100BE0003E4149497A007F0808087F0000417F4163
:100BF00000002040413F01007F08142241007F4057
:100C0000404040007F020C027F007F0408107F00FC
:100C10003E4141413E007F09090906003E41512104
:100C20005E007F0919294600464949493100010102
:100C30007F0101003F4040403F001F2040201F0037
:100C40003F4038403F0063140814630007087008F1
:100C50000700615149454300007F41410000552A8A
:100C6000552A55000041417F0000040201020400A2
:100C70004040404040000001020400002054545411
:100C800078007F48444438003844444420003844C5
:100C900044487F00385454541800087E090102006B
:100CA00018A4A4A47C007F080404780000447D40BC
:100CB00000004080847D00007F1028440000004137
:100CC0007F4000007C04180478007C08040478004D
:100CD000384444443800FC242424180018242418E0
:100CE000FC007C0804040800485454542000043FCD
:100CF000444020003C4040207C001C2040201C0040
:100D00003C4030403C004428102844001CA0A0A0D7
:100D10007C004464544C4414141414141400000053
:100D200000000000000000000000000000000000C3
:100D3000F800000000000000333000000000100C3C
:100D400006100C0600000000000000000040C07803
:100D500040C0784000043F04043F04040000708851
:100D6000FC08300000001820FF211E0000F008F0F1
:100D700000E018000000211C031E211E0000F008E6
:100D800088700000001E2123241927211010160E40
:100D90000000000000000000000000000000000053
:100DA000E0180402000000000718204000000204C0
:100DB00018E00000000040201807000000404080BC
:100DC000F0804040000202010F010202000000001A
:100DD000F0000000000101011F01010100000000FE
:100DE000000000000080B070000000000000000063
:100DF00000000000000001010101010101000000EC
:100E00000000000000003030000000000000000082
:100E10000080601804006018060100000000E01067
:100E2000080810E000000F102020100F0000101024
:100E3000F8000000000020203F2020000000700883
:100E40000808887000003028242221300000300873
:100E500088884830000018202020110E000000C0B3
:100E60002010F8000000070424243F240000F808A4
:100E700088880808000019212020110E0000E010C9
:100E80008888180000000F112020110E000038087B
:100E900008C83808000000003F000000000070880B
:100EA0000808887000001C222121221C0000E0108C
:100EB000080810E0000000312222110F000000009D
:100EC000C0C0000000000000303000000000000042
:100ED0008000000000000080600000000000008032
:100EE000402010080000010204081020004040408B
:100EF00040404040000404040404040400000810BE
:100F0000204080000000201008040201000070480A
:100F1000080808F0000000003036010000C030C8AA
:100F200028E810E0000718272423140B000000C055
:100F300038E0000000203C23020227382008F8880F
:100F40008888700000203F202020110E00C030084B
:100F50000808083800071820202010080008F808A2
:100F6000080810E000203F202020100F0008F8881B
:100F700088E8081000203F20202320180008F88867
:100F800088E8081000203F200003000000C030085F
:100F9000080838000007182020221E020008F80860
:100FA000000008F808203F210101213F2000080827
:100FB000F8080800000020203F2020000000000862
:100FC00008F8080800C08080807F00000008F888CA
:100FD000C028180800203F20012638200008F80803
:100FE0000000000000203F20202020300008F8F8FA
:100FF00000F8F80800203F003F003F200008F830CC
:10100000C00008F808203F200007183F00E0100843
:10101000080810E0000F10202020100F0008F8082A
:10102000080808F000203F210101010000E010083D
:10103000080810E0000F18242438504F0008F888E2
:101040008888887000203F2000030C3020007088C2
:1010500008080838000038202121221C0018080840
:10106000F8080818000000203F2000000008F808D9
:10107000000008F808001F202020201F00087888A2
:101080000000C83808000007380E010000F808000A
:10109000F80008F800033C0700073C030008186844
:1010A000808068180820302C03032C30200838C8B2
:1010B00000C83808000000203F2000000010080889
:1010C00008C8380800203826212020180000000019
:1010D000FE020202000000007F40404000000C3091
:1010E000C000000000000000010638C0000002023D
:1010F00002FE000000004040407F000000000004AD
:1011000002020204000000000000000000000000D5
:1011100000000000008080808080808080000202CB
:10112000040000000000000000000000000000803B
:1011300080808000000019242222223F2008F8002D
:101140008080000000003F112020110E00000000F0
:101150008080800000000E1120202011000000007F
:10116000808088F800000E112020103F20000080B1
:101170008080800000001F22222222130000808035
:10118000F0888888180020203F2020000000008080
:101190008080808000006B94949493600008F80035
:1011A0008080800000203F210000203F20008098A8
:1011B00098000000000020203F20200000000000D8
:1011C000809898000000C08080807F000008F800B0
:1011D0000080808000203F24022D3020000008087D
:1011E000F8000000000020203F20200000808080C8
:1011F0008080808000203F20003F20003F808000D2
:101200008080800000203F210000203F20000080DF
:101210008080800000001F202020201F0080800090
:10122000808000000080FFA12020110E000000003F
:101230008080808000000E112020A0FF80808080B0
:10124000008080800020203F2120000100000080DD
:1012500080808080000033242424241900008080B2
:10126000E0808000000000001F202000008080003F
:101270000000808000001F202020103F2080808000
:10128000000080808000010E300806010080800090
:1012900080008080800F300C030C300F00008080B5
:1012A00000808080000020312E0E31200080808060
:1012B000000080808080818E701806010000808090
:1012C00080808080000021302C222130000000002E
:1012D00000807C020200000000003F40400000004F
:1012E00000FF00000000000000FF000000000202FC
:1012F0007C800000000040403F000000000006012C
:10130000010202040400000000000000002010E8B8
:1013100024272424E424342C20E000000080601FD3
:10132000090909097F090949897F0000000000FCBB
:10133000242424FC252624FC242424040040308F6B
:1013400080844C55252525554C8080800000FE0268
:10135000424ACA4A4ACA4A4A4202FE000000FF40C4
:10136000504C4340404F50505C40FF00000000F89C
:1013700088888888FF88888888F800000000001F17
:10138000080808087F888888889F80F0008082820B
:1013900082828282E2A2928A86828080000000009D
:1013A000000040807F0000000000000000101010CE
:1013B000FF109008888888FF888888080004448285
:1013C0007F01808040432C1028468180000010104F
:1013D0001010D030FF30D0121C1010000010080484
:1013E00002010000FF0000010204081000CA3B7F58
:1013F000309000D21BEA20793E00029000DE693E68
:1014000000020BEA207F011200C17F719000DA69AF
:101410003E00020BEA207F011200C17F0712000983
:101420007F719000E2693E00020BEA207F0112000A
:10143000C17F0712000912024D7F719000DA693EE8
:1014400000020BEA207F071201619000DA793E006A
:10145000021BEA209000DE693E00020BEA207F07B3
:101460001201619000DE793E00021BEA209000E24A
:10147000693E00020BEA207F071201619000E279C9
:101480003E00021BEA209000AA699E00020BEA803F
:101490007E6F000C7F167F041200C17F719000AE3A
:1014A00069BE00020BEAA09000A2693E00020BEAAE
:1014B000207F051200C17F071200066D117E0440D7
:1014C000001200C17A1F003A7F147F051200C17F0D
:1014D000719000A2691E00020BEA007F161200C183
:1014E0007F071200096D117E0440001200C17F6168
:1014F0009000A2691E00020BEA009000A2693E0063
:10150000020BEA201200C17F717E0F000C7E1F00CB
:101510000C1200C17F071200067F717F147F041236
:1015200000C17F017F171200067F717F157F0512B2
:1015300000C17F071200097F719000E2693E00023E
:101540000BEA207F061200C17F519000DE693E0049
:10155000020BEA207F071200C17F051200067F41BF
:101560009000DA693E00020BEA207F071200C17F7B
:10157000717E0F003A9000E2693E00020BEA2012F1
:1015800000C17F071200067F517E0F003A9000DEF7
:10159000693E00020BEA201200C17F719000DA69F7
:1015A0003E00020BEA207F061200C17F07120006F0
:1015B0007F617EF4126F7EE43A837F147F0712000E
:1015C000C17E0F00081200097A1F00087F157F07EF
:1015D0001200C1900000691E00020BEA001200090F
:1015E000900000793E00021BEA207F167F07120060
:1015F000C1900004691E00020BEA0012000990006D
:1016000004793E00021BEA207EF4CCCD7EE43F4C00
:101610007F177F041200C19000D2691E00020BEAFE
:10162000001200097E0F00081200099000D2793ED6
:1016300000021BEA207F177F051200C17F03120002
:1016400009900000691E00020BEA001200097F31B8
:101650007F177F061200C19000D6691E00020BEAB8
:1016600000120009900004691E00020BEA0012003B
:10167000099000D6793E00021BEA209000A2693E44
:1016800000020BEA201201E29000D2699E00020BD8
:10169000EA807F041200C17F719000AA693E0002B7
:1016A0000BEA207F031200C17F017F171200067F23
:1016B000719000D669BE00020BEAA09000AE693EB0
:1016C00000020BEA207F051200C17F017F17120084
:1016D000067EF4126F7EE43B837F071200C17E0F0B
:1016E000000C1200097A1F000C9000AA693E00024B
:1016F0000BEA207F051200C17F617E1F000C7F0472
:101700001200C17F061200097F619000AE693E00A1
:10171000020BEA207F031200C17F017F1612000630
:101720007F071200C19000A2691E00020BEA00129E
:1017300000099000A2793E00021BEA209000A269F5
:101740003E00020BEA207F051200C17F617E1F0070
:101750000C7F031200C17F061200067F619000AE6D
:10176000693E00020BEA207F041200C17F061200CE
:10177000097F071200C19000AA691E00020BEA004F
:101780001200099000AA793E00021BEA209000A2F4
:10179000693E00020BEA207F031200C17F617E1FB9
:1017A000000C7F051200C17F061200097F519000D6
:1017B000AA69DE00020BEAC07F167F041200C17F17
:1017C000017F151200067F071200C19000AE691E4E
:1017D00000020BEA001200099000AE793E00021BE5
:1017E000EA209000A2691E00020BEA009000A269A4
:1017F0003E00020BEA201200C17F717E0F000C7EBA
:101800001F000C1200C17F071200097F717F167F35
:10181000061200C17F071200097F719000AE693E79
:1018200000020BEA207F011200C17F07120009129B
:10183000024D7F717E1F000C7F071201617A1F002D
:101840000C9000A2693E00020BEA207F07120161A2
:101850009000A2793E00021BEA209000AA693E0097
:10186000020BEA207F071201619000AA793E000274
:101870001BEA209000AE693E00020BEA207F0712AF
:1018800001619000AE793E00021BEA209000AE6933
:10189000FE00020BEAE06DBB7EA440007F157F07CF
:1018A0001200C17F071200C17F419000AA69DE00CB
:1018B000020BEAC06D337E24C0007F061200C17F98
:1018C000061200C17F041200066D117E043F8012D3
:1018D0000009CA1B7E0F000C7F151200C17F071282
:1018E00000C17F719000A2691E00020BEA007F1503
:1018F0001200C17F061200C17F07120009DA0B1225
:1019000021647E142EE17E0442651200C19000CE57
:10191000793E00021BEA207E0F000C6D337E2440CE
:10192000001200C19000AA691E00020BEA0012001A
:10193000C17F719000A2691E00020BEA006D337E28
:1019400024C0001200C19000AE691E00020BEA0024
:101950001200C17F071200091202DD7E142EE17E03
:101960000442651200C19000CA793E00021BEA20C1
:101970009000AA69FE00020BEAE06DBB7EA4400065
:101980007F157F071200C17F617F071200C17F4171
:101990009000A269FE00020BEAE06D337E24C000D5
:1019A0007F071200C17F071200C17F041200066D7D
:1019B000117E043F80120009CA1B7E0F000C7F15A8
:1019C0001200C17F071200C17F719000AE691E0036
:1019D000020BEA007F161200C17F07120009DA0B22
:1019E0001221647E142EE17E0442651200C17A1F2A
:1019F0000026DA3B2275B4FF75B300759600759525
:101A0000001221DF121DFD7E08002A1220F57E340F
:101A1000002A7E2400000B1A207CB41201F56DFF11
:101A20007EE446007F071201617A1F00107E3400B9
:101A30002C7E2400000B1A207CB41201F57F0712C3
:101A400001619000B2793E00021BEA207E34002E34
:101A50007E2400000B1A207CB41201F57F071201CE
:101A6000619000B6793E00021BEA207E1F001490B0
:101A7000009E793E00021BEA209000BA693E0002F7
:101A80000BEA209000A6793E00021BEA207E34007B
:101A9000327E2400000B1A209E2700247CB4120101
:101AA000F57EE442837F071201617A1F00147E34C1
:101AB00000347E2400000B1A209000C60BEA309DF3
:101AC000237CB41201F57F071201619000BA793EC0
:101AD00000021BEA207E3400367E2400000B1A2010
:101AE0009000C80BEA309D237CB41201F57F0712E9
:101AF00001619000BE793E00021BEA207EF4FA39B3
:101B00007EE43C8E9000BE693E00020BEA207F0717
:101B10001200C19000D6793E00021BEA207E1F0011
:101B2000109000DA793E00021BEA209000B2693E74
:101B300000020BEA209000DE793E00021BEA2090B2
:101B400000B6693E00020BEA209000E2793E0002F6
:101B50001BEA207E1F00147F071200C1CA1B9000E1
:101B6000BA693E00020BEA207F071200C17F01DA4A
:101B70001B1213ED7E1F00269000F6793E00021B1B
:101B8000EA207E1400087E0400017E3424D77E24DF
:101B900000FF12022DE46C777E1400087E04000121
:101BA0007E600812200B9000CA693E00020BEA20FA
:101BB0009000F6793E00021BEA207E14003A7E0473
:101BC00000017E3424D07E2400FF12022DE47E70BA
:101BD000017E14003A7E0400017E600812200B9002
:101BE00000CE693E00020BEA209000F6793E00022A
:101BF0001BEA207E14006C7E0400017E3424C97E22
:101C00002400FF12022DE47E70027E14006C7E041C
:101C100000017E600812200B021A07CA3B9000FDEB
:101C20007AEB509000FC7AEB607F309000FB7AEB0F
:101C3000709000FAF0E4900100F0900101F0900043
:101C4000FDE0B408067402900100F0E49000FEF09C
:101C5000021D0A740A9000FE7EEBA00A2A9000FC86
:101C60007EEBA00A3A9D321B3412234A7F017F1378
:101C7000120AA47E14000A120AA27CB39000FFF09C
:101C8000900101E070459000FCE00A0B1B049000FD
:101C9000FEE00A1BBD1058339000FFE07027900053
:101CA000FD7EEB500A351E34900100E00A0B2D0337
:101CB000AD109000FAE00A5B2D519000FB7EEB70B6
:101CC0007E6020803C7401900101F09000FD7EEB6D
:101CD000500A151E14900100E00A0B2D019000FE21
:101CE000E00A1BAD109000FAE00A5B2D519000FB5A
:101CF0007EEB709000FF7EEB600A162E1400307CA5
:101D000063121D1E9000FEE004F09000FC7EEBA02C
:101D10009000FEE0BCBA5003021C53DA3B22CA3BDF
:101D20007CF57C367CE77CDB0A257D321E347CB773
:101D30009000D6F06D009000D71BEA00BEF0087846
:101D40000C7E0400069000D91BEA0080207D021E54
:101D5000041E041E045E24000768067E2400018021
:101D6000026D222D20AD329000D91BEA300A339E3D
:101D70003400207CC77CBD7C7E12229E6D33900097
:101D8000D780649000D6E00A3B9000D70BEA208D04
:101D9000234D22780EBEF00868097CBD7C7E0BE0E6
:101DA00012229EBEF00878137E7006AC7C9000D79D
:101DB0000BEA202D322E340AF58016BEF010783A48
:101DC0007E7010AC7C9000D70BEA202D322E340DA3
:101DD0001D7A71827A6183E4937E7001122273907E
:101DE00000D70BEA300B341BEA309000D90BEA2005
:101DF0009000D70BEA30BD324089DA3B22C2C27E66
:101E00003400C812237ED2C274AE6C77122273E4FF
:101E10006C7712227374106C7712227374406C7793
:101E200012227374816C7712227374CF6C77122232
:101E30007374A16C7712227374C86C771222737456
:101E4000A66C7712227374A86C77122273743F6C9D
:101E50007712227374D36C77122273E46C77122298
:101E60007374D56C7712227374806C77122273743A
:101E7000D96C7712227374F16C7712227374DA6C56
:101E80007712227374126C7712227374DB6C7712E0
:101E9000227374406C7712227374206C7712227351
:101EA00074026C77122273748D6C7712227374141F
:101EB0006C7712227374A46C7712227374A66C77F9
:101EC0001222731221A974AF6C77022273CA3B7F6E
:101ED000309001057AEB509001047AEB6090010399
:101EE0007AEB70900102F06D339001061BEA30909E
:101EF0000105E00A5B7D455E44000768067E4400FC
:101F00000180026D441E541E541E542D5490010530
:101F1000F0E4900108F08054900102E09001037E0B
:101F2000EBA00A2A9001087EEBA00A3A2D32122279
:101F30009EE4900109F080209001060BEA307D2399
:101F40000B241BEA202D377D267E1BB07E700112EC
:101F50002273900109E004F09001047EEBA090014F
:101F600009E0BCBA40D2900108E004F09001057E7F
:101F7000EBA0900108E0BCBA409EDA3B22CA3B7C51
:101F8000F57CE67CD77CCB0A357D131E141E141E0F
:101F9000147D235E24000768067E24000180026D04
:101FA000222D21AD3290010C1BEA306D3390010AD5
:101FB00080430A3F90010A0BEA208D234D227809C5
:101FC0007CBC7C7D0BD012229EBEF010783A7E70D5
:101FD00020AC7E90010A0BEA202D322E34130D7AAC
:101FE00071827A6183E4937E700112227390010AF8
:101FF0000BEA300B341BEA3090010C0BEA20900105
:102000000A0BEA30BD3240AADA3B22CA3B9000D428
:102010007AEB607F309000D37AEB709000D2F0E4DE
:102020009000D5F0804D9000D2E09000D37EEB7010
:102030009000D57EEB607CA60BA07AEBA00A267FF1
:10204000032D127E0B609000D47EEB50121D1E906B
:1020500000D47EEBA0BEA00878099000D2E0240650
:10206000F080100A3A7E240002120A5F9000D2E04B
:102070002CB7F09000D5E00A3B2D377D267E1BB0B3
:1020800070A4DA3B227584017E44041FE47A49B0CF
:102090001B4478F97EF8003D7E0400FF7E14248105
:1020A0000B0A405D44681A692000020B0E0B448045
:1020B0000A7E0BB07A29B00B240B0C1B4478F280FB
:1020C000DF7E0400FF7E1423F30B0A405D44682288
:1020D000295000020A25693000032E0800050B4430
:1020E000800A7E0BB07A1BB00B1C0B0C1B4478F2E1
:1020F00080D70219F5CA3B7F3012236474D01222B4
:10210000ED743B1222ED12236474D11222EDE4909F
:1021100000D2F01222C77CAB9000D2E00A3B2D37F0
:102120007D267A1BA0C2A4D2A51223E4C2A5122345
:10213000E49000D2E004F09000D2E0BEB00D40D3B5
:102140001222C77CAB9000D2E00A3B2D377D267A65
:102150001BA0D2A4D2A51223E4C2A51223E4122309
:10216000D5DA3B22CA0B691FFFFF690FFFFD120181
:10217000611207F07F717F1F2E34FFFD7E1BB03090
:10218000E7229F007F1712034E380A7E140FDB7E72
:1021900004404980087E140FDB7E04C0497F17127B
:1021A00000097F717F171BFE22CA796CFF0A5F2E20
:1021B0005400B06C77122273E46C7712227374109F
:1021C0006C771222736CEEE47E70011222730BE0C6
:1021D000BEE08078F20BF0BEF00840D1DA792243FD
:1021E00095304396301223E41223E41223E41223A1
:1021F000E4746B6C7712232E74197E700712232EF1
:10220000741A7E700412232E741B7E700812232E03
:10221000741C02232ECAF87CFB12236474D0122291
:10222000ED7CBF1222ED12236474D11222ED122232
:10223000C77CFBD2A4D2A51223E4C2A51223E412C8
:1022400023D57CBFDAF822CAF87CFB4CFB780E74ED
:10225000C86C7712227374A16C77122273BEF001DE
:10226000780E74C06C7712227374A06C771222738C
:10227000DAF8227CAB4C776804D2C38002C2C3C2B6
:10228000C47E7008C2C07CBA30E704D2C18002C2EA
:10229000C1D2C03EA01B7078EBD2C4D2C322CAF810
:1022A0007CFB0A572E5400B06C771222737CBF540B
:1022B000F0C4540F44106C771222737CBF540F6C1F
:1022C00077122273DAF822CA796CFFD2A46CEE3E40
:1022D000F0D2A51223E4A2A4E4334CFBC2A512233E
:1022E000E40BE0BEE00840E77CBFDA7922CA797CE3
:1022F000FB6CEE3EF0A2D792A4D2A51223E4C2A5B5
:102300001223E40BE0BEE00840E9122395DA7922BB
:10231000CAF87CFB4CFB780774A66C77122273BE5C
:10232000F001780774A76C77122273DAF822CA7961
:102330007CEB12236474D01222ED7CBE1222ED7C61
:10234000B71222ED1223D5DA79227C977C8B7E1886
:10235000000180070A186D00120A917CA91B904C9D
:10236000AA78F1221223E41223E4D2A4D2A51223E4
:10237000E41223E4C2A41223E4C2A50223E47D13E1
:10238000800E7E0407087D301B044D3378F81B1443
:102390004D1178EE22D2A41223E4D2A51223E4A296
:1023A000A492D7C2A51223E4A2D722748D6C77120F
:1023B000227374146C7712227374AF6C77022273D9
:1023C000748D6C7712227374106C7712227374AE52
:1023D0006C770222731223E4C2A4D2A51223E4D2A2
:1023E000A40223E47EA0077CBA147CAB78F92228EF
:1023F000302900000401000000000000000401007A
:102400000400000000000401009E00000000000421
:102410000100A20000000000040100A6000000006E
:1024200000040100AA0000000000040100AE00004A
:10243000000000040100B20000000000040100B62A
:102440000000000000040100BA00000000000401C8
:1024500000BE0000000000040100C20000000000F7
:10246000020100C6000000020100C80000000401D3
:1024700000CA0000000000040100CE0000000000BF
:102480000000040008000000000004000C3F800071
:102490000000040010000000000004001400000010
:1024A0000000040018000000000004001C000000F0
:1024B00000000400200000000000020024000000D2
:1024C0000400260000000000007A3A252E33660042
:0E24D000793A252E336600783A252E336600C1
:00000001FF
